{
  "abi": [
    {
      "inputs": [
        {
          "internalType": "contract Comptroller",
          "name": "comptroller",
          "type": "address"
        },
        {
          "internalType": "contract PriceOracle",
          "name": "priceOracle",
          "type": "address"
        },
        {
          "components": [
            {
              "internalType": "contract CToken",
              "name": "cToken",
              "type": "address"
            },
            {
              "internalType": "string",
              "name": "priceOracleSymbol",
              "type": "string"
            }
          ],
          "internalType": "struct CompoundV2Query.CTokenRequest",
          "name": "cTokenRequest",
          "type": "tuple"
        },
        {
          "internalType": "address payable",
          "name": "account",
          "type": "address"
        },
        {
          "internalType": "address payable",
          "name": "spender",
          "type": "address"
        }
      ],
      "name": "cTokenMetadata",
      "outputs": [
        {
          "components": [
            {
              "internalType": "address",
              "name": "cToken",
              "type": "address"
            },
            {
              "internalType": "uint256",
              "name": "allowance",
              "type": "uint256"
            },
            {
              "internalType": "uint256",
              "name": "balance",
              "type": "uint256"
            },
            {
              "internalType": "uint256",
              "name": "balanceUnderlying",
              "type": "uint256"
            },
            {
              "internalType": "uint256",
              "name": "borrowBalance",
              "type": "uint256"
            },
            {
              "internalType": "uint256",
              "name": "collateralFactor",
              "type": "uint256"
            },
            {
              "internalType": "uint256",
              "name": "exchangeRate",
              "type": "uint256"
            },
            {
              "internalType": "uint256",
              "name": "price",
              "type": "uint256"
            }
          ],
          "internalType": "struct CompoundV2Query.CTokenMetadata",
          "name": "",
          "type": "tuple"
        }
      ],
      "stateMutability": "nonpayable",
      "type": "function"
    },
    {
      "inputs": [
        {
          "internalType": "contract Comet",
          "name": "comet",
          "type": "address"
        },
        {
          "internalType": "uint8",
          "name": "index",
          "type": "uint8"
        }
      ],
      "name": "collateralInfo",
      "outputs": [
        {
          "components": [
            {
              "internalType": "address",
              "name": "collateralAsset",
              "type": "address"
            },
            {
              "internalType": "uint256",
              "name": "collateralFactor",
              "type": "uint256"
            },
            {
              "internalType": "uint256",
              "name": "decimals",
              "type": "uint256"
            },
            {
              "internalType": "string",
              "name": "name",
              "type": "string"
            },
            {
              "internalType": "uint256",
              "name": "liquidateCollateralFactor",
              "type": "uint256"
            },
            {
              "internalType": "uint256",
              "name": "liquidationFactor",
              "type": "uint256"
            },
            {
              "internalType": "uint256",
              "name": "price",
              "type": "uint256"
            },
            {
              "internalType": "address",
              "name": "priceFeed",
              "type": "address"
            },
            {
              "internalType": "uint256",
              "name": "supplyCap",
              "type": "uint256"
            },
            {
              "internalType": "string",
              "name": "symbol",
              "type": "string"
            },
            {
              "internalType": "uint256",
              "name": "totalSupply",
              "type": "uint256"
            }
          ],
          "internalType": "struct CometQuery.CollateralAsset",
          "name": "",
          "type": "tuple"
        }
      ],
      "stateMutability": "view",
      "type": "function"
    },
    {
      "inputs": [
        {
          "internalType": "contract Comet",
          "name": "comet",
          "type": "address"
        },
        {
          "components": [
            {
              "internalType": "address",
              "name": "collateralAsset",
              "type": "address"
            },
            {
              "internalType": "uint256",
              "name": "collateralFactor",
              "type": "uint256"
            },
            {
              "internalType": "uint256",
              "name": "decimals",
              "type": "uint256"
            },
            {
              "internalType": "string",
              "name": "name",
              "type": "string"
            },
            {
              "internalType": "uint256",
              "name": "liquidateCollateralFactor",
              "type": "uint256"
            },
            {
              "internalType": "uint256",
              "name": "liquidationFactor",
              "type": "uint256"
            },
            {
              "internalType": "uint256",
              "name": "price",
              "type": "uint256"
            },
            {
              "internalType": "address",
              "name": "priceFeed",
              "type": "address"
            },
            {
              "internalType": "uint256",
              "name": "supplyCap",
              "type": "uint256"
            },
            {
              "internalType": "string",
              "name": "symbol",
              "type": "string"
            },
            {
              "internalType": "uint256",
              "name": "totalSupply",
              "type": "uint256"
            }
          ],
          "internalType": "struct CometQuery.CollateralAsset",
          "name": "asset",
          "type": "tuple"
        },
        {
          "internalType": "address payable",
          "name": "account",
          "type": "address"
        }
      ],
      "name": "collateralInfoWithAccount",
      "outputs": [
        {
          "components": [
            {
              "internalType": "address",
              "name": "collateralAsset",
              "type": "address"
            },
            {
              "internalType": "uint256",
              "name": "allowance",
              "type": "uint256"
            },
            {
              "internalType": "uint256",
              "name": "balance",
              "type": "uint256"
            },
            {
              "internalType": "uint256",
              "name": "collateralFactor",
              "type": "uint256"
            },
            {
              "internalType": "uint256",
              "name": "decimals",
              "type": "uint256"
            },
            {
              "internalType": "string",
              "name": "name",
              "type": "string"
            },
            {
              "internalType": "uint256",
              "name": "liquidateCollateralFactor",
              "type": "uint256"
            },
            {
              "internalType": "uint256",
              "name": "liquidationFactor",
              "type": "uint256"
            },
            {
              "internalType": "uint256",
              "name": "price",
              "type": "uint256"
            },
            {
              "internalType": "address",
              "name": "priceFeed",
              "type": "address"
            },
            {
              "internalType": "uint256",
              "name": "supplyCap",
              "type": "uint256"
            },
            {
              "internalType": "string",
              "name": "symbol",
              "type": "string"
            },
            {
              "internalType": "uint256",
              "name": "totalSupply",
              "type": "uint256"
            },
            {
              "internalType": "uint256",
              "name": "walletBalance",
              "type": "uint256"
            }
          ],
          "internalType": "struct CometQuery.CollateralAssetWithAccountState",
          "name": "",
          "type": "tuple"
        }
      ],
      "stateMutability": "view",
      "type": "function"
    },
    {
      "inputs": [
        {
          "internalType": "contract Comptroller",
          "name": "comptroller",
          "type": "address"
        },
        {
          "internalType": "contract Comet",
          "name": "comet",
          "type": "address"
        },
        {
          "components": [
            {
              "internalType": "contract CToken",
              "name": "cToken",
              "type": "address"
            },
            {
              "internalType": "string",
              "name": "priceOracleSymbol",
              "type": "string"
            }
          ],
          "internalType": "struct CompoundV2Query.CTokenRequest[]",
          "name": "cTokens",
          "type": "tuple[]"
        },
        {
          "internalType": "address payable",
          "name": "account",
          "type": "address"
        },
        {
          "internalType": "address payable",
          "name": "spender",
          "type": "address"
        }
      ],
      "name": "getMigratorData",
      "outputs": [
        {
          "components": [
            {
              "internalType": "uint256",
              "name": "migratorEnabled",
              "type": "uint256"
            },
            {
              "components": [
                {
                  "internalType": "address",
                  "name": "cToken",
                  "type": "address"
                },
                {
                  "internalType": "uint256",
                  "name": "allowance",
                  "type": "uint256"
                },
                {
                  "internalType": "uint256",
                  "name": "balance",
                  "type": "uint256"
                },
                {
                  "internalType": "uint256",
                  "name": "balanceUnderlying",
                  "type": "uint256"
                },
                {
                  "internalType": "uint256",
                  "name": "borrowBalance",
                  "type": "uint256"
                },
                {
                  "internalType": "uint256",
                  "name": "collateralFactor",
                  "type": "uint256"
                },
                {
                  "internalType": "uint256",
                  "name": "exchangeRate",
                  "type": "uint256"
                },
                {
                  "internalType": "uint256",
                  "name": "price",
                  "type": "uint256"
                }
              ],
              "internalType": "struct CompoundV2Query.CTokenMetadata[]",
              "name": "tokens",
              "type": "tuple[]"
            },
            {
              "components": [
                {
                  "components": [
                    {
                      "internalType": "address",
                      "name": "baseAsset",
                      "type": "address"
                    },
                    {
                      "internalType": "uint256",
                      "name": "allowance",
                      "type": "uint256"
                    },
                    {
                      "internalType": "uint256",
                      "name": "balance",
                      "type": "uint256"
                    },
                    {
                      "internalType": "uint256",
                      "name": "balanceOfComet",
                      "type": "uint256"
                    },
                    {
                      "internalType": "uint256",
                      "name": "decimals",
                      "type": "uint256"
                    },
                    {
                      "internalType": "uint256",
                      "name": "minBorrow",
                      "type": "uint256"
                    },
                    {
                      "internalType": "string",
                      "name": "name",
                      "type": "string"
                    },
                    {
                      "internalType": "address",
                      "name": "priceFeed",
                      "type": "address"
                    },
                    {
                      "internalType": "uint256",
                      "name": "price",
                      "type": "uint256"
                    },
                    {
                      "internalType": "string",
                      "name": "symbol",
                      "type": "string"
                    },
                    {
                      "internalType": "uint256",
                      "name": "walletBalance",
                      "type": "uint256"
                    }
                  ],
                  "internalType": "struct CometQuery.BaseAssetWithAccountState",
                  "name": "baseAsset",
                  "type": "tuple"
                },
                {
                  "internalType": "uint256",
                  "name": "baseMinForRewards",
                  "type": "uint256"
                },
                {
                  "internalType": "uint256",
                  "name": "baseTrackingBorrowSpeed",
                  "type": "uint256"
                },
                {
                  "internalType": "uint256",
                  "name": "baseTrackingSupplySpeed",
                  "type": "uint256"
                },
                {
                  "internalType": "uint256",
                  "name": "borrowAPR",
                  "type": "uint256"
                },
                {
                  "internalType": "uint256",
                  "name": "bulkerAllowance",
                  "type": "uint256"
                },
                {
                  "components": [
                    {
                      "internalType": "address",
                      "name": "collateralAsset",
                      "type": "address"
                    },
                    {
                      "internalType": "uint256",
                      "name": "allowance",
                      "type": "uint256"
                    },
                    {
                      "internalType": "uint256",
                      "name": "balance",
                      "type": "uint256"
                    },
                    {
                      "internalType": "uint256",
                      "name": "collateralFactor",
                      "type": "uint256"
                    },
                    {
                      "internalType": "uint256",
                      "name": "decimals",
                      "type": "uint256"
                    },
                    {
                      "internalType": "string",
                      "name": "name",
                      "type": "string"
                    },
                    {
                      "internalType": "uint256",
                      "name": "liquidateCollateralFactor",
                      "type": "uint256"
                    },
                    {
                      "internalType": "uint256",
                      "name": "liquidationFactor",
                      "type": "uint256"
                    },
                    {
                      "internalType": "uint256",
                      "name": "price",
                      "type": "uint256"
                    },
                    {
                      "internalType": "address",
                      "name": "priceFeed",
                      "type": "address"
                    },
                    {
                      "internalType": "uint256",
                      "name": "supplyCap",
                      "type": "uint256"
                    },
                    {
                      "internalType": "string",
                      "name": "symbol",
                      "type": "string"
                    },
                    {
                      "internalType": "uint256",
                      "name": "totalSupply",
                      "type": "uint256"
                    },
                    {
                      "internalType": "uint256",
                      "name": "walletBalance",
                      "type": "uint256"
                    }
                  ],
                  "internalType": "struct CometQuery.CollateralAssetWithAccountState[]",
                  "name": "collateralAssets",
                  "type": "tuple[]"
                },
                {
                  "internalType": "uint256",
                  "name": "earnAPR",
                  "type": "uint256"
                },
                {
                  "internalType": "uint256",
                  "name": "totalBorrow",
                  "type": "uint256"
                },
                {
                  "internalType": "uint256",
                  "name": "totalBorrowPrincipal",
                  "type": "uint256"
                },
                {
                  "internalType": "uint256",
                  "name": "totalSupply",
                  "type": "uint256"
                },
                {
                  "internalType": "uint256",
                  "name": "totalSupplyPrincipal",
                  "type": "uint256"
                },
                {
                  "internalType": "uint256",
                  "name": "trackingIndexScale",
                  "type": "uint256"
                }
              ],
              "internalType": "struct CometQuery.CometStateWithAccountState",
              "name": "cometState",
              "type": "tuple"
            }
          ],
          "internalType": "struct CompoundV2Query.QueryResponse",
          "name": "",
          "type": "tuple"
        }
      ],
      "stateMutability": "nonpayable",
      "type": "function"
    },
    {
      "inputs": [
        {
          "internalType": "contract Comet",
          "name": "comet",
          "type": "address"
        }
      ],
      "name": "query",
      "outputs": [
        {
          "components": [
            {
              "components": [
                {
                  "internalType": "address",
                  "name": "baseAsset",
                  "type": "address"
                },
                {
                  "internalType": "uint256",
                  "name": "balanceOfComet",
                  "type": "uint256"
                },
                {
                  "internalType": "uint256",
                  "name": "decimals",
                  "type": "uint256"
                },
                {
                  "internalType": "uint256",
                  "name": "minBorrow",
                  "type": "uint256"
                },
                {
                  "internalType": "string",
                  "name": "name",
                  "type": "string"
                },
                {
                  "internalType": "address",
                  "name": "priceFeed",
                  "type": "address"
                },
                {
                  "internalType": "uint256",
                  "name": "price",
                  "type": "uint256"
                },
                {
                  "internalType": "string",
                  "name": "symbol",
                  "type": "string"
                }
              ],
              "internalType": "struct CometQuery.BaseAsset",
              "name": "baseAsset",
              "type": "tuple"
            },
            {
              "internalType": "uint256",
              "name": "baseMinForRewards",
              "type": "uint256"
            },
            {
              "internalType": "uint256",
              "name": "baseTrackingBorrowSpeed",
              "type": "uint256"
            },
            {
              "internalType": "uint256",
              "name": "baseTrackingSupplySpeed",
              "type": "uint256"
            },
            {
              "internalType": "uint256",
              "name": "borrowAPR",
              "type": "uint256"
            },
            {
              "components": [
                {
                  "internalType": "address",
                  "name": "collateralAsset",
                  "type": "address"
                },
                {
                  "internalType": "uint256",
                  "name": "collateralFactor",
                  "type": "uint256"
                },
                {
                  "internalType": "uint256",
                  "name": "decimals",
                  "type": "uint256"
                },
                {
                  "internalType": "string",
                  "name": "name",
                  "type": "string"
                },
                {
                  "internalType": "uint256",
                  "name": "liquidateCollateralFactor",
                  "type": "uint256"
                },
                {
                  "internalType": "uint256",
                  "name": "liquidationFactor",
                  "type": "uint256"
                },
                {
                  "internalType": "uint256",
                  "name": "price",
                  "type": "uint256"
                },
                {
                  "internalType": "address",
                  "name": "priceFeed",
                  "type": "address"
                },
                {
                  "internalType": "uint256",
                  "name": "supplyCap",
                  "type": "uint256"
                },
                {
                  "internalType": "string",
                  "name": "symbol",
                  "type": "string"
                },
                {
                  "internalType": "uint256",
                  "name": "totalSupply",
                  "type": "uint256"
                }
              ],
              "internalType": "struct CometQuery.CollateralAsset[]",
              "name": "collateralAssets",
              "type": "tuple[]"
            },
            {
              "internalType": "uint256",
              "name": "earnAPR",
              "type": "uint256"
            },
            {
              "internalType": "uint256",
              "name": "totalBorrow",
              "type": "uint256"
            },
            {
              "internalType": "uint256",
              "name": "totalBorrowPrincipal",
              "type": "uint256"
            },
            {
              "internalType": "uint256",
              "name": "totalSupply",
              "type": "uint256"
            },
            {
              "internalType": "uint256",
              "name": "totalSupplyPrincipal",
              "type": "uint256"
            },
            {
              "internalType": "uint256",
              "name": "trackingIndexScale",
              "type": "uint256"
            }
          ],
          "internalType": "struct CometQuery.CometState",
          "name": "",
          "type": "tuple"
        }
      ],
      "stateMutability": "view",
      "type": "function"
    },
    {
      "inputs": [
        {
          "internalType": "contract Comet",
          "name": "comet",
          "type": "address"
        },
        {
          "internalType": "address payable",
          "name": "account",
          "type": "address"
        },
        {
          "internalType": "address payable",
          "name": "bulker",
          "type": "address"
        }
      ],
      "name": "queryWithAccount",
      "outputs": [
        {
          "components": [
            {
              "components": [
                {
                  "internalType": "address",
                  "name": "baseAsset",
                  "type": "address"
                },
                {
                  "internalType": "uint256",
                  "name": "allowance",
                  "type": "uint256"
                },
                {
                  "internalType": "uint256",
                  "name": "balance",
                  "type": "uint256"
                },
                {
                  "internalType": "uint256",
                  "name": "balanceOfComet",
                  "type": "uint256"
                },
                {
                  "internalType": "uint256",
                  "name": "decimals",
                  "type": "uint256"
                },
                {
                  "internalType": "uint256",
                  "name": "minBorrow",
                  "type": "uint256"
                },
                {
                  "internalType": "string",
                  "name": "name",
                  "type": "string"
                },
                {
                  "internalType": "address",
                  "name": "priceFeed",
                  "type": "address"
                },
                {
                  "internalType": "uint256",
                  "name": "price",
                  "type": "uint256"
                },
                {
                  "internalType": "string",
                  "name": "symbol",
                  "type": "string"
                },
                {
                  "internalType": "uint256",
                  "name": "walletBalance",
                  "type": "uint256"
                }
              ],
              "internalType": "struct CometQuery.BaseAssetWithAccountState",
              "name": "baseAsset",
              "type": "tuple"
            },
            {
              "internalType": "uint256",
              "name": "baseMinForRewards",
              "type": "uint256"
            },
            {
              "internalType": "uint256",
              "name": "baseTrackingBorrowSpeed",
              "type": "uint256"
            },
            {
              "internalType": "uint256",
              "name": "baseTrackingSupplySpeed",
              "type": "uint256"
            },
            {
              "internalType": "uint256",
              "name": "borrowAPR",
              "type": "uint256"
            },
            {
              "internalType": "uint256",
              "name": "bulkerAllowance",
              "type": "uint256"
            },
            {
              "components": [
                {
                  "internalType": "address",
                  "name": "collateralAsset",
                  "type": "address"
                },
                {
                  "internalType": "uint256",
                  "name": "allowance",
                  "type": "uint256"
                },
                {
                  "internalType": "uint256",
                  "name": "balance",
                  "type": "uint256"
                },
                {
                  "internalType": "uint256",
                  "name": "collateralFactor",
                  "type": "uint256"
                },
                {
                  "internalType": "uint256",
                  "name": "decimals",
                  "type": "uint256"
                },
                {
                  "internalType": "string",
                  "name": "name",
                  "type": "string"
                },
                {
                  "internalType": "uint256",
                  "name": "liquidateCollateralFactor",
                  "type": "uint256"
                },
                {
                  "internalType": "uint256",
                  "name": "liquidationFactor",
                  "type": "uint256"
                },
                {
                  "internalType": "uint256",
                  "name": "price",
                  "type": "uint256"
                },
                {
                  "internalType": "address",
                  "name": "priceFeed",
                  "type": "address"
                },
                {
                  "internalType": "uint256",
                  "name": "supplyCap",
                  "type": "uint256"
                },
                {
                  "internalType": "string",
                  "name": "symbol",
                  "type": "string"
                },
                {
                  "internalType": "uint256",
                  "name": "totalSupply",
                  "type": "uint256"
                },
                {
                  "internalType": "uint256",
                  "name": "walletBalance",
                  "type": "uint256"
                }
              ],
              "internalType": "struct CometQuery.CollateralAssetWithAccountState[]",
              "name": "collateralAssets",
              "type": "tuple[]"
            },
            {
              "internalType": "uint256",
              "name": "earnAPR",
              "type": "uint256"
            },
            {
              "internalType": "uint256",
              "name": "totalBorrow",
              "type": "uint256"
            },
            {
              "internalType": "uint256",
              "name": "totalBorrowPrincipal",
              "type": "uint256"
            },
            {
              "internalType": "uint256",
              "name": "totalSupply",
              "type": "uint256"
            },
            {
              "internalType": "uint256",
              "name": "totalSupplyPrincipal",
              "type": "uint256"
            },
            {
              "internalType": "uint256",
              "name": "trackingIndexScale",
              "type": "uint256"
            }
          ],
          "internalType": "struct CometQuery.CometStateWithAccountState",
          "name": "",
          "type": "tuple"
        }
      ],
      "stateMutability": "view",
      "type": "function"
    }
  ],
  "bytecode": {
    "object": "0x6080806040523461001657612b79908161001c8239f35b600080fdfe6101a0604052600436101561001357600080fd5b60003560e01c80635346cc1914610b1a57806361d11a6e146103ec578063a72b45e014610372578063c2815c0b14610237578063cbe293fa146101eb5763d4fc9fc61461005f57600080fd5b346101e6576020806003193601126101e65761008161007c610f8e565b611675565b906040519080825282519261018090818385015261011760018060a01b03808751166101a0870152848701516101c087015260408701516101e0870152606087015161020087015260e06080880151976100ea610100998a6102208b01526102a08a019061101f565b9260a08201511661024089015260c0810151610260890152015161019f198783030161028088015261101f565b948382015160408601526040820151606086015260608201516080860152608082015160a086015260a082015193601f1990818789030160c08801528551908189528089019281808460051b8c01019801936000915b8483106101b9578a808b8b8b8b60c082015160e086015260e082015181860152810151610120908186015281015161014090818601528101519061016091828601520151908301520390f35b90919293949884806101d6838f8690600196030187528d51611470565b9b0193019301919493929061016d565b600080fd5b346101e65760403660031901126101e657610204610f8e565b6024359060ff821682036101e6576102339161021f9161221f565b604051918291602083526020830190611470565b0390f35b346101e6576003196060368201126101e657610251610f8e565b602435906001600160401b03928383116101e657610160809184360301126101e6576040519081018181108582111761035c576040526102938360040161145c565b8152602483013560208201526044830135604082015260648301358481116101e6576102c590600436918601016113b3565b60608201526084830135608082015260a483013560a082015260c483013560c08201526102f460e4840161145c565b60e08201526101048301356101008201526101248301359384116101e6576101446103489361032c61023396600436918401016113b3565b6101208401520135610140820152610342610fba565b91612585565b604051918291602083526020830190611044565b634e487b7160e01b600052604160045260246000fd5b346101e65760a03660031901126101e65761038b610f8e565b602435906001600160a01b03821682036101e657604435906001600160401b0382116101e657610100926103c66103dd9336906004016113fa565b6103ce610fd0565b916103d7610fe6565b936127df565b6103ea604051809261127d565bf35b346101e65760a03660031901126101e657610405610f8e565b61040d610fa4565b906001600160401b0380604435116101e6573660236044350112156101e65760443560040135116101e6573660246044356004013560051b6044350101116101e657610457610fd0565b61045f610fe6565b60405161046b816112d0565b600081526060602082015260406104806120f4565b9101526040516307dc0d1d60e41b81526020816004816001600160a01b0388165afa90811561092157600091610ad8575b506104c1604435600401356115b6565b936104cf6040519586611377565b60046044350135808652601f19906104e6906115b6565b0160005b818110610ac157505060005b604435600401358110610a58575050604051636eb1769f60e11b81526001600160a01b03808516600483015290921660248301525092602084806044810103816001600160a01b0385165afa93841561092157600094610a24575b5061055a6120f4565b5061056481611675565b6040516370a0823160e01b81526001600160a01b0384811660048301526020908290602490829087165afa908115610921576000916109f2575b50604051630dd3126d60e21b81526001600160a01b0385811660048301526020908290602490829088165afa908115610921576000916109c0575b50825151604051636eb1769f60e11b81526001600160a01b038781166004830152868116602483015290911690602081604481855afa9081156109215760009161098e575b50838381031161097857869385519360e08501519460408101519060608101519260808201519460018060a01b0360a0840151169660c0840151986020808601519560018060a01b0390511660246040519e8f9283916370a0823160e01b835260018060a01b031660048301525afa9b8c156109215760009c610944575b506106ac604051806080526112eb565b608051526020608051015203604060805101526060608051015260808051015260a0608051015260c0608051015260e0608051015261010060805101526101206080510152610140608051015260a08101515194610709866115b6565b956107176040519788611377565b808752610726601f19916115b6565b0160005b81811061092d57505060005b60a0830151805160ff8316101561078a57906107648661075d6107859460ff851690611632565b5187612585565b61077160ff83168a611632565b5261077f60ff821689611632565b50611621565b610736565b5050946020820151936040830151936060840151926020608086015193604460405180958193636eb1769f60e11b835260018060a01b031660048301526000602483015260018060a01b03165afa918215610921576000926108ed575b5060c08501519060e08601519261010087015194610120880151966101606101408a0151990151996040519b61081c8d61133f565b6080518d5260208d015260408c015260608b015260808a015260a089015260c088015260e08701526101008601526101208501526101408401526101608301526101808201526040519261086f846112d0565b83526020830191825260408301908152604051916020835260808301935160208401525192606060408401528351809152602060a0840194019060005b8181106108cc578480610233888751601f198483030160608501526110fb565b9091946020610100826108e26001948a5161127d565b0196019291016108ac565b9091506020813d602011610919575b8161090960209383611377565b810103126101e6575190896107e7565b3d91506108fc565b6040513d6000823e3d90fd5b6020906109386121a1565b82828b0101520161072a565b909b506020813d602011610970575b8161096060209383611377565b810103126101e657519a3861069c565b3d9150610953565b634e487b7160e01b600052601160045260246000fd5b90506020813d6020116109b8575b816109a960209383611377565b810103126101e657518961061e565b3d915061099c565b90506020813d6020116109ea575b816109db60209383611377565b810103126101e65751876105d9565b3d91506109ce565b90506020813d602011610a1c575b81610a0d60209383611377565b810103126101e657518661059e565b3d9150610a00565b9093506020813d602011610a50575b81610a4060209383611377565b810103126101e657519284610551565b3d9150610a33565b60621960443536030160248260051b60443501013512156101e657610a9a8486610a93366024808760051b60443501013560443501016113fa565b86866127df565b610aa48288611632565b52610aaf8187611632565b506000198114610978576001016104f6565b602090610acc6127a1565b82828a010152016104ea565b90506020813d602011610b12575b81610af360209383611377565b810103126101e657516001600160a01b03811681036101e657856104b1565b3d9150610ae6565b346101e65760603660031901126101e657610b33610f8e565b610b3b610fa4565b90610b44610fba565b91610b4d6120f4565b50610b5782611675565b6040516370a0823160e01b81526001600160a01b0383811660048301529193916020908290602490829086165afa90811561092157600091610f5c575b50604051630dd3126d60e21b81526001600160a01b0384811660048301526020908290602490829087165afa90811561092157600091610f2a575b50845151604051636eb1769f60e11b81526001600160a01b038681166004830152858116602483015290911690602081604481855afa90811561092157600091610ef8575b50838381031161097857859387519360e08501519460408101519060608101519260808201519460018060a01b0360a0840151169660c0840151986020808601519560018060a01b0390511660246040519e8f9283916370a0823160e01b835260018060a01b031660048301525afa9b8c156109215760009c610ec4575b50610ca26040518060a0526112eb565b60a05152602060a051015203604060a0510152606060a0510152608060a051015260a08051015260c060a051015260e060a051015261010060a051015261012060a051015261014060a051015260a08301515192610cff846115b6565b93610d0d6040519586611377565b808552610d1c601f19916115b6565b0160005b818110610ead57505060005b60a0820151805160ff83161015610d7a5790610d5a85610d53610d759460ff851690611632565b5186612585565b610d6760ff831688611632565b5261077f60ff821687611632565b610d2c565b5050602081810151604080840151606085015160808601519251636eb1769f60e11b81526001600160a01b0398891660048201529990971660248a0152919691959394909290889081806044810103916001600160a01b03165afa90811561092157600091610e77575b610233975060c08501519060e08601519261010087015194610120880151966101606101408a0151990151996040519b610e1d8d61133f565b60a0518d5260208d015260408c015260608b015260808a015260a089015260c088015260e08701526101008601526101208501526101408401526101608301526101808201526040519182916020835260208301906110fb565b90506020873d602011610ea5575b81610e9260209383611377565b810103126101e657610233965190610de4565b3d9150610e85565b602090610eb86121a1565b82828901015201610d20565b909b506020813d602011610ef0575b81610ee060209383611377565b810103126101e657519a38610c92565b3d9150610ed3565b90506020813d602011610f22575b81610f1360209383611377565b810103126101e6575188610c14565b3d9150610f06565b90506020813d602011610f54575b81610f4560209383611377565b810103126101e6575186610bcf565b3d9150610f38565b90506020813d602011610f86575b81610f7760209383611377565b810103126101e6575185610b94565b3d9150610f6a565b600435906001600160a01b03821682036101e657565b602435906001600160a01b03821682036101e657565b604435906001600160a01b03821682036101e657565b606435906001600160a01b03821682036101e657565b608435906001600160a01b03821682036101e657565b60005b83811061100f5750506000910152565b8181015183820152602001610fff565b9060209161103881518092818552858086019101610ffc565b601f01601f1916010190565b906110e260018060a01b038084511683526020840151602084015260408401516040840152606084015160608401526080840151608084015261109660a08501516101c08060a087015285019061101f565b9060c085015160c085015260e085015160e0850152610100808601519085015261012090818601511690840152610140808501519084015261016080850151908483039085015261101f565b9161018080820151908301526101a08091015191015290565b908151916101a080835260018060a01b03908185511690840152602093848101516101c085015260408101516101e08501526060810151610200850152608081015161022085015260a081015161024085015260c08101519161116d610160938461026088015261030087019061101f565b9060e083015116610280860152610100808301516102a08701526111a5610120928385015161019f19898303016102c08a015261101f565b610140809401516102e0880152878601518888015260408601516040880152606086015160608801526080860151608088015260a086015160a088015260c08601519787820360c08901528851908183528083019281808460051b8301019b01936000915b84831061124e5750505050505060e085015160e087015280850151908601528084015190850152808301519084015280820151908301526101808091015191015290565b90919293949b848061126d8f93600194601f1987830301885251611044565b9e0193019301919493929061120a565b60e0809160018060a01b0381511684526020810151602085015260408101516040850152606081015160608501526080810151608085015260a081015160a085015260c081015160c08501520151910152565b606081019081106001600160401b0382111761035c57604052565b61016081019081106001600160401b0382111761035c57604052565b61018081019081106001600160401b0382111761035c57604052565b61010081019081106001600160401b0382111761035c57604052565b6101a081019081106001600160401b0382111761035c57604052565b6101c081019081106001600160401b0382111761035c57604052565b90601f801991011681019081106001600160401b0382111761035c57604052565b6001600160401b03811161035c57601f01601f191660200190565b81601f820112156101e6578035906113ca82611398565b926113d86040519485611377565b828452602083830101116101e657816000926020809301838601378301015290565b9190916040818403126101e65760408051916001600160401b039183018281118482101761035c57604052919384929081356001600160a01b03811681036101e657845260208201359283116101e65760209261145792016113b3565b910152565b35906001600160a01b03821682036101e657565b906114f760018060a01b0380845116835260208401516020840152604084015160408401526114ae606085015161016080606087015285019061101f565b906080850151608085015260a085015160a085015260c085015160c085015260e08501511660e0840152610100808501519084015261012080850151908483039085015261101f565b916101408091015191015290565b519060ff821682036101e657565b51906001600160a01b03821682036101e657565b51906001600160401b03821682036101e657565b51906cffffffffffffffffffffffffff821682036101e657565b6020818303126101e6578051906001600160401b0382116101e6570181601f820112156101e657805161158781611398565b926115956040519485611377565b818452602082840101116101e6576115b39160208085019101610ffc565b90565b6001600160401b03811161035c5760051b60200190565b604051906115da826112eb565b816101406000918281528260208201528260408201526060808201528260808201528260a08201528260c08201528260e08201528261010082015260606101208201520152565b60ff1660ff81146109785760010190565b80518210156116465760209160051b010190565b634e487b7160e01b600052603260045260246000fd5b6301e13380908060001904821181151516610978570290565b60c052600061016060405161168981611307565b60405161169581611323565b838152836020820152836040820152836060820152606060808201528360a08201528360c0820152606060e08201528152826020820152826040820152826060820152826080820152606060a08201528260c08201528260e0820152826101008201528261012082015282610140820152015260405163a46fe83b60e01b815260208160048160018060a01b0360c051165afa8015610921576000610120526120b8575b506040519063c55dae6360e01b825260208260048160018060a01b0360c051165afa9182156109215760009261207c575b506040519063e7dad6bd60e01b825260208260048160018060a01b0360c051165afa91821561092157600092612040575b506040519163300e6beb60e01b835260208360048160018060a01b0360c051165afa9283156109215760009361200c575b506040516355d3f8af60e11b815260c051602090829060049082906001600160a01b03165afa90811561092157600091611fda575b506040519363189bb2f160e01b855260208560048160018060a01b0360c051165afa94851561092157600095611fa6575b5060405190634f54cd2d60e11b825260208260048160018060a01b0360c051165afa91821561092157600092611f72575b50604051936349b270c560e11b855260208560048160018060a01b0360c051165afa94851561092157600095611f3e575b5060405197637eb7113160e01b895260208960048160018060a01b0360c051165afa98891561092157600099611f0a575b50604051926318160ddd60e01b845260208460048160018060a01b0360c051165afa93841561092157600094611ed6575b506040519163020a17bd60e61b835260208360048160018060a01b0360c051165afa92831561092157600093611ea2575b506040519363b9f0baf760e01b85526101008560048160018060a01b0360c051165afa94851561092157600095611dd6575b50604051634fd41dad60e11b8152600481018d905260c051602090829060249082906001600160a01b03165afa801561092157600061010052611d9a575b506040519b63d955759d60e01b8d5260048d015260208c60248160018060a01b0360c051165afa9b8c156109215760009c611d5e575b506040516395d89b4160e01b8152926000846004816001600160a01b0387165afa93841561092157600094611d41575b5060405163313ce56760e01b81526020816004816001600160a01b0388165afa801561092157600061018052611d0d575b506040516306fdde0360e01b8152906000826004816001600160a01b0388165afa91821561092157600092611ce8575b506040516341976e0960e01b81526001600160a01b03848116600483015260c05191959160209187916024918391165afa94851561092157600095611cb4575b506040516101608181526370a0823160e01b90915260c05181516001600160a01b039182166004909101529051602091602490829085165afa8061014052156109215760009061014051611c7c575b611afc6040518060e052611323565b60018060a01b031660e05152602060e051015261018051604060e0510152606060e0510152608060e051015260018060a01b031660a060e051015260c060e051015260e080510152611b5360ff61012051166115b6565b97611b61604051998a611377565b60ff61012051168952601f19611b7c60ff61012051166115b6565b0160005b818110611c6457505060005b60ff610120511660ff82161015611bcd5780611bad611bc89260c05161221f565b611bba60ff83168d611632565b5261077f60ff82168c611632565b611b8c565b50919395979092949698611bf76001600160401b03611bf081610100511661165c565b921661165c565b926cffffffffffffffffffffffffff60808160a08901511697015116976040519a611c218c611307565b60e0518c5260208c015260408b015260608a0152608089015260a088015260c087015260e086015261010085015261012084015261014083015261016082015290565b808b60208093611c726115cd565b9201015201611b80565b905060203d602011611cad575b611c968161016051611377565b6020610160518092810103126101e6575190611aed565b503d611c89565b9094506020813d602011611ce0575b81611cd060209383611377565b810103126101e657519338611a9e565b3d9150611cc3565b611d069192503d806000833e611cfe8183611377565b810190611555565b9038611a5e565b6020813d602011611d39575b81611d2660209383611377565b810103126101e657516101805238611a2e565b3d9150611d19565b611d579194503d806000833e611cfe8183611377565b92386119fd565b909b506020813d602011611d92575b81611d7a60209383611377565b810103126101e657611d8b90611527565b9a386119cd565b3d9150611d6d565b6020813d602011611dce575b81611db360209383611377565b810103126101e657611dc490611527565b6101005238611997565b3d9150611da6565b909450610100813d61010011611e9a575b81611df56101009383611377565b810103126101e65760405190611e0a82611323565b611e1381611527565b8252611e2160208201611527565b6020830152611e3260408201611527565b6040830152611e4360608201611527565b6060830152611e546080820161153b565b6080830152611e6560a0820161153b565b60a083015260c081015164ffffffffff811681036101e65760c0830152611e8e9060e001611505565b60e08201529338611959565b3d9150611de7565b9092506020813d602011611ece575b81611ebe60209383611377565b810103126101e657519138611927565b3d9150611eb1565b9093506020813d602011611f02575b81611ef260209383611377565b810103126101e6575192386118f6565b3d9150611ee5565b9098506020813d602011611f36575b81611f2660209383611377565b810103126101e6575197386118c5565b3d9150611f19565b9094506020813d602011611f6a575b81611f5a60209383611377565b810103126101e657519338611894565b3d9150611f4d565b9091506020813d602011611f9e575b81611f8e60209383611377565b810103126101e657519038611863565b3d9150611f81565b9094506020813d602011611fd2575b81611fc260209383611377565b810103126101e657519338611832565b3d9150611fb5565b90506020813d602011612004575b81611ff560209383611377565b810103126101e6575138611801565b3d9150611fe8565b9092506020813d602011612038575b8161202860209383611377565b810103126101e6575191386117cc565b3d915061201b565b9091506020813d602011612074575b8161205c60209383611377565b810103126101e65761206d90611513565b903861179b565b3d915061204f565b9091506020813d6020116120b0575b8161209860209383611377565b810103126101e6576120a990611513565b903861176a565b3d915061208b565b6020813d6020116120ec575b816120d160209383611377565b810103126101e6576120e290611505565b6101205238611739565b3d91506120c4565b604051906121018261133f565b60405161018083612111836112eb565b600083818095528160208201528160408201528160608201528160808201528160a0820152606060c08201528160e0820152816101008181840152816101209160608386015261014094828682015287528160208801528160408801528160608801528160808801528160a0880152606060c08801528160e0880152860152840152820152826101608201520152565b604051906121ae8261135b565b816101a0600091828152826020820152826040820152826060820152826080820152606060a08201528260c08201528260e08201528261010082015282610120820152826101408201526060610160820152826101808201520152565b51906001600160801b03821682036101e657565b906122286115cd565b506040805163c8c7fe6b60e01b815260ff9092166004830152916001600160a01b0390811691906101008083602481875afa92831561242e576000936124cc575b506020928381019383855116966001600160401b039060048260808601511691848b82519384809263313ce56760e01b82525afa9182156124c157600092612491575b506004928460a0880151169460c0880151169560008a8c51168451968780926306fdde0360e01b82525afa94851561240457908c97969594939291600095612476575b50828901818c82511660248651809c81936341976e0960e01b835260048301525afa98891561246b57908c9160009a612439575b5051169860e001516001600160801b03169a808d51169c8451809e81906395d89b4160e01b82525a92600491600094fa9d8e1561242e5760009e61240f575b505184516359e017bd60e01b8152911660048201529c81908e90815a91602492fa9c8d156124045760009d6123d2575b5082519d8e6123a0816112eb565b528d01528b015260608a0152608089015260a088015260c087015260e086015284015261012083015261014082015290565b909c8d82813d83116123fd575b6123e98183611377565b810103126123fa5750519b38612392565b80fd5b503d6123df565b83513d6000823e3d90fd5b612426908493929f3d8091833e611cfe8183611377565b9d9091612362565b85513d6000823e3d90fd5b9150988282813d8311612464575b6124518183611377565b810103126123fa57508b90519838612323565b503d612447565b84513d6000823e3d90fd5b61248a91953d8091833e611cfe8183611377565b93386122ef565b90918582813d83116124ba575b6124a88183611377565b810103126123fa5750519060046122ac565b503d61249e565b50513d6000823e3d90fd5b90928382813d831161257e575b6124e38183611377565b810103126123fa575061257260e08651926124fd84611323565b61250681611505565b845261251460208201611513565b6020850152612524888201611513565b8885015261253460608201611527565b606085015261254560808201611527565b608085015261255660a08201611527565b60a085015261256760c08201611527565b60c08501520161220b565b60e08201529138612269565b503d6124d9565b919061258f6121a1565b508051604051636eb1769f60e11b81526001600160a01b038481166004830152948516602482018190529490911693602082604481885afa9182156109215760009261276c575b508251604051632e12a4f760e11b81526001600160a01b038681166004830152909116602482015290602090829060449082905afa90811561092157600091612732575b506020830151604080850151608086015160a0870151606088015160c089015160e08a01516101008b01516101208c01516101408d01519c5198516370a0823160e01b81526001600160a01b039e8f1660048201529d909b919a928116999398959794958e918291165a92602491602094fa9c8d156109215760009d6126fe575b50604051809e6126aa8261135b565b8152602001526001600160801b031660408d015260608c015260808b015260a08a015260c089015260e08801526101008701526101208601526101408501526101608401526101808301526101a082015290565b909c6020823d60201161272a575b8161271960209383611377565b810103126123fa5750519b3861269b565b3d915061270c565b906020823d602011612764575b8161274c60209383611377565b810103126123fa575061275e9061220b565b3861261a565b3d915061273f565b90916020823d602011612799575b8161278760209383611377565b810103126123fa5750519060206125d6565b3d915061277a565b604051906127ae82611323565b8160e06000918281528260208201528260408201528260608201528260808201528260a08201528260c08201520152565b93919492946127ec6127a1565b5060018060a01b03918280835116968795604080926024825180998193638e8f294b60e01b835260049e8f840152165afa958615612b38578a918a91600098612af2575b508351636eb1769f60e11b81526001600160a01b039384169281019283529216602082810191909152908190839081906040015b03818b5afa91821561240457600092612ac3575b5082516370a0823160e01b81529a84168a8c0181905294818c6024818c5afa94851561246b57600095612a8f575b8451633af9e66960e01b8152808d018890529c50828d8b815a602492600091f196871561242e57600097612a5b575b8c9d5085519d8e6305eff7ef60e21b81520152828d8b815a602492600091f197881561242e578c8b9c9d9e60009a612a0e575b50865163bd6d894d60e01b81529b85918d9182906000905af19a8b15612a035760009b6129d4575b5091836129609c9d9e9281809501519388519e8f9586948593631fc58c3360e31b8552840152602483019061101f565b0392165afa988915612404576000996129a5575b508251996129818b611323565b8a528901528701526060860152608085015260a084015260c083015260e082015290565b90988982813d83116129cd575b6129bc8183611377565b810103126123fa5750519738612974565b503d6129b2565b909a8482813d83116129fc575b6129eb8183611377565b810103126123fa5750519983612930565b503d6129e1565b86513d6000823e3d90fd5b8580989a9c9d5081949692509a929496989a3d8311612a54575b612a328183611377565b810103126123fa5750918c97959391858c60009c9b999795519a91509b612908565b503d612a28565b969c8381813d8311612a88575b612a728183611377565b81010312612a84578c9d5051966128d5565b8d80fd5b503d612a68565b949b8281813d8311612abc575b612aa68183611377565b81010312612ab8578b9c5051946128a6565b8c80fd5b503d612a9c565b90918282813d8311612aeb575b612ada8183611377565b810103126123fa5750519038612878565b503d612ad0565b8093508480929993503d8311612b31575b612b0d8183611377565b810103126123fa578151801515036123fa5750602001519489908990612864612830565b503d612b03565b82513d6000823e3d90fdfea2646970667358221220643d0b25d4f1ac367ea3e2c9ad85e42afc253b6210285efe5ac63ea3126b38c564736f6c63430008100033",
    "linkReferences": {}
  },
  "methodIdentifiers": {
    "cTokenMetadata(address,address,(address,string),address,address)": "a72b45e0",
    "collateralInfo(address,uint8)": "cbe293fa",
    "collateralInfoWithAccount(address,(address,uint256,uint256,string,uint256,uint256,uint256,address,uint256,string,uint256),address)": "c2815c0b",
    "getMigratorData(address,address,(address,string)[],address,address)": "61d11a6e",
    "query(address)": "d4fc9fc6",
    "queryWithAccount(address,address,address)": "5346cc19"
  },
  "id": 2
}