{
  "abi": [
    {
      "inputs": [
        {
          "internalType": "contract Comptroller",
          "name": "comptroller",
          "type": "address"
        },
        {
          "internalType": "contract PriceOracle",
          "name": "priceOracle",
          "type": "address"
        },
        {
          "components": [
            {
              "internalType": "contract CToken",
              "name": "cToken",
              "type": "address"
            },
            {
              "internalType": "string",
              "name": "priceOracleSymbol",
              "type": "string"
            }
          ],
          "internalType": "struct CompoundV2Query.CTokenRequest",
          "name": "cTokenRequest",
          "type": "tuple"
        },
        {
          "internalType": "address payable",
          "name": "account",
          "type": "address"
        },
        {
          "internalType": "address payable",
          "name": "spender",
          "type": "address"
        }
      ],
      "name": "cTokenMetadata",
      "outputs": [
        {
          "components": [
            {
              "internalType": "address",
              "name": "cToken",
              "type": "address"
            },
            {
              "internalType": "uint256",
              "name": "allowance",
              "type": "uint256"
            },
            {
              "internalType": "uint256",
              "name": "balance",
              "type": "uint256"
            },
            {
              "internalType": "uint256",
              "name": "balanceUnderlying",
              "type": "uint256"
            },
            {
              "internalType": "uint256",
              "name": "borrowBalance",
              "type": "uint256"
            },
            {
              "internalType": "uint256",
              "name": "collateralFactor",
              "type": "uint256"
            },
            {
              "internalType": "uint256",
              "name": "exchangeRate",
              "type": "uint256"
            },
            {
              "internalType": "uint256",
              "name": "price",
              "type": "uint256"
            }
          ],
          "internalType": "struct CompoundV2Query.CTokenMetadata",
          "name": "",
          "type": "tuple"
        }
      ],
      "stateMutability": "nonpayable",
      "type": "function"
    },
    {
      "inputs": [
        {
          "internalType": "contract Comet",
          "name": "comet",
          "type": "address"
        },
        {
          "internalType": "uint8",
          "name": "index",
          "type": "uint8"
        }
      ],
      "name": "collateralInfo",
      "outputs": [
        {
          "components": [
            {
              "internalType": "address",
              "name": "collateralAsset",
              "type": "address"
            },
            {
              "internalType": "uint256",
              "name": "collateralFactor",
              "type": "uint256"
            },
            {
              "internalType": "uint256",
              "name": "decimals",
              "type": "uint256"
            },
            {
              "internalType": "string",
              "name": "name",
              "type": "string"
            },
            {
              "internalType": "uint256",
              "name": "liquidateCollateralFactor",
              "type": "uint256"
            },
            {
              "internalType": "uint256",
              "name": "liquidationFactor",
              "type": "uint256"
            },
            {
              "internalType": "uint256",
              "name": "price",
              "type": "uint256"
            },
            {
              "internalType": "address",
              "name": "priceFeed",
              "type": "address"
            },
            {
              "internalType": "uint256",
              "name": "supplyCap",
              "type": "uint256"
            },
            {
              "internalType": "string",
              "name": "symbol",
              "type": "string"
            },
            {
              "internalType": "uint256",
              "name": "totalSupply",
              "type": "uint256"
            }
          ],
          "internalType": "struct CometQuery.CollateralAsset",
          "name": "",
          "type": "tuple"
        }
      ],
      "stateMutability": "view",
      "type": "function"
    },
    {
      "inputs": [
        {
          "internalType": "contract Comet",
          "name": "comet",
          "type": "address"
        },
        {
          "components": [
            {
              "internalType": "address",
              "name": "collateralAsset",
              "type": "address"
            },
            {
              "internalType": "uint256",
              "name": "collateralFactor",
              "type": "uint256"
            },
            {
              "internalType": "uint256",
              "name": "decimals",
              "type": "uint256"
            },
            {
              "internalType": "string",
              "name": "name",
              "type": "string"
            },
            {
              "internalType": "uint256",
              "name": "liquidateCollateralFactor",
              "type": "uint256"
            },
            {
              "internalType": "uint256",
              "name": "liquidationFactor",
              "type": "uint256"
            },
            {
              "internalType": "uint256",
              "name": "price",
              "type": "uint256"
            },
            {
              "internalType": "address",
              "name": "priceFeed",
              "type": "address"
            },
            {
              "internalType": "uint256",
              "name": "supplyCap",
              "type": "uint256"
            },
            {
              "internalType": "string",
              "name": "symbol",
              "type": "string"
            },
            {
              "internalType": "uint256",
              "name": "totalSupply",
              "type": "uint256"
            }
          ],
          "internalType": "struct CometQuery.CollateralAsset",
          "name": "asset",
          "type": "tuple"
        },
        {
          "internalType": "address payable",
          "name": "account",
          "type": "address"
        }
      ],
      "name": "collateralInfoWithAccount",
      "outputs": [
        {
          "components": [
            {
              "internalType": "address",
              "name": "collateralAsset",
              "type": "address"
            },
            {
              "internalType": "uint256",
              "name": "allowance",
              "type": "uint256"
            },
            {
              "internalType": "uint256",
              "name": "balance",
              "type": "uint256"
            },
            {
              "internalType": "uint256",
              "name": "collateralFactor",
              "type": "uint256"
            },
            {
              "internalType": "uint256",
              "name": "decimals",
              "type": "uint256"
            },
            {
              "internalType": "string",
              "name": "name",
              "type": "string"
            },
            {
              "internalType": "uint256",
              "name": "liquidateCollateralFactor",
              "type": "uint256"
            },
            {
              "internalType": "uint256",
              "name": "liquidationFactor",
              "type": "uint256"
            },
            {
              "internalType": "uint256",
              "name": "price",
              "type": "uint256"
            },
            {
              "internalType": "address",
              "name": "priceFeed",
              "type": "address"
            },
            {
              "internalType": "uint256",
              "name": "supplyCap",
              "type": "uint256"
            },
            {
              "internalType": "string",
              "name": "symbol",
              "type": "string"
            },
            {
              "internalType": "uint256",
              "name": "totalSupply",
              "type": "uint256"
            },
            {
              "internalType": "uint256",
              "name": "walletBalance",
              "type": "uint256"
            }
          ],
          "internalType": "struct CometQuery.CollateralAssetWithAccountState",
          "name": "",
          "type": "tuple"
        }
      ],
      "stateMutability": "view",
      "type": "function"
    },
    {
      "inputs": [
        {
          "internalType": "contract Comptroller",
          "name": "comptroller",
          "type": "address"
        },
        {
          "internalType": "contract Comet",
          "name": "comet",
          "type": "address"
        },
        {
          "components": [
            {
              "internalType": "contract CToken",
              "name": "cToken",
              "type": "address"
            },
            {
              "internalType": "string",
              "name": "priceOracleSymbol",
              "type": "string"
            }
          ],
          "internalType": "struct CompoundV2Query.CTokenRequest[]",
          "name": "cTokens",
          "type": "tuple[]"
        },
        {
          "internalType": "address payable",
          "name": "account",
          "type": "address"
        },
        {
          "internalType": "address payable",
          "name": "spender",
          "type": "address"
        }
      ],
      "name": "getMigratorData",
      "outputs": [
        {
          "components": [
            {
              "internalType": "uint256",
              "name": "migratorEnabled",
              "type": "uint256"
            },
            {
              "components": [
                {
                  "internalType": "address",
                  "name": "cToken",
                  "type": "address"
                },
                {
                  "internalType": "uint256",
                  "name": "allowance",
                  "type": "uint256"
                },
                {
                  "internalType": "uint256",
                  "name": "balance",
                  "type": "uint256"
                },
                {
                  "internalType": "uint256",
                  "name": "balanceUnderlying",
                  "type": "uint256"
                },
                {
                  "internalType": "uint256",
                  "name": "borrowBalance",
                  "type": "uint256"
                },
                {
                  "internalType": "uint256",
                  "name": "collateralFactor",
                  "type": "uint256"
                },
                {
                  "internalType": "uint256",
                  "name": "exchangeRate",
                  "type": "uint256"
                },
                {
                  "internalType": "uint256",
                  "name": "price",
                  "type": "uint256"
                }
              ],
              "internalType": "struct CompoundV2Query.CTokenMetadata[]",
              "name": "tokens",
              "type": "tuple[]"
            },
            {
              "components": [
                {
                  "components": [
                    {
                      "internalType": "address",
                      "name": "baseAsset",
                      "type": "address"
                    },
                    {
                      "internalType": "uint256",
                      "name": "allowance",
                      "type": "uint256"
                    },
                    {
                      "internalType": "int256",
                      "name": "balance",
                      "type": "int256"
                    },
                    {
                      "internalType": "uint256",
                      "name": "balanceOfComet",
                      "type": "uint256"
                    },
                    {
                      "internalType": "uint256",
                      "name": "decimals",
                      "type": "uint256"
                    },
                    {
                      "internalType": "uint256",
                      "name": "minBorrow",
                      "type": "uint256"
                    },
                    {
                      "internalType": "string",
                      "name": "name",
                      "type": "string"
                    },
                    {
                      "internalType": "address",
                      "name": "priceFeed",
                      "type": "address"
                    },
                    {
                      "internalType": "uint256",
                      "name": "price",
                      "type": "uint256"
                    },
                    {
                      "internalType": "string",
                      "name": "symbol",
                      "type": "string"
                    },
                    {
                      "internalType": "uint256",
                      "name": "walletBalance",
                      "type": "uint256"
                    }
                  ],
                  "internalType": "struct CometQuery.BaseAssetWithAccountState",
                  "name": "baseAsset",
                  "type": "tuple"
                },
                {
                  "internalType": "uint256",
                  "name": "baseMinForRewards",
                  "type": "uint256"
                },
                {
                  "internalType": "uint256",
                  "name": "baseTrackingBorrowSpeed",
                  "type": "uint256"
                },
                {
                  "internalType": "uint256",
                  "name": "baseTrackingSupplySpeed",
                  "type": "uint256"
                },
                {
                  "internalType": "uint256",
                  "name": "borrowAPR",
                  "type": "uint256"
                },
                {
                  "internalType": "uint256",
                  "name": "bulkerAllowance",
                  "type": "uint256"
                },
                {
                  "components": [
                    {
                      "internalType": "address",
                      "name": "collateralAsset",
                      "type": "address"
                    },
                    {
                      "internalType": "uint256",
                      "name": "allowance",
                      "type": "uint256"
                    },
                    {
                      "internalType": "uint256",
                      "name": "balance",
                      "type": "uint256"
                    },
                    {
                      "internalType": "uint256",
                      "name": "collateralFactor",
                      "type": "uint256"
                    },
                    {
                      "internalType": "uint256",
                      "name": "decimals",
                      "type": "uint256"
                    },
                    {
                      "internalType": "string",
                      "name": "name",
                      "type": "string"
                    },
                    {
                      "internalType": "uint256",
                      "name": "liquidateCollateralFactor",
                      "type": "uint256"
                    },
                    {
                      "internalType": "uint256",
                      "name": "liquidationFactor",
                      "type": "uint256"
                    },
                    {
                      "internalType": "uint256",
                      "name": "price",
                      "type": "uint256"
                    },
                    {
                      "internalType": "address",
                      "name": "priceFeed",
                      "type": "address"
                    },
                    {
                      "internalType": "uint256",
                      "name": "supplyCap",
                      "type": "uint256"
                    },
                    {
                      "internalType": "string",
                      "name": "symbol",
                      "type": "string"
                    },
                    {
                      "internalType": "uint256",
                      "name": "totalSupply",
                      "type": "uint256"
                    },
                    {
                      "internalType": "uint256",
                      "name": "walletBalance",
                      "type": "uint256"
                    }
                  ],
                  "internalType": "struct CometQuery.CollateralAssetWithAccountState[]",
                  "name": "collateralAssets",
                  "type": "tuple[]"
                },
                {
                  "internalType": "uint256",
                  "name": "earnAPR",
                  "type": "uint256"
                },
                {
                  "internalType": "uint256",
                  "name": "nativeAssetWalletBalance",
                  "type": "uint256"
                },
                {
                  "internalType": "uint256",
                  "name": "totalBorrow",
                  "type": "uint256"
                },
                {
                  "internalType": "uint256",
                  "name": "totalBorrowPrincipal",
                  "type": "uint256"
                },
                {
                  "internalType": "uint256",
                  "name": "totalSupply",
                  "type": "uint256"
                },
                {
                  "internalType": "uint256",
                  "name": "totalSupplyPrincipal",
                  "type": "uint256"
                },
                {
                  "internalType": "uint256",
                  "name": "trackingIndexScale",
                  "type": "uint256"
                }
              ],
              "internalType": "struct CometQuery.CometStateWithAccountState",
              "name": "cometState",
              "type": "tuple"
            }
          ],
          "internalType": "struct CompoundV2Query.QueryResponse",
          "name": "",
          "type": "tuple"
        }
      ],
      "stateMutability": "nonpayable",
      "type": "function"
    },
    {
      "inputs": [
        {
          "internalType": "contract Comet",
          "name": "comet",
          "type": "address"
        }
      ],
      "name": "query",
      "outputs": [
        {
          "components": [
            {
              "components": [
                {
                  "internalType": "address",
                  "name": "baseAsset",
                  "type": "address"
                },
                {
                  "internalType": "uint256",
                  "name": "balanceOfComet",
                  "type": "uint256"
                },
                {
                  "internalType": "uint256",
                  "name": "decimals",
                  "type": "uint256"
                },
                {
                  "internalType": "uint256",
                  "name": "minBorrow",
                  "type": "uint256"
                },
                {
                  "internalType": "string",
                  "name": "name",
                  "type": "string"
                },
                {
                  "internalType": "address",
                  "name": "priceFeed",
                  "type": "address"
                },
                {
                  "internalType": "uint256",
                  "name": "price",
                  "type": "uint256"
                },
                {
                  "internalType": "string",
                  "name": "symbol",
                  "type": "string"
                }
              ],
              "internalType": "struct CometQuery.BaseAsset",
              "name": "baseAsset",
              "type": "tuple"
            },
            {
              "internalType": "uint256",
              "name": "baseMinForRewards",
              "type": "uint256"
            },
            {
              "internalType": "uint256",
              "name": "baseTrackingBorrowSpeed",
              "type": "uint256"
            },
            {
              "internalType": "uint256",
              "name": "baseTrackingSupplySpeed",
              "type": "uint256"
            },
            {
              "internalType": "uint256",
              "name": "borrowAPR",
              "type": "uint256"
            },
            {
              "components": [
                {
                  "internalType": "address",
                  "name": "collateralAsset",
                  "type": "address"
                },
                {
                  "internalType": "uint256",
                  "name": "collateralFactor",
                  "type": "uint256"
                },
                {
                  "internalType": "uint256",
                  "name": "decimals",
                  "type": "uint256"
                },
                {
                  "internalType": "string",
                  "name": "name",
                  "type": "string"
                },
                {
                  "internalType": "uint256",
                  "name": "liquidateCollateralFactor",
                  "type": "uint256"
                },
                {
                  "internalType": "uint256",
                  "name": "liquidationFactor",
                  "type": "uint256"
                },
                {
                  "internalType": "uint256",
                  "name": "price",
                  "type": "uint256"
                },
                {
                  "internalType": "address",
                  "name": "priceFeed",
                  "type": "address"
                },
                {
                  "internalType": "uint256",
                  "name": "supplyCap",
                  "type": "uint256"
                },
                {
                  "internalType": "string",
                  "name": "symbol",
                  "type": "string"
                },
                {
                  "internalType": "uint256",
                  "name": "totalSupply",
                  "type": "uint256"
                }
              ],
              "internalType": "struct CometQuery.CollateralAsset[]",
              "name": "collateralAssets",
              "type": "tuple[]"
            },
            {
              "internalType": "uint256",
              "name": "earnAPR",
              "type": "uint256"
            },
            {
              "internalType": "uint256",
              "name": "totalBorrow",
              "type": "uint256"
            },
            {
              "internalType": "uint256",
              "name": "totalBorrowPrincipal",
              "type": "uint256"
            },
            {
              "internalType": "uint256",
              "name": "totalSupply",
              "type": "uint256"
            },
            {
              "internalType": "uint256",
              "name": "totalSupplyPrincipal",
              "type": "uint256"
            },
            {
              "internalType": "uint256",
              "name": "trackingIndexScale",
              "type": "uint256"
            }
          ],
          "internalType": "struct CometQuery.CometState",
          "name": "",
          "type": "tuple"
        }
      ],
      "stateMutability": "view",
      "type": "function"
    },
    {
      "inputs": [
        {
          "internalType": "contract Comet",
          "name": "comet",
          "type": "address"
        },
        {
          "internalType": "address payable",
          "name": "account",
          "type": "address"
        },
        {
          "internalType": "address payable",
          "name": "bulker",
          "type": "address"
        }
      ],
      "name": "queryWithAccount",
      "outputs": [
        {
          "components": [
            {
              "components": [
                {
                  "internalType": "address",
                  "name": "baseAsset",
                  "type": "address"
                },
                {
                  "internalType": "uint256",
                  "name": "allowance",
                  "type": "uint256"
                },
                {
                  "internalType": "int256",
                  "name": "balance",
                  "type": "int256"
                },
                {
                  "internalType": "uint256",
                  "name": "balanceOfComet",
                  "type": "uint256"
                },
                {
                  "internalType": "uint256",
                  "name": "decimals",
                  "type": "uint256"
                },
                {
                  "internalType": "uint256",
                  "name": "minBorrow",
                  "type": "uint256"
                },
                {
                  "internalType": "string",
                  "name": "name",
                  "type": "string"
                },
                {
                  "internalType": "address",
                  "name": "priceFeed",
                  "type": "address"
                },
                {
                  "internalType": "uint256",
                  "name": "price",
                  "type": "uint256"
                },
                {
                  "internalType": "string",
                  "name": "symbol",
                  "type": "string"
                },
                {
                  "internalType": "uint256",
                  "name": "walletBalance",
                  "type": "uint256"
                }
              ],
              "internalType": "struct CometQuery.BaseAssetWithAccountState",
              "name": "baseAsset",
              "type": "tuple"
            },
            {
              "internalType": "uint256",
              "name": "baseMinForRewards",
              "type": "uint256"
            },
            {
              "internalType": "uint256",
              "name": "baseTrackingBorrowSpeed",
              "type": "uint256"
            },
            {
              "internalType": "uint256",
              "name": "baseTrackingSupplySpeed",
              "type": "uint256"
            },
            {
              "internalType": "uint256",
              "name": "borrowAPR",
              "type": "uint256"
            },
            {
              "internalType": "uint256",
              "name": "bulkerAllowance",
              "type": "uint256"
            },
            {
              "components": [
                {
                  "internalType": "address",
                  "name": "collateralAsset",
                  "type": "address"
                },
                {
                  "internalType": "uint256",
                  "name": "allowance",
                  "type": "uint256"
                },
                {
                  "internalType": "uint256",
                  "name": "balance",
                  "type": "uint256"
                },
                {
                  "internalType": "uint256",
                  "name": "collateralFactor",
                  "type": "uint256"
                },
                {
                  "internalType": "uint256",
                  "name": "decimals",
                  "type": "uint256"
                },
                {
                  "internalType": "string",
                  "name": "name",
                  "type": "string"
                },
                {
                  "internalType": "uint256",
                  "name": "liquidateCollateralFactor",
                  "type": "uint256"
                },
                {
                  "internalType": "uint256",
                  "name": "liquidationFactor",
                  "type": "uint256"
                },
                {
                  "internalType": "uint256",
                  "name": "price",
                  "type": "uint256"
                },
                {
                  "internalType": "address",
                  "name": "priceFeed",
                  "type": "address"
                },
                {
                  "internalType": "uint256",
                  "name": "supplyCap",
                  "type": "uint256"
                },
                {
                  "internalType": "string",
                  "name": "symbol",
                  "type": "string"
                },
                {
                  "internalType": "uint256",
                  "name": "totalSupply",
                  "type": "uint256"
                },
                {
                  "internalType": "uint256",
                  "name": "walletBalance",
                  "type": "uint256"
                }
              ],
              "internalType": "struct CometQuery.CollateralAssetWithAccountState[]",
              "name": "collateralAssets",
              "type": "tuple[]"
            },
            {
              "internalType": "uint256",
              "name": "earnAPR",
              "type": "uint256"
            },
            {
              "internalType": "uint256",
              "name": "nativeAssetWalletBalance",
              "type": "uint256"
            },
            {
              "internalType": "uint256",
              "name": "totalBorrow",
              "type": "uint256"
            },
            {
              "internalType": "uint256",
              "name": "totalBorrowPrincipal",
              "type": "uint256"
            },
            {
              "internalType": "uint256",
              "name": "totalSupply",
              "type": "uint256"
            },
            {
              "internalType": "uint256",
              "name": "totalSupplyPrincipal",
              "type": "uint256"
            },
            {
              "internalType": "uint256",
              "name": "trackingIndexScale",
              "type": "uint256"
            }
          ],
          "internalType": "struct CometQuery.CometStateWithAccountState",
          "name": "",
          "type": "tuple"
        }
      ],
      "stateMutability": "view",
      "type": "function"
    }
  ],
  "bytecode": {
    "object": "0x6080806040523461001657612bce908161001c8239f35b600080fdfe6101c0604052600436101561001357600080fd5b60003560e01c80635346cc1914610b5357806361d11a6e146103ec578063a72b45e014610372578063c2815c0b14610237578063cbe293fa146101eb5763d4fc9fc61461005f57600080fd5b346101e6576020806003193601126101e65761008161007c610fe2565b6116b8565b906040519080825282519261018090818385015261011760018060a01b03808751166101a0870152848701516101c087015260408701516101e0870152606087015161020087015260e06080880151976100ea610100998a6102208b01526102a08a0190611073565b9260a08201511661024089015260c0810151610260890152015161019f1987830301610280880152611073565b948382015160408601526040820151606086015260608201516080860152608082015160a086015260a082015193601f1990818789030160c08801528551908189528089019281808460051b8c01019801936000915b8483106101b9578a808b8b8b8b60c082015160e086015260e082015181860152810151610120908186015281015161014090818601528101519061016091828601520151908301520390f35b90919293949884806101d6838f8690600196030187528d516114b3565b9b0193019301919493929061016d565b600080fd5b346101e65760403660031901126101e657610204610fe2565b6024359060ff821682036101e6576102339161021f91612274565b6040519182916020835260208301906114b3565b0390f35b346101e6576003196060368201126101e657610251610fe2565b602435906001600160401b03928383116101e657610160809184360301126101e6576040519081018181108582111761035c576040526102938360040161149f565b8152602483013560208201526044830135604082015260648301358481116101e6576102c590600436918601016113f6565b60608201526084830135608082015260a483013560a082015260c483013560c08201526102f460e4840161149f565b60e08201526101048301356101008201526101248301359384116101e6576101446103489361032c61023396600436918401016113f6565b610120840152013561014082015261034261100e565b916125da565b604051918291602083526020830190611098565b634e487b7160e01b600052604160045260246000fd5b346101e65760a03660031901126101e65761038b610fe2565b602435906001600160a01b03821682036101e657604435906001600160401b0382116101e657610100926103c66103dd93369060040161143d565b6103ce611024565b916103d761103a565b93612834565b6103ea60405180926112dc565bf35b346101e65760a03660031901126101e657610405610fe2565b61040d610ff8565b6001600160401b0380604435116101e6573660236044350112156101e65760443560040135116101e6573660246044356004013560051b6044350101116101e657610456611024565b9161045f61103a565b9060405161046c8161132f565b60008152606060208201526040610481612142565b9101526040516307dc0d1d60e41b81526020816004816001600160a01b0386165afa90811561095357600091610b11575b506104d16104c5604435600401356115f9565b6040518060c0526113ba565b60c0516004604435013590819052601f19906104ec906115f9565b0160005b818110610af857505060005b604435600401358110610a8b57604051636eb1769f60e11b81526001600160a01b03808816600483015285166024820152869086602082806044810103816001600160a01b0385165afa91821561095357600092610a57575b5061055e612142565b50610568816116b8565b6040516370a0823160e01b81526001600160a01b0385811660048301529192916020908290602490829086165afa90811561095357600091610a25575b50604051630dd3126d60e21b81526001600160a01b0386811660048301526020908290602490829087165afa908115610953576000916109f3575b50835151604051636eb1769f60e11b81526001600160a01b038881166004830152858116602483015290911690602081604481855afa801561095357600060a0526109c0575b506000821283838103128116908484810313901516176109aa57869285519260e084015193604081015160608201519160808101519360018060a01b0360a0830151169560c0830151976020808501519460018060a01b039051169b6024604051809e81936370a0823160e01b835260018060a01b031660048301525afa9a8b156109535760009b610976575b506106c36040518060805261134a565b6080515260a0516020608051015203604060805101526060608051015260808051015260a0608051015260c0608051015260e0608051015261010060805101526101206080510152610140608051015260a08201515191610723836115f9565b9261073160405194856113ba565b808452610740601f19916115f9565b0160005b81811061095f57505060005b60a0820151805160ff831610156107a4579061077e8761077761079f9460ff851690611675565b51866125da565b61078b60ff831687611675565b5261079960ff821686611675565b50611664565b610750565b5050602081810151604080840151606085015160808601519251636eb1769f60e11b81526001600160a01b03808c166004830152600060248301529098949792959194928b92918a916044918391165afa9182156109535760009261091e575b6020985060c08701519160018060a01b0316319260e088015194610100890151966101208a0151986101606101408c01519b01519b6040519d8e6108478161139e565b6080518152015260408d015260608c015260808b015260a08a015260c089015260e08801526101008701526101208601526101408501526101608401526101808301526101a08201526040519161089d8361132f565b8252602082019060c051825260408301908152604051916020835260808301935160208401525192606060408401528351809152602060a0840194019060005b8181106108fd578480610233888751601f1984830301606085015261114f565b9091946020610100826109136001948a516112dc565b0196019291016108dd565b91506020883d60201161094b575b81610939602093836113ba565b810103126101e6576020975191610804565b3d915061092c565b6040513d6000823e3d90fd5b60209061096a6121f6565b82828801015201610744565b909a506020813d6020116109a2575b81610992602093836113ba565b810103126101e65751998f6106b3565b3d9150610985565b634e487b7160e01b600052601160045260246000fd5b6020813d6020116109eb575b816109d9602093836113ba565b810103126101e6575160a05287610626565b3d91506109cc565b90506020813d602011610a1d575b81610a0e602093836113ba565b810103126101e65751866105e0565b3d9150610a01565b90506020813d602011610a4f575b81610a40602093836113ba565b810103126101e65751856105a5565b3d9150610a33565b9091506020813d602011610a83575b81610a73602093836113ba565b810103126101e657519083610555565b3d9150610a66565b60621960443536030160248260051b60443501013512156101e657610acd8487610ac6366024808760051b604435010135604435010161143d565b8587612834565b610ad98260c051611675565b52610ae68160c051611675565b5060001981146109aa576001016104fc565b602090610b036127f6565b828260c051010152016104f0565b90506020813d602011610b4b575b81610b2c602093836113ba565b810103126101e657516001600160a01b03811681036101e657856104b2565b3d9150610b1f565b346101e65760603660031901126101e657610b6c610fe2565b610b74610ff8565b90610b7d61100e565b610b85612142565b50610b8f826116b8565b6040516370a0823160e01b81526001600160a01b0385811660048301529193909290916020908490602490829086165afa92831561095357600093610fae575b50604051630dd3126d60e21b81526001600160a01b0386811660048301529093906020908590602490829087165afa93841561095357600094610f7a575b50845151604051636eb1769f60e11b81526001600160a01b03888116600483015285811660248301529091169490602081604481895afa90811561095357600091610f48575b506000821283838103128116908484810313901516176109aa57879287519260e084015193604081015160608201519160808101519360018060a01b0360a0830151169560c0830151976020808501519460018060a01b039051169b6024604051809e81936370a0823160e01b835260018060a01b031660048301525afa9a8b156109535760009b610f14575b5060206040519e8f90610cf28261134a565b815201520360408c015260608b015260808a015260a089015260c088015260e087015261010086015261012085015261014084015260a08401515192610d37846115f9565b93610d4560405195866113ba565b808552610d54601f19916115f9565b0160005b818110610efd57505060005b60a0860151805160ff83161015610db25790610d9288610d8b610dad9460ff851690611675565b51876125da565b610d9f60ff831688611675565b5261079960ff821687611675565b610d64565b610e0a8387898b888a602084015194604085015193602060608701519460808801519460405180809d8194636eb1769f60e11b8352876004840190602090939293604083019460018060a01b03809216845216910152565b03916001600160a01b03165afa91821561095357600092610ec7575b610233995060c08701519160018060a01b0316319260e088015194610100890151966101208a0151986101606101408c01519b01519b60206040519e8f90610e6d8261139e565b8152015260408d015260608c015260808b015260a08a015260c089015260e08801526101008701526101208601526101408501526101608401526101808301526101a082015260405191829160208352602083019061114f565b91506020893d602011610ef5575b81610ee2602093836113ba565b810103126101e657610233985191610e26565b3d9150610ed5565b602090610f086121f6565b82828901015201610d58565b909a506020813d602011610f40575b81610f30602093836113ba565b810103126101e657519938610ce0565b3d9150610f23565b90506020813d602011610f72575b81610f63602093836113ba565b810103126101e6575188610c53565b3d9150610f56565b9093506020813d602011610fa6575b81610f96602093836113ba565b810103126101e657519286610c0d565b3d9150610f89565b9092506020813d602011610fda575b81610fca602093836113ba565b810103126101e657519185610bcf565b3d9150610fbd565b600435906001600160a01b03821682036101e657565b602435906001600160a01b03821682036101e657565b604435906001600160a01b03821682036101e657565b606435906001600160a01b03821682036101e657565b608435906001600160a01b03821682036101e657565b60005b8381106110635750506000910152565b8181015183820152602001611053565b9060209161108c81518092818552858086019101611050565b601f01601f1916010190565b9061113660018060a01b03808451168352602084015160208401526040840151604084015260608401516060840152608084015160808401526110ea60a08501516101c08060a0870152850190611073565b9060c085015160c085015260e085015160e08501526101008086015190850152610120908186015116908401526101408085015190840152610160808501519084830390850152611073565b9161018080820151908301526101a08091015191015290565b908151916101c080835260018060a01b03908185511690840152602093848101516101e085015260408101516102008501526060810151610220850152608081015161024085015260a081015161026085015260c0810151916111c16101609384610280880152610320870190611073565b9060e0830151166102a0860152610100808301516102c08701526111f961012092838501516101bf19898303016102e08a0152611073565b61014080940151610300880152878601518888015260408601516040880152606086015160608801526080860151608088015260a086015160a088015260c08601519787820360c08901528851908183528083019281808460051b8301019b01936000915b8483106112ad5750505050505060e085015160e0870152808501519086015280840151908501528083015190840152808201519083015261018080820151908301526101a08091015191015290565b90919293949b84806112cc8f93600194601f1987830301885251611098565b9e0193019301919493929061125e565b60e0809160018060a01b0381511684526020810151602085015260408101516040850152606081015160608501526080810151608085015260a081015160a085015260c081015160c08501520151910152565b606081019081106001600160401b0382111761035c57604052565b61016081019081106001600160401b0382111761035c57604052565b61018081019081106001600160401b0382111761035c57604052565b61010081019081106001600160401b0382111761035c57604052565b6101c081019081106001600160401b0382111761035c57604052565b90601f801991011681019081106001600160401b0382111761035c57604052565b6001600160401b03811161035c57601f01601f191660200190565b81601f820112156101e65780359061140d826113db565b9261141b60405194856113ba565b828452602083830101116101e657816000926020809301838601378301015290565b9190916040818403126101e65760408051916001600160401b039183018281118482101761035c57604052919384929081356001600160a01b03811681036101e657845260208201359283116101e65760209261149a92016113f6565b910152565b35906001600160a01b03821682036101e657565b9061153a60018060a01b0380845116835260208401516020840152604084015160408401526114f16060850151610160806060870152850190611073565b906080850151608085015260a085015160a085015260c085015160c085015260e08501511660e08401526101008085015190840152610120808501519084830390850152611073565b916101408091015191015290565b519060ff821682036101e657565b51906001600160a01b03821682036101e657565b51906001600160401b03821682036101e657565b51906cffffffffffffffffffffffffff821682036101e657565b6020818303126101e6578051906001600160401b0382116101e6570181601f820112156101e65780516115ca816113db565b926115d860405194856113ba565b818452602082840101116101e6576115f69160208085019101611050565b90565b6001600160401b03811161035c5760051b60200190565b6040519061161d8261134a565b816101406000918281528260208201528260408201526060808201528260808201528260a08201528260c08201528260e08201528261010082015260606101208201520152565b60ff1660ff81146109aa5760010190565b80518210156116895760209160051b010190565b634e487b7160e01b600052603260045260246000fd5b6301e133809080600019048211811515166109aa570290565b60e05260006101606040516116cc81611366565b6040516116d881611382565b838152836020820152836040820152836060820152606060808201528360a08201528360c0820152606060e08201528152826020820152826040820152826060820152826080820152606060a08201528260c08201528260e0820152826101008201528261012082015282610140820152015260405163a46fe83b60e01b815260208160048160018060a01b0360e051165afa801561095357600061012052612106575b506040519063c55dae6360e01b825260208260048160018060a01b0360e051165afa918215610953576000926120ca575b506040519063e7dad6bd60e01b825260208260048160018060a01b0360e051165afa9182156109535760009261208e575b506040519163300e6beb60e01b835260208360048160018060a01b0360e051165afa9283156109535760009361205a575b506040516355d3f8af60e11b815260e051602090829060049082906001600160a01b03165afa90811561095357600091612028575b506040519363189bb2f160e01b855260208560048160018060a01b0360e051165afa94851561095357600095611ff4575b5060405190634f54cd2d60e11b825260208260048160018060a01b0360e051165afa91821561095357600092611fc0575b50604051936349b270c560e11b855260208560048160018060a01b0360e051165afa94851561095357600095611f8c575b5060405197637eb7113160e01b895260208960048160018060a01b0360e051165afa98891561095357600099611f58575b50604051926318160ddd60e01b845260208460048160018060a01b0360e051165afa93841561095357600094611f24575b506040519163020a17bd60e61b835260208360048160018060a01b0360e051165afa92831561095357600093611ef0575b506040519363b9f0baf760e01b85526101008560048160018060a01b0360e051165afa94851561095357600095611e24575b50604051634fd41dad60e11b8152600481018d905260e051602090829060249082906001600160a01b03165afa801561095357600061010052611de8575b506040519b63d955759d60e01b8d5260048d015260208c60248160018060a01b0360e051165afa9b8c156109535760009c611dac575b506040516395d89b4160e01b8152926000846004816001600160a01b0387165afa93841561095357600094611d8f575b5060405163313ce56760e01b81526020816004816001600160a01b0388165afa801561095357600061014052611d5b575b506040516306fdde0360e01b8152906000826004816001600160a01b0388165afa91821561095357600092611d36575b506040516341976e0960e01b81526001600160a01b03848116600483015260e05191959160209187916024918391165afa94851561095357600095611d02575b506040516101808181526370a0823160e01b90915260e05181516001600160a01b039182166004909101529051602091602490829085165afa8061016052156109535760009061016051611cca575b611b40604051806101a052611382565b60018060a01b03166101a0515260206101a05101526101405160406101a051015260606101a051015260806101a051015260018060a01b031660a06101a051015260c06101a051015260e06101a0510152611ba060ff61012051166115f9565b97611bae604051998a6113ba565b60ff61012051168952601f19611bc960ff61012051166115f9565b0160005b818110611cb257505060005b60ff610120511660ff82161015611c1a5780611bfa611c159260e051612274565b611c0760ff83168d611675565b5261079960ff82168c611675565b611bd9565b50919395979092949698611c446001600160401b03611c3d81610100511661169f565b921661169f565b926cffffffffffffffffffffffffff60808160a08901511697015116976040519a611c6e8c611366565b6101a0518c5260208c015260408b015260608a0152608089015260a088015260c087015260e086015261010085015261012084015261014083015261016082015290565b808b60208093611cc0611610565b9201015201611bcd565b905060203d602011611cfb575b611ce481610180516113ba565b6020610180518092810103126101e6575190611b30565b503d611cd7565b9094506020813d602011611d2e575b81611d1e602093836113ba565b810103126101e657519338611ae1565b3d9150611d11565b611d549192503d806000833e611d4c81836113ba565b810190611598565b9038611aa1565b6020813d602011611d87575b81611d74602093836113ba565b810103126101e657516101405238611a71565b3d9150611d67565b611da59194503d806000833e611d4c81836113ba565b9238611a40565b909b506020813d602011611de0575b81611dc8602093836113ba565b810103126101e657611dd99061156a565b9a38611a10565b3d9150611dbb565b6020813d602011611e1c575b81611e01602093836113ba565b810103126101e657611e129061156a565b61010052386119da565b3d9150611df4565b909450610100813d61010011611ee8575b81611e4361010093836113ba565b810103126101e65760405190611e5882611382565b611e618161156a565b8252611e6f6020820161156a565b6020830152611e806040820161156a565b6040830152611e916060820161156a565b6060830152611ea26080820161157e565b6080830152611eb360a0820161157e565b60a083015260c081015164ffffffffff811681036101e65760c0830152611edc9060e001611548565b60e0820152933861199c565b3d9150611e35565b9092506020813d602011611f1c575b81611f0c602093836113ba565b810103126101e65751913861196a565b3d9150611eff565b9093506020813d602011611f50575b81611f40602093836113ba565b810103126101e657519238611939565b3d9150611f33565b9098506020813d602011611f84575b81611f74602093836113ba565b810103126101e657519738611908565b3d9150611f67565b9094506020813d602011611fb8575b81611fa8602093836113ba565b810103126101e6575193386118d7565b3d9150611f9b565b9091506020813d602011611fec575b81611fdc602093836113ba565b810103126101e6575190386118a6565b3d9150611fcf565b9094506020813d602011612020575b81612010602093836113ba565b810103126101e657519338611875565b3d9150612003565b90506020813d602011612052575b81612043602093836113ba565b810103126101e6575138611844565b3d9150612036565b9092506020813d602011612086575b81612076602093836113ba565b810103126101e65751913861180f565b3d9150612069565b9091506020813d6020116120c2575b816120aa602093836113ba565b810103126101e6576120bb90611556565b90386117de565b3d915061209d565b9091506020813d6020116120fe575b816120e6602093836113ba565b810103126101e6576120f790611556565b90386117ad565b3d91506120d9565b6020813d60201161213a575b8161211f602093836113ba565b810103126101e65761213090611548565b610120523861177c565b3d9150612112565b6040519061214f8261139e565b6040516101a08361215f8361134a565b600083818095528160208201528160408201528160608201528160808201528160a0820152606060c08201528160e0820152816101008181840152816101209160608386015261014094828682015287528160208801528160408801528160608801528160808801528160a0880152606060c08801528160e088015286015284015282015282610160820152826101808201520152565b604051906122038261139e565b816101a0600091828152826020820152826040820152826060820152826080820152606060a08201528260c08201528260e08201528261010082015282610120820152826101408201526060610160820152826101808201520152565b51906001600160801b03821682036101e657565b9061227d611610565b506040805163c8c7fe6b60e01b815260ff9092166004830152916001600160a01b0390811691906101008083602481875afa92831561248357600093612521575b506020928381019383855116966001600160401b039060048260808601511691848b82519384809263313ce56760e01b82525afa918215612516576000926124e6575b506004928460a0880151169460c0880151169560008a8c51168451968780926306fdde0360e01b82525afa94851561245957908c979695949392916000956124cb575b50828901818c82511660248651809c81936341976e0960e01b835260048301525afa9889156124c057908c9160009a61248e575b5051169860e001516001600160801b03169a808d51169c8451809e81906395d89b4160e01b82525a92600491600094fa9d8e156124835760009e612464575b505184516359e017bd60e01b8152911660048201529c81908e90815a91602492fa9c8d156124595760009d612427575b5082519d8e6123f58161134a565b528d01528b015260608a0152608089015260a088015260c087015260e086015284015261012083015261014082015290565b909c8d82813d8311612452575b61243e81836113ba565b8101031261244f5750519b386123e7565b80fd5b503d612434565b83513d6000823e3d90fd5b61247b908493929f3d8091833e611d4c81836113ba565b9d90916123b7565b85513d6000823e3d90fd5b9150988282813d83116124b9575b6124a681836113ba565b8101031261244f57508b90519838612378565b503d61249c565b84513d6000823e3d90fd5b6124df91953d8091833e611d4c81836113ba565b9338612344565b90918582813d831161250f575b6124fd81836113ba565b8101031261244f575051906004612301565b503d6124f3565b50513d6000823e3d90fd5b90928382813d83116125d3575b61253881836113ba565b8101031261244f57506125c760e086519261255284611382565b61255b81611548565b845261256960208201611556565b6020850152612579888201611556565b888501526125896060820161156a565b606085015261259a6080820161156a565b60808501526125ab60a0820161156a565b60a08501526125bc60c0820161156a565b60c085015201612260565b60e082015291386122be565b503d61252e565b91906125e46121f6565b508051604051636eb1769f60e11b81526001600160a01b038481166004830152948516602482018190529490911693602082604481885afa918215610953576000926127c1575b508251604051632e12a4f760e11b81526001600160a01b038681166004830152909116602482015290602090829060449082905afa90811561095357600091612787575b506020830151604080850151608086015160a0870151606088015160c089015160e08a01516101008b01516101208c01516101408d01519c5198516370a0823160e01b81526001600160a01b039e8f1660048201529d909b919a928116999398959794958e918291165a92602491602094fa9c8d156109535760009d612753575b50604051809e6126ff8261139e565b8152602001526001600160801b031660408d015260608c015260808b015260a08a015260c089015260e08801526101008701526101208601526101408501526101608401526101808301526101a082015290565b909c6020823d60201161277f575b8161276e602093836113ba565b8101031261244f5750519b386126f0565b3d9150612761565b906020823d6020116127b9575b816127a1602093836113ba565b8101031261244f57506127b390612260565b3861266f565b3d9150612794565b90916020823d6020116127ee575b816127dc602093836113ba565b8101031261244f57505190602061262b565b3d91506127cf565b6040519061280382611382565b8160e06000918281528260208201528260408201528260608201528260808201528260a08201528260c08201520152565b93919492946128416127f6565b5060018060a01b03918280835116968795604080926024825180998193638e8f294b60e01b835260049e8f840152165afa958615612b8d578a918a91600098612b47575b508351636eb1769f60e11b81526001600160a01b039384169281019283529216602082810191909152908190839081906040015b03818b5afa91821561245957600092612b18575b5082516370a0823160e01b81529a84168a8c0181905294818c6024818c5afa9485156124c057600095612ae4575b8451633af9e66960e01b8152808d018890529c50828d8b815a602492600091f196871561248357600097612ab0575b8c9d5085519d8e6305eff7ef60e21b81520152828d8b815a602492600091f1978815612483578c8b9c9d9e60009a612a63575b50865163bd6d894d60e01b81529b85918d9182906000905af19a8b15612a585760009b612a29575b5091836129b59c9d9e9281809501519388519e8f9586948593631fc58c3360e31b85528401526024830190611073565b0392165afa988915612459576000996129fa575b508251996129d68b611382565b8a528901528701526060860152608085015260a084015260c083015260e082015290565b90988982813d8311612a22575b612a1181836113ba565b8101031261244f57505197386129c9565b503d612a07565b909a8482813d8311612a51575b612a4081836113ba565b8101031261244f5750519983612985565b503d612a36565b86513d6000823e3d90fd5b8580989a9c9d5081949692509a929496989a3d8311612aa9575b612a8781836113ba565b8101031261244f5750918c97959391858c60009c9b999795519a91509b61295d565b503d612a7d565b969c8381813d8311612add575b612ac781836113ba565b81010312612ad9578c9d50519661292a565b8d80fd5b503d612abd565b949b8281813d8311612b11575b612afb81836113ba565b81010312612b0d578b9c5051946128fb565b8c80fd5b503d612af1565b90918282813d8311612b40575b612b2f81836113ba565b8101031261244f57505190386128cd565b503d612b25565b8093508480929993503d8311612b86575b612b6281836113ba565b8101031261244f5781518015150361244f57506020015194899089906128b9612885565b503d612b58565b82513d6000823e3d90fdfea2646970667358221220bd68fd7deedde79ab2ae03394bf8b713b2c0b9dc09760c8611521f23129d62ad64736f6c63430008100033",
    "linkReferences": {}
  },
  "methodIdentifiers": {
    "cTokenMetadata(address,address,(address,string),address,address)": "a72b45e0",
    "collateralInfo(address,uint8)": "cbe293fa",
    "collateralInfoWithAccount(address,(address,uint256,uint256,string,uint256,uint256,uint256,address,uint256,string,uint256),address)": "c2815c0b",
    "getMigratorData(address,address,(address,string)[],address,address)": "61d11a6e",
    "query(address)": "d4fc9fc6",
    "queryWithAccount(address,address,address)": "5346cc19"
  },
  "id": 2
}