{
  "abi": [
    {
      "inputs": [
        {
          "internalType": "contract Comptroller",
          "name": "comptroller",
          "type": "address"
        },
        {
          "internalType": "contract PriceOracle",
          "name": "priceOracle",
          "type": "address"
        },
        {
          "internalType": "contract CToken",
          "name": "cToken",
          "type": "address"
        },
        {
          "internalType": "address payable",
          "name": "account",
          "type": "address"
        },
        {
          "internalType": "address payable",
          "name": "spender",
          "type": "address"
        }
      ],
      "name": "cTokenMetadata",
      "outputs": [
        {
          "components": [
            {
              "internalType": "address",
              "name": "cToken",
              "type": "address"
            },
            {
              "internalType": "uint256",
              "name": "allowance",
              "type": "uint256"
            },
            {
              "internalType": "uint256",
              "name": "balance",
              "type": "uint256"
            },
            {
              "internalType": "uint256",
              "name": "balanceUnderlying",
              "type": "uint256"
            },
            {
              "internalType": "uint256",
              "name": "borrowBalance",
              "type": "uint256"
            },
            {
              "internalType": "uint256",
              "name": "collateralFactor",
              "type": "uint256"
            },
            {
              "internalType": "uint256",
              "name": "exchangeRate",
              "type": "uint256"
            },
            {
              "internalType": "uint256",
              "name": "price",
              "type": "uint256"
            }
          ],
          "internalType": "struct CompoundV2Query.CTokenMetadata",
          "name": "",
          "type": "tuple"
        }
      ],
      "stateMutability": "nonpayable",
      "type": "function"
    },
    {
      "inputs": [
        {
          "internalType": "contract Comptroller",
          "name": "comptroller",
          "type": "address"
        },
        {
          "internalType": "contract CToken[]",
          "name": "cTokens",
          "type": "address[]"
        },
        {
          "internalType": "address payable",
          "name": "account",
          "type": "address"
        },
        {
          "internalType": "address payable",
          "name": "spender",
          "type": "address"
        }
      ],
      "name": "query",
      "outputs": [
        {
          "components": [
            {
              "internalType": "address",
              "name": "cToken",
              "type": "address"
            },
            {
              "internalType": "uint256",
              "name": "allowance",
              "type": "uint256"
            },
            {
              "internalType": "uint256",
              "name": "balance",
              "type": "uint256"
            },
            {
              "internalType": "uint256",
              "name": "balanceUnderlying",
              "type": "uint256"
            },
            {
              "internalType": "uint256",
              "name": "borrowBalance",
              "type": "uint256"
            },
            {
              "internalType": "uint256",
              "name": "collateralFactor",
              "type": "uint256"
            },
            {
              "internalType": "uint256",
              "name": "exchangeRate",
              "type": "uint256"
            },
            {
              "internalType": "uint256",
              "name": "price",
              "type": "uint256"
            }
          ],
          "internalType": "struct CompoundV2Query.CTokenMetadata[]",
          "name": "",
          "type": "tuple[]"
        }
      ],
      "stateMutability": "nonpayable",
      "type": "function"
    }
  ],
  "bytecode": {
    "object": "0x608060405234801561001057600080fd5b5061084e806100206000396000f3fe608060405234801561001057600080fd5b50600436106100365760003560e01c80630637ff4b1461003b578063bc3b500514610064575b600080fd5b61004e61004936600461056b565b610084565b60405161005b9190610671565b60405180910390f35b6100776100723660046106c0565b6101bf565b60405161005b9190610723565b60606000866001600160a01b0316637dc0d1d06040518163ffffffff1660e01b8152600401602060405180830381865afa1580156100c6573d6000803e3d6000fd5b505050506040513d601f19601f820116820180604052508101906100ea9190610738565b90508460008167ffffffffffffffff8111156101085761010861075c565b60405190808252806020026020018201604052801561014157816020015b61012e610505565b8152602001906001900390816101265790505b50905060005b828110156101b2576101828a858b8b8581811061016657610166610772565b905060200201602081019061017b9190610788565b8a8a6101bf565b82828151811061019457610194610772565b602002602001018190525080806101aa906107a5565b915050610147565b5098975050505050505050565b6101c7610505565b604051638e8f294b60e01b81526001600160a01b03858116600483015260009190881690638e8f294b906024016040805180830381865afa158015610210573d6000803e3d6000fd5b505050506040513d601f19601f8201168201806040525081019061023491906107cc565b60408051610100810182526001600160a01b038981168083529251636eb1769f60e11b8152898216600482015290881660248201529294509250602083019163dd62ed3e90604401602060405180830381865afa158015610299573d6000803e3d6000fd5b505050506040513d601f19601f820116820180604052508101906102bd91906107ff565b81526040516370a0823160e01b81526001600160a01b0387811660048301526020909201918816906370a0823190602401602060405180830381865afa15801561030b573d6000803e3d6000fd5b505050506040513d601f19601f8201168201806040525081019061032f91906107ff565b8152604051633af9e66960e01b81526001600160a01b038781166004830152602090920191881690633af9e669906024016020604051808303816000875af115801561037f573d6000803e3d6000fd5b505050506040513d601f19601f820116820180604052508101906103a391906107ff565b81526040516305eff7ef60e21b81526001600160a01b0387811660048301526020909201918816906317bfdfbc906024016020604051808303816000875af11580156103f3573d6000803e3d6000fd5b505050506040513d601f19601f8201168201806040525081019061041791906107ff565b8152602001828152602001866001600160a01b031663bd6d894d6040518163ffffffff1660e01b81526004016020604051808303816000875af1158015610462573d6000803e3d6000fd5b505050506040513d601f19601f8201168201806040525081019061048691906107ff565b815260405163fc57d4df60e01b81526001600160a01b03888116600483015260209092019189169063fc57d4df90602401602060405180830381865afa1580156104d4573d6000803e3d6000fd5b505050506040513d601f19601f820116820180604052508101906104f891906107ff565b9052979650505050505050565b60405180610100016040528060006001600160a01b03168152602001600081526020016000815260200160008152602001600081526020016000815260200160008152602001600081525090565b6001600160a01b038116811461056857600080fd5b50565b60008060008060006080868803121561058357600080fd5b853561058e81610553565b9450602086013567ffffffffffffffff808211156105ab57600080fd5b818801915088601f8301126105bf57600080fd5b8135818111156105ce57600080fd5b8960208260051b85010111156105e357600080fd5b60208301965080955050505060408601356105fd81610553565b9150606086013561060d81610553565b809150509295509295909350565b60018060a01b0381511682526020810151602083015260408101516040830152606081015160608301526080810151608083015260a081015160a083015260c081015160c083015260e081015160e08301525050565b6020808252825182820181905260009190848201906040850190845b818110156106b4576106a083855161061b565b92840192610100929092019160010161068d565b50909695505050505050565b600080600080600060a086880312156106d857600080fd5b85356106e381610553565b945060208601356106f381610553565b9350604086013561070381610553565b9250606086013561071381610553565b9150608086013561060d81610553565b6101008101610732828461061b565b92915050565b60006020828403121561074a57600080fd5b815161075581610553565b9392505050565b634e487b7160e01b600052604160045260246000fd5b634e487b7160e01b600052603260045260246000fd5b60006020828403121561079a57600080fd5b813561075581610553565b6000600182016107c557634e487b7160e01b600052601160045260246000fd5b5060010190565b600080604083850312156107df57600080fd5b825180151581146107ef57600080fd5b6020939093015192949293505050565b60006020828403121561081157600080fd5b505191905056fea264697066735822122009fc22fd8f6355dd50cbac4254b5d2907c50dc4b2d1bc8c8d4cec48783688d0f64736f6c63430008100033",
    "linkReferences": {}
  },
  "methodIdentifiers": {
    "cTokenMetadata(address,address,address,address,address)": "bc3b5005",
    "query(address,address[],address,address)": "0637ff4b"
  },
  "id": 0
}