{
  "abi": [
    {
      "inputs": [
        {
          "internalType": "contract LendingPool",
          "name": "pool",
          "type": "address"
        },
        {
          "internalType": "contract AavePriceOracle",
          "name": "priceOracle",
          "type": "address"
        },
        {
          "components": [
            {
              "internalType": "contract AToken",
              "name": "aToken",
              "type": "address"
            },
            {
              "internalType": "contract DebtToken",
              "name": "stableDebtToken",
              "type": "address"
            },
            {
              "internalType": "contract DebtToken",
              "name": "variableDebtToken",
              "type": "address"
            }
          ],
          "internalType": "struct AaveV2Query.ATokenRequest",
          "name": "aTokenRequest",
          "type": "tuple"
        },
        {
          "internalType": "address payable",
          "name": "account",
          "type": "address"
        },
        {
          "internalType": "address payable",
          "name": "spender",
          "type": "address"
        }
      ],
      "name": "aTokenMetadata",
      "outputs": [
        {
          "components": [
            {
              "internalType": "address",
              "name": "aToken",
              "type": "address"
            },
            {
              "internalType": "address",
              "name": "stableDebtToken",
              "type": "address"
            },
            {
              "internalType": "address",
              "name": "variableDebtToken",
              "type": "address"
            },
            {
              "internalType": "uint256",
              "name": "allowance",
              "type": "uint256"
            },
            {
              "internalType": "uint256",
              "name": "balance",
              "type": "uint256"
            },
            {
              "internalType": "uint256",
              "name": "stableDebtBalance",
              "type": "uint256"
            },
            {
              "internalType": "uint256",
              "name": "variableDebtBalance",
              "type": "uint256"
            },
            {
              "internalType": "uint256",
              "name": "configuration",
              "type": "uint256"
            },
            {
              "internalType": "uint256",
              "name": "priceInETH",
              "type": "uint256"
            }
          ],
          "internalType": "struct AaveV2Query.ATokenMetadata",
          "name": "",
          "type": "tuple"
        }
      ],
      "stateMutability": "view",
      "type": "function"
    },
    {
      "inputs": [
        {
          "internalType": "contract Comet",
          "name": "comet",
          "type": "address"
        },
        {
          "internalType": "uint8",
          "name": "index",
          "type": "uint8"
        }
      ],
      "name": "collateralInfo",
      "outputs": [
        {
          "components": [
            {
              "internalType": "address",
              "name": "collateralAsset",
              "type": "address"
            },
            {
              "internalType": "uint256",
              "name": "collateralFactor",
              "type": "uint256"
            },
            {
              "internalType": "uint256",
              "name": "decimals",
              "type": "uint256"
            },
            {
              "internalType": "string",
              "name": "name",
              "type": "string"
            },
            {
              "internalType": "uint256",
              "name": "liquidateCollateralFactor",
              "type": "uint256"
            },
            {
              "internalType": "uint256",
              "name": "liquidationFactor",
              "type": "uint256"
            },
            {
              "internalType": "uint256",
              "name": "price",
              "type": "uint256"
            },
            {
              "internalType": "address",
              "name": "priceFeed",
              "type": "address"
            },
            {
              "internalType": "uint256",
              "name": "supplyCap",
              "type": "uint256"
            },
            {
              "internalType": "string",
              "name": "symbol",
              "type": "string"
            },
            {
              "internalType": "uint256",
              "name": "totalSupply",
              "type": "uint256"
            }
          ],
          "internalType": "struct CometQuery.CollateralAsset",
          "name": "",
          "type": "tuple"
        }
      ],
      "stateMutability": "view",
      "type": "function"
    },
    {
      "inputs": [
        {
          "internalType": "contract Comet",
          "name": "comet",
          "type": "address"
        },
        {
          "components": [
            {
              "internalType": "address",
              "name": "collateralAsset",
              "type": "address"
            },
            {
              "internalType": "uint256",
              "name": "collateralFactor",
              "type": "uint256"
            },
            {
              "internalType": "uint256",
              "name": "decimals",
              "type": "uint256"
            },
            {
              "internalType": "string",
              "name": "name",
              "type": "string"
            },
            {
              "internalType": "uint256",
              "name": "liquidateCollateralFactor",
              "type": "uint256"
            },
            {
              "internalType": "uint256",
              "name": "liquidationFactor",
              "type": "uint256"
            },
            {
              "internalType": "uint256",
              "name": "price",
              "type": "uint256"
            },
            {
              "internalType": "address",
              "name": "priceFeed",
              "type": "address"
            },
            {
              "internalType": "uint256",
              "name": "supplyCap",
              "type": "uint256"
            },
            {
              "internalType": "string",
              "name": "symbol",
              "type": "string"
            },
            {
              "internalType": "uint256",
              "name": "totalSupply",
              "type": "uint256"
            }
          ],
          "internalType": "struct CometQuery.CollateralAsset",
          "name": "asset",
          "type": "tuple"
        },
        {
          "internalType": "address payable",
          "name": "account",
          "type": "address"
        }
      ],
      "name": "collateralInfoWithAccount",
      "outputs": [
        {
          "components": [
            {
              "internalType": "address",
              "name": "collateralAsset",
              "type": "address"
            },
            {
              "internalType": "uint256",
              "name": "allowance",
              "type": "uint256"
            },
            {
              "internalType": "uint256",
              "name": "balance",
              "type": "uint256"
            },
            {
              "internalType": "uint256",
              "name": "collateralFactor",
              "type": "uint256"
            },
            {
              "internalType": "uint256",
              "name": "decimals",
              "type": "uint256"
            },
            {
              "internalType": "string",
              "name": "name",
              "type": "string"
            },
            {
              "internalType": "uint256",
              "name": "liquidateCollateralFactor",
              "type": "uint256"
            },
            {
              "internalType": "uint256",
              "name": "liquidationFactor",
              "type": "uint256"
            },
            {
              "internalType": "uint256",
              "name": "price",
              "type": "uint256"
            },
            {
              "internalType": "address",
              "name": "priceFeed",
              "type": "address"
            },
            {
              "internalType": "uint256",
              "name": "supplyCap",
              "type": "uint256"
            },
            {
              "internalType": "string",
              "name": "symbol",
              "type": "string"
            },
            {
              "internalType": "uint256",
              "name": "totalSupply",
              "type": "uint256"
            },
            {
              "internalType": "uint256",
              "name": "walletBalance",
              "type": "uint256"
            }
          ],
          "internalType": "struct CometQuery.CollateralAssetWithAccountState",
          "name": "",
          "type": "tuple"
        }
      ],
      "stateMutability": "view",
      "type": "function"
    },
    {
      "inputs": [
        {
          "internalType": "contract LendingPoolAddressesProvider",
          "name": "provider",
          "type": "address"
        },
        {
          "internalType": "contract LendingPool",
          "name": "pool",
          "type": "address"
        },
        {
          "internalType": "contract Comet",
          "name": "comet",
          "type": "address"
        },
        {
          "components": [
            {
              "internalType": "contract AToken",
              "name": "aToken",
              "type": "address"
            },
            {
              "internalType": "contract DebtToken",
              "name": "stableDebtToken",
              "type": "address"
            },
            {
              "internalType": "contract DebtToken",
              "name": "variableDebtToken",
              "type": "address"
            }
          ],
          "internalType": "struct AaveV2Query.ATokenRequest[]",
          "name": "aTokens",
          "type": "tuple[]"
        },
        {
          "internalType": "address payable",
          "name": "account",
          "type": "address"
        },
        {
          "internalType": "address payable",
          "name": "spender",
          "type": "address"
        },
        {
          "internalType": "address",
          "name": "usdcAddress",
          "type": "address"
        }
      ],
      "name": "getMigratorData",
      "outputs": [
        {
          "components": [
            {
              "internalType": "uint256",
              "name": "migratorEnabled",
              "type": "uint256"
            },
            {
              "components": [
                {
                  "internalType": "address",
                  "name": "aToken",
                  "type": "address"
                },
                {
                  "internalType": "address",
                  "name": "stableDebtToken",
                  "type": "address"
                },
                {
                  "internalType": "address",
                  "name": "variableDebtToken",
                  "type": "address"
                },
                {
                  "internalType": "uint256",
                  "name": "allowance",
                  "type": "uint256"
                },
                {
                  "internalType": "uint256",
                  "name": "balance",
                  "type": "uint256"
                },
                {
                  "internalType": "uint256",
                  "name": "stableDebtBalance",
                  "type": "uint256"
                },
                {
                  "internalType": "uint256",
                  "name": "variableDebtBalance",
                  "type": "uint256"
                },
                {
                  "internalType": "uint256",
                  "name": "configuration",
                  "type": "uint256"
                },
                {
                  "internalType": "uint256",
                  "name": "priceInETH",
                  "type": "uint256"
                }
              ],
              "internalType": "struct AaveV2Query.ATokenMetadata[]",
              "name": "tokens",
              "type": "tuple[]"
            },
            {
              "components": [
                {
                  "components": [
                    {
                      "internalType": "address",
                      "name": "baseAsset",
                      "type": "address"
                    },
                    {
                      "internalType": "uint256",
                      "name": "allowance",
                      "type": "uint256"
                    },
                    {
                      "internalType": "uint256",
                      "name": "balance",
                      "type": "uint256"
                    },
                    {
                      "internalType": "uint256",
                      "name": "balanceOfComet",
                      "type": "uint256"
                    },
                    {
                      "internalType": "uint256",
                      "name": "decimals",
                      "type": "uint256"
                    },
                    {
                      "internalType": "uint256",
                      "name": "minBorrow",
                      "type": "uint256"
                    },
                    {
                      "internalType": "string",
                      "name": "name",
                      "type": "string"
                    },
                    {
                      "internalType": "address",
                      "name": "priceFeed",
                      "type": "address"
                    },
                    {
                      "internalType": "uint256",
                      "name": "price",
                      "type": "uint256"
                    },
                    {
                      "internalType": "string",
                      "name": "symbol",
                      "type": "string"
                    },
                    {
                      "internalType": "uint256",
                      "name": "walletBalance",
                      "type": "uint256"
                    }
                  ],
                  "internalType": "struct CometQuery.BaseAssetWithAccountState",
                  "name": "baseAsset",
                  "type": "tuple"
                },
                {
                  "internalType": "uint256",
                  "name": "baseMinForRewards",
                  "type": "uint256"
                },
                {
                  "internalType": "uint256",
                  "name": "baseTrackingBorrowSpeed",
                  "type": "uint256"
                },
                {
                  "internalType": "uint256",
                  "name": "baseTrackingSupplySpeed",
                  "type": "uint256"
                },
                {
                  "internalType": "uint256",
                  "name": "borrowAPR",
                  "type": "uint256"
                },
                {
                  "internalType": "uint256",
                  "name": "bulkerAllowance",
                  "type": "uint256"
                },
                {
                  "components": [
                    {
                      "internalType": "address",
                      "name": "collateralAsset",
                      "type": "address"
                    },
                    {
                      "internalType": "uint256",
                      "name": "allowance",
                      "type": "uint256"
                    },
                    {
                      "internalType": "uint256",
                      "name": "balance",
                      "type": "uint256"
                    },
                    {
                      "internalType": "uint256",
                      "name": "collateralFactor",
                      "type": "uint256"
                    },
                    {
                      "internalType": "uint256",
                      "name": "decimals",
                      "type": "uint256"
                    },
                    {
                      "internalType": "string",
                      "name": "name",
                      "type": "string"
                    },
                    {
                      "internalType": "uint256",
                      "name": "liquidateCollateralFactor",
                      "type": "uint256"
                    },
                    {
                      "internalType": "uint256",
                      "name": "liquidationFactor",
                      "type": "uint256"
                    },
                    {
                      "internalType": "uint256",
                      "name": "price",
                      "type": "uint256"
                    },
                    {
                      "internalType": "address",
                      "name": "priceFeed",
                      "type": "address"
                    },
                    {
                      "internalType": "uint256",
                      "name": "supplyCap",
                      "type": "uint256"
                    },
                    {
                      "internalType": "string",
                      "name": "symbol",
                      "type": "string"
                    },
                    {
                      "internalType": "uint256",
                      "name": "totalSupply",
                      "type": "uint256"
                    },
                    {
                      "internalType": "uint256",
                      "name": "walletBalance",
                      "type": "uint256"
                    }
                  ],
                  "internalType": "struct CometQuery.CollateralAssetWithAccountState[]",
                  "name": "collateralAssets",
                  "type": "tuple[]"
                },
                {
                  "internalType": "uint256",
                  "name": "earnAPR",
                  "type": "uint256"
                },
                {
                  "internalType": "uint256",
                  "name": "totalBorrow",
                  "type": "uint256"
                },
                {
                  "internalType": "uint256",
                  "name": "totalBorrowPrincipal",
                  "type": "uint256"
                },
                {
                  "internalType": "uint256",
                  "name": "totalSupply",
                  "type": "uint256"
                },
                {
                  "internalType": "uint256",
                  "name": "totalSupplyPrincipal",
                  "type": "uint256"
                },
                {
                  "internalType": "uint256",
                  "name": "trackingIndexScale",
                  "type": "uint256"
                }
              ],
              "internalType": "struct CometQuery.CometStateWithAccountState",
              "name": "cometState",
              "type": "tuple"
            },
            {
              "internalType": "uint256",
              "name": "usdcPriceInETH",
              "type": "uint256"
            }
          ],
          "internalType": "struct AaveV2Query.QueryResponse",
          "name": "",
          "type": "tuple"
        }
      ],
      "stateMutability": "view",
      "type": "function"
    },
    {
      "inputs": [
        {
          "internalType": "contract Comet",
          "name": "comet",
          "type": "address"
        }
      ],
      "name": "query",
      "outputs": [
        {
          "components": [
            {
              "components": [
                {
                  "internalType": "address",
                  "name": "baseAsset",
                  "type": "address"
                },
                {
                  "internalType": "uint256",
                  "name": "balanceOfComet",
                  "type": "uint256"
                },
                {
                  "internalType": "uint256",
                  "name": "decimals",
                  "type": "uint256"
                },
                {
                  "internalType": "uint256",
                  "name": "minBorrow",
                  "type": "uint256"
                },
                {
                  "internalType": "string",
                  "name": "name",
                  "type": "string"
                },
                {
                  "internalType": "address",
                  "name": "priceFeed",
                  "type": "address"
                },
                {
                  "internalType": "uint256",
                  "name": "price",
                  "type": "uint256"
                },
                {
                  "internalType": "string",
                  "name": "symbol",
                  "type": "string"
                }
              ],
              "internalType": "struct CometQuery.BaseAsset",
              "name": "baseAsset",
              "type": "tuple"
            },
            {
              "internalType": "uint256",
              "name": "baseMinForRewards",
              "type": "uint256"
            },
            {
              "internalType": "uint256",
              "name": "baseTrackingBorrowSpeed",
              "type": "uint256"
            },
            {
              "internalType": "uint256",
              "name": "baseTrackingSupplySpeed",
              "type": "uint256"
            },
            {
              "internalType": "uint256",
              "name": "borrowAPR",
              "type": "uint256"
            },
            {
              "components": [
                {
                  "internalType": "address",
                  "name": "collateralAsset",
                  "type": "address"
                },
                {
                  "internalType": "uint256",
                  "name": "collateralFactor",
                  "type": "uint256"
                },
                {
                  "internalType": "uint256",
                  "name": "decimals",
                  "type": "uint256"
                },
                {
                  "internalType": "string",
                  "name": "name",
                  "type": "string"
                },
                {
                  "internalType": "uint256",
                  "name": "liquidateCollateralFactor",
                  "type": "uint256"
                },
                {
                  "internalType": "uint256",
                  "name": "liquidationFactor",
                  "type": "uint256"
                },
                {
                  "internalType": "uint256",
                  "name": "price",
                  "type": "uint256"
                },
                {
                  "internalType": "address",
                  "name": "priceFeed",
                  "type": "address"
                },
                {
                  "internalType": "uint256",
                  "name": "supplyCap",
                  "type": "uint256"
                },
                {
                  "internalType": "string",
                  "name": "symbol",
                  "type": "string"
                },
                {
                  "internalType": "uint256",
                  "name": "totalSupply",
                  "type": "uint256"
                }
              ],
              "internalType": "struct CometQuery.CollateralAsset[]",
              "name": "collateralAssets",
              "type": "tuple[]"
            },
            {
              "internalType": "uint256",
              "name": "earnAPR",
              "type": "uint256"
            },
            {
              "internalType": "uint256",
              "name": "totalBorrow",
              "type": "uint256"
            },
            {
              "internalType": "uint256",
              "name": "totalBorrowPrincipal",
              "type": "uint256"
            },
            {
              "internalType": "uint256",
              "name": "totalSupply",
              "type": "uint256"
            },
            {
              "internalType": "uint256",
              "name": "totalSupplyPrincipal",
              "type": "uint256"
            },
            {
              "internalType": "uint256",
              "name": "trackingIndexScale",
              "type": "uint256"
            }
          ],
          "internalType": "struct CometQuery.CometState",
          "name": "",
          "type": "tuple"
        }
      ],
      "stateMutability": "view",
      "type": "function"
    },
    {
      "inputs": [
        {
          "internalType": "contract Comet",
          "name": "comet",
          "type": "address"
        },
        {
          "internalType": "address payable",
          "name": "account",
          "type": "address"
        },
        {
          "internalType": "address payable",
          "name": "bulker",
          "type": "address"
        }
      ],
      "name": "queryWithAccount",
      "outputs": [
        {
          "components": [
            {
              "components": [
                {
                  "internalType": "address",
                  "name": "baseAsset",
                  "type": "address"
                },
                {
                  "internalType": "uint256",
                  "name": "allowance",
                  "type": "uint256"
                },
                {
                  "internalType": "uint256",
                  "name": "balance",
                  "type": "uint256"
                },
                {
                  "internalType": "uint256",
                  "name": "balanceOfComet",
                  "type": "uint256"
                },
                {
                  "internalType": "uint256",
                  "name": "decimals",
                  "type": "uint256"
                },
                {
                  "internalType": "uint256",
                  "name": "minBorrow",
                  "type": "uint256"
                },
                {
                  "internalType": "string",
                  "name": "name",
                  "type": "string"
                },
                {
                  "internalType": "address",
                  "name": "priceFeed",
                  "type": "address"
                },
                {
                  "internalType": "uint256",
                  "name": "price",
                  "type": "uint256"
                },
                {
                  "internalType": "string",
                  "name": "symbol",
                  "type": "string"
                },
                {
                  "internalType": "uint256",
                  "name": "walletBalance",
                  "type": "uint256"
                }
              ],
              "internalType": "struct CometQuery.BaseAssetWithAccountState",
              "name": "baseAsset",
              "type": "tuple"
            },
            {
              "internalType": "uint256",
              "name": "baseMinForRewards",
              "type": "uint256"
            },
            {
              "internalType": "uint256",
              "name": "baseTrackingBorrowSpeed",
              "type": "uint256"
            },
            {
              "internalType": "uint256",
              "name": "baseTrackingSupplySpeed",
              "type": "uint256"
            },
            {
              "internalType": "uint256",
              "name": "borrowAPR",
              "type": "uint256"
            },
            {
              "internalType": "uint256",
              "name": "bulkerAllowance",
              "type": "uint256"
            },
            {
              "components": [
                {
                  "internalType": "address",
                  "name": "collateralAsset",
                  "type": "address"
                },
                {
                  "internalType": "uint256",
                  "name": "allowance",
                  "type": "uint256"
                },
                {
                  "internalType": "uint256",
                  "name": "balance",
                  "type": "uint256"
                },
                {
                  "internalType": "uint256",
                  "name": "collateralFactor",
                  "type": "uint256"
                },
                {
                  "internalType": "uint256",
                  "name": "decimals",
                  "type": "uint256"
                },
                {
                  "internalType": "string",
                  "name": "name",
                  "type": "string"
                },
                {
                  "internalType": "uint256",
                  "name": "liquidateCollateralFactor",
                  "type": "uint256"
                },
                {
                  "internalType": "uint256",
                  "name": "liquidationFactor",
                  "type": "uint256"
                },
                {
                  "internalType": "uint256",
                  "name": "price",
                  "type": "uint256"
                },
                {
                  "internalType": "address",
                  "name": "priceFeed",
                  "type": "address"
                },
                {
                  "internalType": "uint256",
                  "name": "supplyCap",
                  "type": "uint256"
                },
                {
                  "internalType": "string",
                  "name": "symbol",
                  "type": "string"
                },
                {
                  "internalType": "uint256",
                  "name": "totalSupply",
                  "type": "uint256"
                },
                {
                  "internalType": "uint256",
                  "name": "walletBalance",
                  "type": "uint256"
                }
              ],
              "internalType": "struct CometQuery.CollateralAssetWithAccountState[]",
              "name": "collateralAssets",
              "type": "tuple[]"
            },
            {
              "internalType": "uint256",
              "name": "earnAPR",
              "type": "uint256"
            },
            {
              "internalType": "uint256",
              "name": "totalBorrow",
              "type": "uint256"
            },
            {
              "internalType": "uint256",
              "name": "totalBorrowPrincipal",
              "type": "uint256"
            },
            {
              "internalType": "uint256",
              "name": "totalSupply",
              "type": "uint256"
            },
            {
              "internalType": "uint256",
              "name": "totalSupplyPrincipal",
              "type": "uint256"
            },
            {
              "internalType": "uint256",
              "name": "trackingIndexScale",
              "type": "uint256"
            }
          ],
          "internalType": "struct CometQuery.CometStateWithAccountState",
          "name": "",
          "type": "tuple"
        }
      ],
      "stateMutability": "view",
      "type": "function"
    }
  ],
  "bytecode": {
    "object": "0x6080806040523461001657612cac908161001c8239f35b600080fdfe61020080604052600436101561001457600080fd5b60003560e01c9081630abe0bec1461104f575080635346cc1914610bdb578063c2815c0b14610aa0578063cbe293fa14610a54578063d4fc9fc6146108cd5763ec7d7f7a1461006257600080fd5b346106435760e0366003190112610643576004356001600160a01b03811681036106435761008e611106565b61009661125b565b6001600160401b038060643511610643573660236064350112156106435760643560040135116106435736602460606064356004013502606435010111610643576084356001600160a01b03811690036106435760049060206100f761122f565b94610100611245565b60c052600060606040516101138161111c565b828152818582015261012361164b565b6040820152015260405193848092631f94a27560e31b825260018060a01b03165afa91821561065057600092610889575b50610164606435600401356116f8565b9261017260405194856111fa565b60046064350135808552601f1990610189906116f8565b0160005b81811061087257505060005b6064356004013581106107c7575050604051636eb1769f60e11b81526001600160a01b03608435811660048301529094166024850152602084806044810103816001600160a01b0385165afa93841561065057600094610793575b506101fd61164b565b5061020781611bdd565b6080526040516370a0823160e01b81526001600160a01b03608435811660048301526020908290602490829086165afa90811561065057600091610761575b50604051630dd3126d60e21b81526001600160a01b03608435811660048301526020908290602490829087165afa9081156106505760009161072f575b506080515151604051636eb1769f60e11b81526001600160a01b0360843581166004830152858116602483015290911690602081604481855afa801561065057600060a0526106fc575b5082828103116106e657602492608051519260e084015193604081015160608201519160808101519360018060a01b0360a0830151169560c0830151976020808501519460018060a01b039051166040519c8d80926370a0823160e01b825260018060a01b036084351660048301525afa9a8b156106505760009b6106b2575b5061035e604051806101005261116e565b610100515260a05160206101005101520360406101005101526060610100510152608061010051015260a061010051015260c061010051015260e06101005101526101008051015261012061010051015261014061010051015260a0608051015151936103ca856116f8565b946103d860405196876111fa565b8086526103e7601f19916116f8565b0160005b81811061069b57505060005b60a06080510151805160ff83161015610450579061042a61044b926104236084359160ff851690611754565b5186612a5a565b61043760ff831689611754565b5261044560ff821688611754565b50611bb3565b6103f7565b505093909160805160208101519260408201519160446020608060608401519301519760405192838092636eb1769f60e11b825260018060a01b036084351660048301526000602483015260018060a01b03165afa9081156106505760009161065c575b50906024966020959493926080519360c08501519060e08601519261010087015194610120880151966101606101408a015199015199604080519e8f906104fa82611152565b6101005182528f820152015260608d015260808c015260a08b015260c08a015260e08901526101008801526101208701526101408601526101608501526101808401526040519384809263b3596f0760e01b825260018060a01b0360c05116600483015260018060a01b03165afa91821561065057600092610617575b50604051936105858561111c565b8452602084019283526040840190815260608401918252604051926020845260a08401945160208501525193608060408501528451809152602060c0850195019060005b8181106105f65750505082936105eb9151601f198583030160608601526113d2565b905160808301520390f35b90919560206101208261060c6001948b51611271565b0197019291016105c9565b9091506020813d602011610648575b81610633602093836111fa565b8101031261064357519038610577565b600080fd5b3d9150610626565b6040513d6000823e3d90fd5b9493929190506020853d602011610693575b8161067b602093836111fa565b810103126106435793519293919290919060246104b4565b3d915061066e565b6020906106a6612679565b82828a010152016103eb565b909a506020813d6020116106de575b816106ce602093836111fa565b810103126106435751993861034d565b3d91506106c1565b634e487b7160e01b600052601160045260246000fd5b6020813d602011610727575b81610715602093836111fa565b81010312610643575160a052386102cd565b3d9150610708565b90506020813d602011610759575b8161074a602093836111fa565b81010312610643575138610283565b3d915061073d565b90506020813d60201161078b575b8161077c602093836111fa565b81010312610643575138610246565b3d915061076f565b9093506020813d6020116107bf575b816107af602093836111fa565b81010312610643575192386101f4565b3d91506107a2565b60606064358282020136036023190112610643576040516107e781611137565b6064356060830201602401356001600160a01b03811690036106435760643560608302016024810135825261084b9188916108249060440161121b565b602082015261083b6064606086028135010161121b565b604082015260843590878661177e565b6108558287611754565b526108608186611754565b5060001981146106e657600101610199565b60209061087d61170f565b8282890101520161018d565b9091506020813d6020116108c5575b816108a5602093836111fa565b8101031261064357516001600160a01b0381168103610643579038610154565b3d9150610898565b3461064357602080600319360112610643576108ef6108ea6110f0565b611bdd565b906040519080825282519261018090818385015261098560018060a01b03808751166101a0870152848701516101c087015260408701516101e0870152606087015161020087015260e0608088015197610958610100998a6102208b01526102a08a01906112f6565b9260a08201511661024089015260c0810151610260890152015161019f19878303016102808801526112f6565b948382015160408601526040820151606086015260608201516080860152608082015160a086015260a082015193601f1990818789030160c08801528551908189528089019281808460051b8c01019801936000915b848310610a27578a808b8b8b8b60c082015160e086015260e082015181860152810151610120908186015281015161014090818601528101519061016091828601520151908301520390f35b9091929394988480610a44838f8690600196030187528d516115b6565b9b019301930191949392906109db565b3461064357604036600319011261064357610a6d6110f0565b6024359060ff8216820361064357610a9c91610a88916126f7565b6040519182916020835260208301906115b6565b0390f35b346106435760031960603682011261064357610aba6110f0565b602435906001600160401b039283831161064357610160809184360301126106435760405190810181811085821117610bc557604052610afc8360040161121b565b81526024830135602082015260448301356040820152606483013584811161064357610b2e906004369186010161156f565b60608201526084830135608082015260a483013560a082015260c483013560c0820152610b5d60e4840161121b565b60e082015261010483013561010082015261012483013593841161064357610144610bb193610b95610a9c966004369184010161156f565b6101208401520135610140820152610bab61125b565b91612a5a565b60405191829160208352602083019061131b565b634e487b7160e01b600052604160045260246000fd5b3461064357606036600319011261064357610bf46110f0565b610bfc611106565b90610c0561125b565b610c0d61164b565b50610c1782611bdd565b6040516370a0823160e01b81526001600160a01b0385811660048301529192916020908290602490829088165afa9081156106505760009161101d575b50604051630dd3126d60e21b81526001600160a01b0386811660048301526020908290602490829089165afa90811561065057600091610feb575b50835151604051636eb1769f60e11b81526001600160a01b038881166004830152878116602483015290911690602081604481855afa90811561065057600091610fb9575b5083838103116106e657879386519360e08501519460408101519060608101519260808201519460018060a01b0360a0840151169660c0840151986020808601519560018060a01b0390511660246040519e8f9283916370a0823160e01b835260018060a01b031660048301525afa9b8c156106505760009c610f85575b50610d626040518060e05261116e565b60e05152602060e051015203604060e0510152606060e0510152608060e051015260a060e051015260c060e051015260e08051015261010060e051015261012060e051015261014060e051015260a082019283515191610dc1836116f8565b92610dcf60405194856111fa565b808452610dde601f19916116f8565b0160005b818110610f6e57505060005b855180519060ff831691821015610e325781610e1c8a610e15610e2d969561044595611754565b5188612a5a565b610e268289611754565b5286611754565b610dee565b610e89868589888d6020830151946020604085015195606086015194608087015194604051809b81948293636eb1769f60e11b84526004840190602090939293604083019460018060a01b03809216845216910152565b03916001600160a01b03165afa90811561065057600091610f38575b610a9c975060c08501519060e08601519261010087015194610120880151966101606101408a0151990151996040519b610ede8d611152565b60e0518d5260208d015260408c015260608b015260808a015260a089015260c088015260e08701526101008601526101208501526101408401526101608301526101808201526040519182916020835260208301906113d2565b90506020873d602011610f66575b81610f53602093836111fa565b8101031261064357610a9c965190610ea5565b3d9150610f46565b602090610f79612679565b82828801015201610de2565b909b506020813d602011610fb1575b81610fa1602093836111fa565b8101031261064357519a38610d52565b3d9150610f94565b90506020813d602011610fe3575b81610fd4602093836111fa565b81010312610643575188610cd4565b3d9150610fc7565b90506020813d602011611015575b81611006602093836111fa565b81010312610643575186610c8f565b3d9150610ff9565b90506020813d602011611047575b81611038602093836111fa565b81010312610643575185610c54565b3d915061102b565b346106435760e0366003190112610643576110686110f0565b6001600160a01b039060243582811681036106435760603660431901126106435761109284611137565b60443583811681036106435784526064358381168103610643576020850152608435928316830361064357836110e19360406101209601526110d261122f565b916110db611245565b9361177e565b6110ee6040518092611271565bf35b600435906001600160a01b038216820361064357565b602435906001600160a01b038216820361064357565b608081019081106001600160401b03821117610bc557604052565b606081019081106001600160401b03821117610bc557604052565b6101a081019081106001600160401b03821117610bc557604052565b61016081019081106001600160401b03821117610bc557604052565b61012081019081106001600160401b03821117610bc557604052565b61018081019081106001600160401b03821117610bc557604052565b61010081019081106001600160401b03821117610bc557604052565b6101c081019081106001600160401b03821117610bc557604052565b90601f801991011681019081106001600160401b03821117610bc557604052565b35906001600160a01b038216820361064357565b60a435906001600160a01b038216820361064357565b60c435906001600160a01b038216820361064357565b604435906001600160a01b038216820361064357565b60018060a01b038082511683528060208301511660208401526040820151166040830152606081015160608301526080810151608083015260a081015160a083015260c081015160c083015260e081015160e083015261010080910151910152565b60005b8381106112e65750506000910152565b81810151838201526020016112d6565b9060209161130f815180928185528580860191016112d3565b601f01601f1916010190565b906113b960018060a01b038084511683526020840151602084015260408401516040840152606084015160608401526080840151608084015261136d60a08501516101c08060a08701528501906112f6565b9060c085015160c085015260e085015160e085015261010080860151908501526101209081860151169084015261014080850151908401526101608085015190848303908501526112f6565b9161018080820151908301526101a08091015191015290565b908151916101a080835260018060a01b03908185511690840152602093848101516101c085015260408101516101e08501526060810151610200850152608081015161022085015260a081015161024085015260c08101519161144461016093846102608801526103008701906112f6565b9060e083015116610280860152610100808301516102a087015261147c610120928385015161019f19898303016102c08a01526112f6565b610140809401516102e0880152878601518888015260408601516040880152606086015160608801526080860151608088015260a086015160a088015260c08601519787820360c08901528851908183528083019281808460051b8301019b01936000915b8483106115255750505050505060e085015160e087015280850151908601528084015190850152808301519084015280820151908301526101808091015191015290565b90919293949b84806115448f93600194601f198783030188525161131b565b9e019301930191949392906114e1565b6001600160401b038111610bc557601f01601f191660200190565b81601f820112156106435780359061158682611554565b9261159460405194856111fa565b8284526020838301011161064357816000926020809301838601378301015290565b9061163d60018060a01b0380845116835260208401516020840152604084015160408401526115f460608501516101608060608701528501906112f6565b906080850151608085015260a085015160a085015260c085015160c085015260e08501511660e084015261010080850151908401526101208085015190848303908501526112f6565b916101408091015191015290565b6040519061165882611152565b604051610180836116688361116e565b600083818095528160208201528160408201528160608201528160808201528160a0820152606060c08201528160e0820152816101008181840152816101209160608386015261014094828682015287528160208801528160408801528160608801528160808801528160a0880152606060c08801528160e0880152860152840152820152826101608201520152565b6001600160401b038111610bc55760051b60200190565b6040519061171c8261118a565b816101006000918281528260208201528260408201528260608201528260808201528260a08201528260c08201528260e08201520152565b80518210156117685760209160051b010190565b634e487b7160e01b600052603260045260246000fd5b919390929361178b61170f565b508051602080830151604093840151935163c44b11f760e01b81526001600160a01b039384166004808301829052909990979196928516959094908116939187916024918391165afa94851561065057600095611a41575b5060408051636eb1769f60e11b81526001600160a01b0380861689830190815293166020848101919091529093929091849182910103818b5afa91821561065057600092611a0d575b506040516370a0823160e01b81526001600160a01b03909316868401819052936020846024818c5afa938415610650576000946119d9575b506040516370a0823160e01b815287810186905294602086602481855afa958615610650576000966119a5575b50604051906370a0823160e01b825288820152602081602481855afa968715610650578a9160009861196d575b505160405163b3596f0760e01b8152988901919091529697602090899060249082906001600160a01b03165afa97881561065057600098611936575b50604051986119088a61118a565b8952602089015260408801526060870152608086015260a085015260c084015260e083015261010082015290565b90976020823d602011611965575b81611951602093836111fa565b8101031261196257505196386118fa565b80fd5b3d9150611944565b9150966020823d60201161199d575b81611989602093836111fa565b8101031261196257505195899060246118be565b3d915061197c565b90956020823d6020116119d1575b816119c0602093836111fa565b810103126119625750519438611891565b3d91506119b3565b90936020823d602011611a05575b816119f4602093836111fa565b810103126119625750519238611864565b3d91506119e7565b90916020823d602011611a39575b81611a28602093836111fa565b81010312611962575051903861182c565b3d9150611a1b565b6020959195813d602011611aa6575b81611a5d602093836111fa565b81010312611aa2576040519160208301908382106001600160401b03831117611a8f57506040525181529360206117e3565b634e487b7160e01b815260418952602490fd5b5080fd5b3d9150611a50565b519060ff8216820361064357565b51906001600160a01b038216820361064357565b51906001600160401b038216820361064357565b51906cffffffffffffffffffffffffff8216820361064357565b602081830312610643578051906001600160401b038211610643570181601f82011215610643578051611b3081611554565b92611b3e60405194856111fa565b8184526020828401011161064357611b5c91602080850191016112d3565b90565b60405190611b6c8261116e565b816101406000918281528260208201528260408201526060808201528260808201528260a08201528260c08201528260e08201528261010082015260606101208201520152565b60ff1660ff81146106e65760010190565b6301e133809080600019048211811515166106e6570290565b610120526000610160604051611bf2816111a6565b604051611bfe816111c2565b838152836020820152836040820152836060820152606060808201528360a08201528360c0820152606060e08201528152826020820152826040820152826060820152826080820152606060a08201528260c08201528260e0820152826101008201528261012082015282610140820152015260405163a46fe83b60e01b815260208160048160018060a01b0361012051165afa80156106505760006101605261263d575b506040519063c55dae6360e01b825260208260048160018060a01b0361012051165afa91821561065057600092612601575b506040519063e7dad6bd60e01b825260208260048160018060a01b0361012051165afa918215610650576000926125c5575b506040519163300e6beb60e01b835260208360048160018060a01b0361012051165afa92831561065057600093612591575b506040516355d3f8af60e11b815261012051602090829060049082906001600160a01b03165afa9081156106505760009161255f575b506040519363189bb2f160e01b855260208560048160018060a01b0361012051165afa9485156106505760009561252b575b5060405190634f54cd2d60e11b825260208260048160018060a01b0361012051165afa918215610650576000926124f7575b50604051936349b270c560e11b855260208560048160018060a01b0361012051165afa948515610650576000956124c3575b5060405197637eb7113160e01b895260208960048160018060a01b0361012051165afa9889156106505760009961248f575b50604051926318160ddd60e01b845260208460048160018060a01b0361012051165afa9384156106505760009461245b575b506040519163020a17bd60e61b835260208360048160018060a01b0361012051165afa92831561065057600093612427575b506040519363b9f0baf760e01b85526101008560048160018060a01b0361012051165afa9485156106505760009561235b575b50604051634fd41dad60e11b8152600481018d905261012051602090829060249082906001600160a01b03165afa80156106505760006101405261231f575b506040519b63d955759d60e01b8d5260048d015260208c60248160018060a01b0361012051165afa9b8c156106505760009c6122e3575b506040516395d89b4160e01b8152926000846004816001600160a01b0387165afa938415610650576000946122c6575b5060405163313ce56760e01b81526020816004816001600160a01b0388165afa80156106505760006101e052612292575b506040516306fdde0360e01b8152906000826004816001600160a01b0388165afa9182156106505760009261226d575b506040516341976e0960e01b81526001600160a01b0384811660048301526101205191959160209187916024918391165afa94851561065057600095612239575b506040516101a08181526370a0823160e01b9091526101205181516001600160a01b039182166004909101529051602091602490829085165afa806101c05215610650576000906101c051612201575b61207660405180610180526111c2565b60018060a01b0316610180515260206101805101526101e05160406101805101526060610180510152608061018051015260018060a01b031660a061018051015260c061018051015260e06101805101526120d660ff61016051166116f8565b976120e4604051998a6111fa565b60ff61016051168952601f196120ff60ff61016051166116f8565b0160005b8181106121e957505060005b60ff610160511660ff82161015612151578061213161214c92610120516126f7565b61213e60ff83168d611754565b5261044560ff82168c611754565b61210f565b5091939597909294969861217b6001600160401b03612174816101405116611bc4565b9216611bc4565b926cffffffffffffffffffffffffff60808160a08901511697015116976040519a6121a58c6111a6565b610180518c5260208c015260408b015260608a0152608089015260a088015260c087015260e086015261010085015261012084015261014083015261016082015290565b808b602080936121f7611b5f565b9201015201612103565b905060203d602011612232575b61221b816101a0516111fa565b60206101a051809281010312610643575190612066565b503d61220e565b9094506020813d602011612265575b81612255602093836111fa565b8101031261064357519338612016565b3d9150612248565b61228b9192503d806000833e61228381836111fa565b810190611afe565b9038611fd5565b6020813d6020116122be575b816122ab602093836111fa565b8101031261064357516101e05238611fa5565b3d915061229e565b6122dc9194503d806000833e61228381836111fa565b9238611f74565b909b506020813d602011612317575b816122ff602093836111fa565b810103126106435761231090611ad0565b9a38611f44565b3d91506122f2565b6020813d602011612353575b81612338602093836111fa565b810103126106435761234990611ad0565b6101405238611f0d565b3d915061232b565b909450610100813d6101001161241f575b8161237a61010093836111fa565b81010312610643576040519061238f826111c2565b61239881611ad0565b82526123a660208201611ad0565b60208301526123b760408201611ad0565b60408301526123c860608201611ad0565b60608301526123d960808201611ae4565b60808301526123ea60a08201611ae4565b60a083015260c081015164ffffffffff811681036106435760c08301526124139060e001611aae565b60e08201529338611ece565b3d915061236c565b9092506020813d602011612453575b81612443602093836111fa565b8101031261064357519138611e9b565b3d9150612436565b9093506020813d602011612487575b81612477602093836111fa565b8101031261064357519238611e69565b3d915061246a565b9098506020813d6020116124bb575b816124ab602093836111fa565b8101031261064357519738611e37565b3d915061249e565b9094506020813d6020116124ef575b816124df602093836111fa565b8101031261064357519338611e05565b3d91506124d2565b9091506020813d602011612523575b81612513602093836111fa565b8101031261064357519038611dd3565b3d9150612506565b9094506020813d602011612557575b81612547602093836111fa565b8101031261064357519338611da1565b3d915061253a565b90506020813d602011612589575b8161257a602093836111fa565b81010312610643575138611d6f565b3d915061256d565b9092506020813d6020116125bd575b816125ad602093836111fa565b8101031261064357519138611d39565b3d91506125a0565b9091506020813d6020116125f9575b816125e1602093836111fa565b81010312610643576125f290611abc565b9038611d07565b3d91506125d4565b9091506020813d602011612635575b8161261d602093836111fa565b810103126106435761262e90611abc565b9038611cd5565b3d9150612610565b6020813d602011612671575b81612656602093836111fa565b810103126106435761266790611aae565b6101605238611ca3565b3d9150612649565b60405190612686826111de565b816101a0600091828152826020820152826040820152826060820152826080820152606060a08201528260c08201528260e08201528261010082015282610120820152826101408201526060610160820152826101808201520152565b51906001600160801b038216820361064357565b90612700611b5f565b506040805163c8c7fe6b60e01b815260ff9092166004830152916001600160a01b0390811691906101008083602481875afa928315612903576000936129a1575b506020928381019383855116966001600160401b039060048260808601511691848b82519384809263313ce56760e01b82525afa91821561299657600092612966575b506004928460a0880151169460c0880151169560008a8c51168451968780926306fdde0360e01b82525afa9485156128d957908c9796959493929160009561294b575b50828901818c82511660248651809c81936341976e0960e01b835260048301525afa98891561294057908c9160009a61290e575b5051169860e001516001600160801b03169a808d51169c8451809e81906395d89b4160e01b82525a92600491600094fa9d8e156129035760009e6128e4575b505184516359e017bd60e01b8152911660048201529c81908e90815a91602492fa9c8d156128d95760009d6128aa575b5082519d8e6128788161116e565b528d01528b015260608a0152608089015260a088015260c087015260e086015284015261012083015261014082015290565b909c8d82813d83116128d2575b6128c181836111fa565b810103126119625750519b3861286a565b503d6128b7565b83513d6000823e3d90fd5b6128fb908493929f3d8091833e61228381836111fa565b9d909161283a565b85513d6000823e3d90fd5b9150988282813d8311612939575b61292681836111fa565b8101031261196257508b905198386127fb565b503d61291c565b84513d6000823e3d90fd5b61295f91953d8091833e61228381836111fa565b93386127c7565b90918582813d831161298f575b61297d81836111fa565b81010312611962575051906004612784565b503d612973565b50513d6000823e3d90fd5b90928382813d8311612a53575b6129b881836111fa565b810103126119625750612a4760e08651926129d2846111c2565b6129db81611aae565b84526129e960208201611abc565b60208501526129f9888201611abc565b88850152612a0960608201611ad0565b6060850152612a1a60808201611ad0565b6080850152612a2b60a08201611ad0565b60a0850152612a3c60c08201611ad0565b60c0850152016126e3565b60e08201529138612741565b503d6129ae565b9190612a64612679565b508051604051636eb1769f60e11b81526001600160a01b038481166004830152948516602482018190529490911693602082604481885afa91821561065057600092612c41575b508251604051632e12a4f760e11b81526001600160a01b038681166004830152909116602482015290602090829060449082905afa90811561065057600091612c07575b506020830151604080850151608086015160a0870151606088015160c089015160e08a01516101008b01516101208c01516101408d01519c5198516370a0823160e01b81526001600160a01b039e8f1660048201529d909b919a928116999398959794958e918291165a92602491602094fa9c8d156106505760009d612bd3575b50604051809e612b7f826111de565b8152602001526001600160801b031660408d015260608c015260808b015260a08a015260c089015260e08801526101008701526101208601526101408501526101608401526101808301526101a082015290565b909c6020823d602011612bff575b81612bee602093836111fa565b810103126119625750519b38612b70565b3d9150612be1565b906020823d602011612c39575b81612c21602093836111fa565b810103126119625750612c33906126e3565b38612aef565b3d9150612c14565b90916020823d602011612c6e575b81612c5c602093836111fa565b81010312611962575051906020612aab565b3d9150612c4f56fea2646970667358221220c6be69eb7ec27c26eaf24f470fffac8cc64610bb460378741cb6a05b4fd199b164736f6c63430008100033",
    "linkReferences": {}
  },
  "methodIdentifiers": {
    "aTokenMetadata(address,address,(address,address,address),address,address)": "0abe0bec",
    "collateralInfo(address,uint8)": "cbe293fa",
    "collateralInfoWithAccount(address,(address,uint256,uint256,string,uint256,uint256,uint256,address,uint256,string,uint256),address)": "c2815c0b",
    "getMigratorData(address,address,address,(address,address,address)[],address,address,address)": "ec7d7f7a",
    "query(address)": "d4fc9fc6",
    "queryWithAccount(address,address,address)": "5346cc19"
  },
  "id": 0
}