{
  "abi": [
    {
      "inputs": [
        {
          "internalType": "contract LendingPool",
          "name": "pool",
          "type": "address"
        },
        {
          "internalType": "contract AavePriceOracle",
          "name": "priceOracle",
          "type": "address"
        },
        {
          "components": [
            {
              "internalType": "contract AToken",
              "name": "aToken",
              "type": "address"
            },
            {
              "internalType": "contract DebtToken",
              "name": "stableDebtToken",
              "type": "address"
            },
            {
              "internalType": "contract DebtToken",
              "name": "variableDebtToken",
              "type": "address"
            }
          ],
          "internalType": "struct AaveV2Query.ATokenRequest",
          "name": "aTokenRequest",
          "type": "tuple"
        },
        {
          "internalType": "address payable",
          "name": "account",
          "type": "address"
        },
        {
          "internalType": "address payable",
          "name": "spender",
          "type": "address"
        }
      ],
      "name": "aTokenMetadata",
      "outputs": [
        {
          "components": [
            {
              "internalType": "address",
              "name": "aToken",
              "type": "address"
            },
            {
              "internalType": "address",
              "name": "stableDebtToken",
              "type": "address"
            },
            {
              "internalType": "address",
              "name": "variableDebtToken",
              "type": "address"
            },
            {
              "internalType": "uint256",
              "name": "allowance",
              "type": "uint256"
            },
            {
              "internalType": "uint256",
              "name": "balance",
              "type": "uint256"
            },
            {
              "internalType": "uint256",
              "name": "stableDebtBalance",
              "type": "uint256"
            },
            {
              "internalType": "uint256",
              "name": "variableDebtBalance",
              "type": "uint256"
            },
            {
              "internalType": "uint256",
              "name": "configuration",
              "type": "uint256"
            },
            {
              "internalType": "uint256",
              "name": "priceInETH",
              "type": "uint256"
            }
          ],
          "internalType": "struct AaveV2Query.ATokenMetadata",
          "name": "",
          "type": "tuple"
        }
      ],
      "stateMutability": "view",
      "type": "function"
    },
    {
      "inputs": [
        {
          "internalType": "contract Comet",
          "name": "comet",
          "type": "address"
        },
        {
          "internalType": "uint8",
          "name": "index",
          "type": "uint8"
        }
      ],
      "name": "collateralInfo",
      "outputs": [
        {
          "components": [
            {
              "internalType": "address",
              "name": "collateralAsset",
              "type": "address"
            },
            {
              "internalType": "uint256",
              "name": "collateralFactor",
              "type": "uint256"
            },
            {
              "internalType": "uint256",
              "name": "decimals",
              "type": "uint256"
            },
            {
              "internalType": "string",
              "name": "name",
              "type": "string"
            },
            {
              "internalType": "uint256",
              "name": "liquidateCollateralFactor",
              "type": "uint256"
            },
            {
              "internalType": "uint256",
              "name": "liquidationFactor",
              "type": "uint256"
            },
            {
              "internalType": "uint256",
              "name": "price",
              "type": "uint256"
            },
            {
              "internalType": "address",
              "name": "priceFeed",
              "type": "address"
            },
            {
              "internalType": "uint256",
              "name": "supplyCap",
              "type": "uint256"
            },
            {
              "internalType": "string",
              "name": "symbol",
              "type": "string"
            },
            {
              "internalType": "uint256",
              "name": "totalSupply",
              "type": "uint256"
            }
          ],
          "internalType": "struct CometQuery.CollateralAsset",
          "name": "",
          "type": "tuple"
        }
      ],
      "stateMutability": "view",
      "type": "function"
    },
    {
      "inputs": [
        {
          "internalType": "contract Comet",
          "name": "comet",
          "type": "address"
        },
        {
          "components": [
            {
              "internalType": "address",
              "name": "collateralAsset",
              "type": "address"
            },
            {
              "internalType": "uint256",
              "name": "collateralFactor",
              "type": "uint256"
            },
            {
              "internalType": "uint256",
              "name": "decimals",
              "type": "uint256"
            },
            {
              "internalType": "string",
              "name": "name",
              "type": "string"
            },
            {
              "internalType": "uint256",
              "name": "liquidateCollateralFactor",
              "type": "uint256"
            },
            {
              "internalType": "uint256",
              "name": "liquidationFactor",
              "type": "uint256"
            },
            {
              "internalType": "uint256",
              "name": "price",
              "type": "uint256"
            },
            {
              "internalType": "address",
              "name": "priceFeed",
              "type": "address"
            },
            {
              "internalType": "uint256",
              "name": "supplyCap",
              "type": "uint256"
            },
            {
              "internalType": "string",
              "name": "symbol",
              "type": "string"
            },
            {
              "internalType": "uint256",
              "name": "totalSupply",
              "type": "uint256"
            }
          ],
          "internalType": "struct CometQuery.CollateralAsset",
          "name": "asset",
          "type": "tuple"
        },
        {
          "internalType": "address payable",
          "name": "account",
          "type": "address"
        }
      ],
      "name": "collateralInfoWithAccount",
      "outputs": [
        {
          "components": [
            {
              "internalType": "address",
              "name": "collateralAsset",
              "type": "address"
            },
            {
              "internalType": "uint256",
              "name": "allowance",
              "type": "uint256"
            },
            {
              "internalType": "uint256",
              "name": "balance",
              "type": "uint256"
            },
            {
              "internalType": "uint256",
              "name": "collateralFactor",
              "type": "uint256"
            },
            {
              "internalType": "uint256",
              "name": "decimals",
              "type": "uint256"
            },
            {
              "internalType": "string",
              "name": "name",
              "type": "string"
            },
            {
              "internalType": "uint256",
              "name": "liquidateCollateralFactor",
              "type": "uint256"
            },
            {
              "internalType": "uint256",
              "name": "liquidationFactor",
              "type": "uint256"
            },
            {
              "internalType": "uint256",
              "name": "price",
              "type": "uint256"
            },
            {
              "internalType": "address",
              "name": "priceFeed",
              "type": "address"
            },
            {
              "internalType": "uint256",
              "name": "supplyCap",
              "type": "uint256"
            },
            {
              "internalType": "string",
              "name": "symbol",
              "type": "string"
            },
            {
              "internalType": "uint256",
              "name": "totalSupply",
              "type": "uint256"
            },
            {
              "internalType": "uint256",
              "name": "walletBalance",
              "type": "uint256"
            }
          ],
          "internalType": "struct CometQuery.CollateralAssetWithAccountState",
          "name": "",
          "type": "tuple"
        }
      ],
      "stateMutability": "view",
      "type": "function"
    },
    {
      "inputs": [
        {
          "internalType": "contract LendingPoolAddressesProvider",
          "name": "provider",
          "type": "address"
        },
        {
          "internalType": "contract LendingPool",
          "name": "pool",
          "type": "address"
        },
        {
          "internalType": "contract Comet",
          "name": "comet",
          "type": "address"
        },
        {
          "components": [
            {
              "internalType": "contract AToken",
              "name": "aToken",
              "type": "address"
            },
            {
              "internalType": "contract DebtToken",
              "name": "stableDebtToken",
              "type": "address"
            },
            {
              "internalType": "contract DebtToken",
              "name": "variableDebtToken",
              "type": "address"
            }
          ],
          "internalType": "struct AaveV2Query.ATokenRequest[]",
          "name": "aTokens",
          "type": "tuple[]"
        },
        {
          "internalType": "address payable",
          "name": "account",
          "type": "address"
        },
        {
          "internalType": "address payable",
          "name": "spender",
          "type": "address"
        },
        {
          "internalType": "address",
          "name": "usdcAddress",
          "type": "address"
        }
      ],
      "name": "getMigratorData",
      "outputs": [
        {
          "components": [
            {
              "internalType": "uint256",
              "name": "migratorEnabled",
              "type": "uint256"
            },
            {
              "components": [
                {
                  "internalType": "address",
                  "name": "aToken",
                  "type": "address"
                },
                {
                  "internalType": "address",
                  "name": "stableDebtToken",
                  "type": "address"
                },
                {
                  "internalType": "address",
                  "name": "variableDebtToken",
                  "type": "address"
                },
                {
                  "internalType": "uint256",
                  "name": "allowance",
                  "type": "uint256"
                },
                {
                  "internalType": "uint256",
                  "name": "balance",
                  "type": "uint256"
                },
                {
                  "internalType": "uint256",
                  "name": "stableDebtBalance",
                  "type": "uint256"
                },
                {
                  "internalType": "uint256",
                  "name": "variableDebtBalance",
                  "type": "uint256"
                },
                {
                  "internalType": "uint256",
                  "name": "configuration",
                  "type": "uint256"
                },
                {
                  "internalType": "uint256",
                  "name": "priceInETH",
                  "type": "uint256"
                }
              ],
              "internalType": "struct AaveV2Query.ATokenMetadata[]",
              "name": "tokens",
              "type": "tuple[]"
            },
            {
              "components": [
                {
                  "components": [
                    {
                      "internalType": "address",
                      "name": "baseAsset",
                      "type": "address"
                    },
                    {
                      "internalType": "uint256",
                      "name": "allowance",
                      "type": "uint256"
                    },
                    {
                      "internalType": "uint256",
                      "name": "balance",
                      "type": "uint256"
                    },
                    {
                      "internalType": "uint256",
                      "name": "balanceOfComet",
                      "type": "uint256"
                    },
                    {
                      "internalType": "uint256",
                      "name": "decimals",
                      "type": "uint256"
                    },
                    {
                      "internalType": "uint256",
                      "name": "minBorrow",
                      "type": "uint256"
                    },
                    {
                      "internalType": "string",
                      "name": "name",
                      "type": "string"
                    },
                    {
                      "internalType": "address",
                      "name": "priceFeed",
                      "type": "address"
                    },
                    {
                      "internalType": "uint256",
                      "name": "price",
                      "type": "uint256"
                    },
                    {
                      "internalType": "string",
                      "name": "symbol",
                      "type": "string"
                    },
                    {
                      "internalType": "uint256",
                      "name": "walletBalance",
                      "type": "uint256"
                    }
                  ],
                  "internalType": "struct CometQuery.BaseAssetWithAccountState",
                  "name": "baseAsset",
                  "type": "tuple"
                },
                {
                  "internalType": "uint256",
                  "name": "baseMinForRewards",
                  "type": "uint256"
                },
                {
                  "internalType": "uint256",
                  "name": "baseTrackingBorrowSpeed",
                  "type": "uint256"
                },
                {
                  "internalType": "uint256",
                  "name": "baseTrackingSupplySpeed",
                  "type": "uint256"
                },
                {
                  "internalType": "uint256",
                  "name": "borrowAPR",
                  "type": "uint256"
                },
                {
                  "internalType": "uint256",
                  "name": "bulkerAllowance",
                  "type": "uint256"
                },
                {
                  "components": [
                    {
                      "internalType": "address",
                      "name": "collateralAsset",
                      "type": "address"
                    },
                    {
                      "internalType": "uint256",
                      "name": "allowance",
                      "type": "uint256"
                    },
                    {
                      "internalType": "uint256",
                      "name": "balance",
                      "type": "uint256"
                    },
                    {
                      "internalType": "uint256",
                      "name": "collateralFactor",
                      "type": "uint256"
                    },
                    {
                      "internalType": "uint256",
                      "name": "decimals",
                      "type": "uint256"
                    },
                    {
                      "internalType": "string",
                      "name": "name",
                      "type": "string"
                    },
                    {
                      "internalType": "uint256",
                      "name": "liquidateCollateralFactor",
                      "type": "uint256"
                    },
                    {
                      "internalType": "uint256",
                      "name": "liquidationFactor",
                      "type": "uint256"
                    },
                    {
                      "internalType": "uint256",
                      "name": "price",
                      "type": "uint256"
                    },
                    {
                      "internalType": "address",
                      "name": "priceFeed",
                      "type": "address"
                    },
                    {
                      "internalType": "uint256",
                      "name": "supplyCap",
                      "type": "uint256"
                    },
                    {
                      "internalType": "string",
                      "name": "symbol",
                      "type": "string"
                    },
                    {
                      "internalType": "uint256",
                      "name": "totalSupply",
                      "type": "uint256"
                    },
                    {
                      "internalType": "uint256",
                      "name": "walletBalance",
                      "type": "uint256"
                    }
                  ],
                  "internalType": "struct CometQuery.CollateralAssetWithAccountState[]",
                  "name": "collateralAssets",
                  "type": "tuple[]"
                },
                {
                  "internalType": "uint256",
                  "name": "earnAPR",
                  "type": "uint256"
                },
                {
                  "internalType": "uint256",
                  "name": "nativeAssetWalletBalance",
                  "type": "uint256"
                },
                {
                  "internalType": "uint256",
                  "name": "totalBorrow",
                  "type": "uint256"
                },
                {
                  "internalType": "uint256",
                  "name": "totalBorrowPrincipal",
                  "type": "uint256"
                },
                {
                  "internalType": "uint256",
                  "name": "totalSupply",
                  "type": "uint256"
                },
                {
                  "internalType": "uint256",
                  "name": "totalSupplyPrincipal",
                  "type": "uint256"
                },
                {
                  "internalType": "uint256",
                  "name": "trackingIndexScale",
                  "type": "uint256"
                }
              ],
              "internalType": "struct CometQuery.CometStateWithAccountState",
              "name": "cometState",
              "type": "tuple"
            },
            {
              "internalType": "uint256",
              "name": "usdcPriceInETH",
              "type": "uint256"
            }
          ],
          "internalType": "struct AaveV2Query.QueryResponse",
          "name": "",
          "type": "tuple"
        }
      ],
      "stateMutability": "view",
      "type": "function"
    },
    {
      "inputs": [
        {
          "internalType": "contract Comet",
          "name": "comet",
          "type": "address"
        }
      ],
      "name": "query",
      "outputs": [
        {
          "components": [
            {
              "components": [
                {
                  "internalType": "address",
                  "name": "baseAsset",
                  "type": "address"
                },
                {
                  "internalType": "uint256",
                  "name": "balanceOfComet",
                  "type": "uint256"
                },
                {
                  "internalType": "uint256",
                  "name": "decimals",
                  "type": "uint256"
                },
                {
                  "internalType": "uint256",
                  "name": "minBorrow",
                  "type": "uint256"
                },
                {
                  "internalType": "string",
                  "name": "name",
                  "type": "string"
                },
                {
                  "internalType": "address",
                  "name": "priceFeed",
                  "type": "address"
                },
                {
                  "internalType": "uint256",
                  "name": "price",
                  "type": "uint256"
                },
                {
                  "internalType": "string",
                  "name": "symbol",
                  "type": "string"
                }
              ],
              "internalType": "struct CometQuery.BaseAsset",
              "name": "baseAsset",
              "type": "tuple"
            },
            {
              "internalType": "uint256",
              "name": "baseMinForRewards",
              "type": "uint256"
            },
            {
              "internalType": "uint256",
              "name": "baseTrackingBorrowSpeed",
              "type": "uint256"
            },
            {
              "internalType": "uint256",
              "name": "baseTrackingSupplySpeed",
              "type": "uint256"
            },
            {
              "internalType": "uint256",
              "name": "borrowAPR",
              "type": "uint256"
            },
            {
              "components": [
                {
                  "internalType": "address",
                  "name": "collateralAsset",
                  "type": "address"
                },
                {
                  "internalType": "uint256",
                  "name": "collateralFactor",
                  "type": "uint256"
                },
                {
                  "internalType": "uint256",
                  "name": "decimals",
                  "type": "uint256"
                },
                {
                  "internalType": "string",
                  "name": "name",
                  "type": "string"
                },
                {
                  "internalType": "uint256",
                  "name": "liquidateCollateralFactor",
                  "type": "uint256"
                },
                {
                  "internalType": "uint256",
                  "name": "liquidationFactor",
                  "type": "uint256"
                },
                {
                  "internalType": "uint256",
                  "name": "price",
                  "type": "uint256"
                },
                {
                  "internalType": "address",
                  "name": "priceFeed",
                  "type": "address"
                },
                {
                  "internalType": "uint256",
                  "name": "supplyCap",
                  "type": "uint256"
                },
                {
                  "internalType": "string",
                  "name": "symbol",
                  "type": "string"
                },
                {
                  "internalType": "uint256",
                  "name": "totalSupply",
                  "type": "uint256"
                }
              ],
              "internalType": "struct CometQuery.CollateralAsset[]",
              "name": "collateralAssets",
              "type": "tuple[]"
            },
            {
              "internalType": "uint256",
              "name": "earnAPR",
              "type": "uint256"
            },
            {
              "internalType": "uint256",
              "name": "totalBorrow",
              "type": "uint256"
            },
            {
              "internalType": "uint256",
              "name": "totalBorrowPrincipal",
              "type": "uint256"
            },
            {
              "internalType": "uint256",
              "name": "totalSupply",
              "type": "uint256"
            },
            {
              "internalType": "uint256",
              "name": "totalSupplyPrincipal",
              "type": "uint256"
            },
            {
              "internalType": "uint256",
              "name": "trackingIndexScale",
              "type": "uint256"
            }
          ],
          "internalType": "struct CometQuery.CometState",
          "name": "",
          "type": "tuple"
        }
      ],
      "stateMutability": "view",
      "type": "function"
    },
    {
      "inputs": [
        {
          "internalType": "contract Comet",
          "name": "comet",
          "type": "address"
        },
        {
          "internalType": "address payable",
          "name": "account",
          "type": "address"
        },
        {
          "internalType": "address payable",
          "name": "bulker",
          "type": "address"
        }
      ],
      "name": "queryWithAccount",
      "outputs": [
        {
          "components": [
            {
              "components": [
                {
                  "internalType": "address",
                  "name": "baseAsset",
                  "type": "address"
                },
                {
                  "internalType": "uint256",
                  "name": "allowance",
                  "type": "uint256"
                },
                {
                  "internalType": "uint256",
                  "name": "balance",
                  "type": "uint256"
                },
                {
                  "internalType": "uint256",
                  "name": "balanceOfComet",
                  "type": "uint256"
                },
                {
                  "internalType": "uint256",
                  "name": "decimals",
                  "type": "uint256"
                },
                {
                  "internalType": "uint256",
                  "name": "minBorrow",
                  "type": "uint256"
                },
                {
                  "internalType": "string",
                  "name": "name",
                  "type": "string"
                },
                {
                  "internalType": "address",
                  "name": "priceFeed",
                  "type": "address"
                },
                {
                  "internalType": "uint256",
                  "name": "price",
                  "type": "uint256"
                },
                {
                  "internalType": "string",
                  "name": "symbol",
                  "type": "string"
                },
                {
                  "internalType": "uint256",
                  "name": "walletBalance",
                  "type": "uint256"
                }
              ],
              "internalType": "struct CometQuery.BaseAssetWithAccountState",
              "name": "baseAsset",
              "type": "tuple"
            },
            {
              "internalType": "uint256",
              "name": "baseMinForRewards",
              "type": "uint256"
            },
            {
              "internalType": "uint256",
              "name": "baseTrackingBorrowSpeed",
              "type": "uint256"
            },
            {
              "internalType": "uint256",
              "name": "baseTrackingSupplySpeed",
              "type": "uint256"
            },
            {
              "internalType": "uint256",
              "name": "borrowAPR",
              "type": "uint256"
            },
            {
              "internalType": "uint256",
              "name": "bulkerAllowance",
              "type": "uint256"
            },
            {
              "components": [
                {
                  "internalType": "address",
                  "name": "collateralAsset",
                  "type": "address"
                },
                {
                  "internalType": "uint256",
                  "name": "allowance",
                  "type": "uint256"
                },
                {
                  "internalType": "uint256",
                  "name": "balance",
                  "type": "uint256"
                },
                {
                  "internalType": "uint256",
                  "name": "collateralFactor",
                  "type": "uint256"
                },
                {
                  "internalType": "uint256",
                  "name": "decimals",
                  "type": "uint256"
                },
                {
                  "internalType": "string",
                  "name": "name",
                  "type": "string"
                },
                {
                  "internalType": "uint256",
                  "name": "liquidateCollateralFactor",
                  "type": "uint256"
                },
                {
                  "internalType": "uint256",
                  "name": "liquidationFactor",
                  "type": "uint256"
                },
                {
                  "internalType": "uint256",
                  "name": "price",
                  "type": "uint256"
                },
                {
                  "internalType": "address",
                  "name": "priceFeed",
                  "type": "address"
                },
                {
                  "internalType": "uint256",
                  "name": "supplyCap",
                  "type": "uint256"
                },
                {
                  "internalType": "string",
                  "name": "symbol",
                  "type": "string"
                },
                {
                  "internalType": "uint256",
                  "name": "totalSupply",
                  "type": "uint256"
                },
                {
                  "internalType": "uint256",
                  "name": "walletBalance",
                  "type": "uint256"
                }
              ],
              "internalType": "struct CometQuery.CollateralAssetWithAccountState[]",
              "name": "collateralAssets",
              "type": "tuple[]"
            },
            {
              "internalType": "uint256",
              "name": "earnAPR",
              "type": "uint256"
            },
            {
              "internalType": "uint256",
              "name": "nativeAssetWalletBalance",
              "type": "uint256"
            },
            {
              "internalType": "uint256",
              "name": "totalBorrow",
              "type": "uint256"
            },
            {
              "internalType": "uint256",
              "name": "totalBorrowPrincipal",
              "type": "uint256"
            },
            {
              "internalType": "uint256",
              "name": "totalSupply",
              "type": "uint256"
            },
            {
              "internalType": "uint256",
              "name": "totalSupplyPrincipal",
              "type": "uint256"
            },
            {
              "internalType": "uint256",
              "name": "trackingIndexScale",
              "type": "uint256"
            }
          ],
          "internalType": "struct CometQuery.CometStateWithAccountState",
          "name": "",
          "type": "tuple"
        }
      ],
      "stateMutability": "view",
      "type": "function"
    }
  ],
  "bytecode": {
    "object": "0x6080806040523461001657612c95908161001c8239f35b600080fdfe6101c080604052600436101561001457600080fd5b60003560e01c9081630abe0bec14611045575080635346cc1914610bcd578063c2815c0b14610a92578063cbe293fa14610a46578063d4fc9fc6146108bf5763ec7d7f7a1461006257600080fd5b346106445760e0366003190112610644576004356001600160a01b03811690819003610644576100906110fc565b610098611235565b916001600160401b038060643511610644573660236064350112156106445760643560040135116106445736602460606064356004013502606435010111610644576084356001600160a01b0381169003610644576004926100f8611209565b602061010261121f565b936000606060405161011381611112565b8281528185820152610123611630565b6040820152015260405196878092631f94a27560e31b82525afa9485156106515760009561087b575b5061015c606435600401356116e4565b9361016a60405195866111d4565b60046064350135808652601f1990610181906116e4565b0160005b81811061086457505060005b6064356004013581106107b9575050604051636eb1769f60e11b81526001600160a01b03608435811660048301529091166024820152602081806044810103816001600160a01b0386165afa90811561065157600091610787575b506101f5611630565b506101ff82611bc9565b60c0526040516370a0823160e01b81526001600160a01b03608435811660048301526020908290602490829087165afa90811561065157600091610755575b50604051630dd3126d60e21b81526001600160a01b03608435811660048301526020908290602490829088165afa90811561065157600091610723575b5060c0515151604051636eb1769f60e11b81526001600160a01b0360843581166004830152868116602483015290911690602081604481855afa80156106515760006080526106f0575b5082828103116106da5760249260c051519260e084015193604081015160608201519160808101519360018060a01b0360a0830151169560c0830151976020808501519460018060a01b039051166040519c8d80926370a0823160e01b825260018060a01b036084351660048301525afa9a8b156106515760009b6106a6575b506103556040518060a052611164565b60a05152608051602060a051015203604060a0510152606060a0510152608060a051015260a08051015260c060a051015260e060a051015261010060a051015261012060a051015261014060a051015260a060c051015151936103b7856116e4565b946103c560405196876111d4565b8086526103d4601f19916116e4565b0160005b81811061068f57505060005b60a060c0510151805160ff8316101561043d5790610417610438926104106084359160ff851690611740565b5187612a43565b61042460ff831689611740565b5261043260ff821688611740565b50611b9f565b6103e4565b50508585858560c0519260208401519360408101519260446020608060608501519401519260405192838092636eb1769f60e11b825260018060a01b036084351660048301526000602483015260018060a01b03165afa9081156106515760009161065d575b5060c0519360c0850151600160a01b6001900360843516319160e08701519361010088015195610120890151976101408a01519961016001519a604051809e6104eb82611148565b60a051825260208201526040015260608d015260808c015260a08b015260c08a015260e08901526101008801526101208701526101408601526101608501526101808401526101a08301526040518093819263b3596f0760e01b8352600160a01b60019003166004830152600160a01b60019003165a92602491602094fa91821561065157600092610618575b506040519361058685611112565b8452602084019283526040840190815260608401918252604051926020845260a08401945160208501525193608060408501528451809152602060c0850195019060005b8181106105f75750505082936105ec9151601f198583030160608601526113ac565b905160808301520390f35b90919560206101208261060d6001948b5161124b565b0197019291016105ca565b9091506020813d602011610649575b81610634602093836111d4565b8101031261064457519084610578565b600080fd5b3d9150610627565b6040513d6000823e3d90fd5b90506020813d602011610687575b81610678602093836111d4565b8101031261064457518a6104a3565b3d915061066b565b60209061069a612662565b82828a010152016103d8565b909a506020813d6020116106d2575b816106c2602093836111d4565b8101031261064457519938610345565b3d91506106b5565b634e487b7160e01b600052601160045260246000fd5b6020813d60201161071b575b81610709602093836111d4565b810103126106445751608052386102c5565b3d91506106fc565b90506020813d60201161074d575b8161073e602093836111d4565b8101031261064457513861027b565b3d9150610731565b90506020813d60201161077f575b81610770602093836111d4565b8101031261064457513861023e565b3d9150610763565b90506020813d6020116107b1575b816107a2602093836111d4565b810103126106445751386101ec565b3d9150610795565b60606064358282020136036023190112610644576040516107d98161112d565b6064356060830201602401356001600160a01b03811690036106445760643560608302016024810135825261083d918591610816906044016111f5565b602082015261082d606460608602813501016111f5565b6040820152608435908a8661176a565b6108478288611740565b526108528187611740565b5060001981146106da57600101610191565b60209061086f6116fb565b82828a01015201610185565b9094506020813d6020116108b7575b81610897602093836111d4565b8101031261064457516001600160a01b038116810361064457933861014c565b3d915061088a565b3461064457602080600319360112610644576108e16108dc6110e6565b611bc9565b906040519080825282519261018090818385015261097760018060a01b03808751166101a0870152848701516101c087015260408701516101e0870152606087015161020087015260e060808801519761094a610100998a6102208b01526102a08a01906112d0565b9260a08201511661024089015260c0810151610260890152015161019f19878303016102808801526112d0565b948382015160408601526040820151606086015260608201516080860152608082015160a086015260a082015193601f1990818789030160c08801528551908189528089019281808460051b8c01019801936000915b848310610a19578a808b8b8b8b60c082015160e086015260e082015181860152810151610120908186015281015161014090818601528101519061016091828601520151908301520390f35b9091929394988480610a36838f8690600196030187528d5161159b565b9b019301930191949392906109cd565b3461064457604036600319011261064457610a5f6110e6565b6024359060ff8216820361064457610a8e91610a7a916126e0565b60405191829160208352602083019061159b565b0390f35b346106445760031960603682011261064457610aac6110e6565b602435906001600160401b039283831161064457610160809184360301126106445760405190810181811085821117610bb757604052610aee836004016111f5565b81526024830135602082015260448301356040820152606483013584811161064457610b209060043691860101611554565b60608201526084830135608082015260a483013560a082015260c483013560c0820152610b4f60e484016111f5565b60e082015261010483013561010082015261012483013593841161064457610144610ba393610b87610a8e9660043691840101611554565b6101208401520135610140820152610b9d611235565b91612a43565b6040519182916020835260208301906112f5565b634e487b7160e01b600052604160045260246000fd5b3461064457606036600319011261064457610be66110e6565b610bee6110fc565b90610bf7611235565b610bff611630565b50610c0982611bc9565b6040516370a0823160e01b81526001600160a01b0385811660048301529193909290916020908490602490829086165afa92831561065157600093611011575b50604051630dd3126d60e21b81526001600160a01b0386811660048301529093906020908590602490829087165afa93841561065157600094610fdd575b50845151604051636eb1769f60e11b81526001600160a01b03888116600483015285811660248301529091169490602081604481895afa90811561065157600091610fab575b5082828103116106da57879287519260e084015193604081015160608201519160808101519360018060a01b0360a0830151169560c0830151976020808501519460018060a01b039051169b6024604051809e81936370a0823160e01b835260018060a01b031660048301525afa9a8b156106515760009b610f77575b5060206040519e8f90610d5c82611164565b815201520360408c015260608b015260808a015260a089015260c088015260e087015261010086015261012085015261014084015260a08401515192610da1846116e4565b93610daf60405195866111d4565b808552610dbe601f19916116e4565b0160005b818110610f6057505060005b60a0860151805160ff83161015610e155790610df588610410610e109460ff851690611740565b610e0260ff831688611740565b5261043260ff821687611740565b610dce565b610e6d8387898b888a602084015194604085015193602060608701519460808801519460405180809d8194636eb1769f60e11b8352876004840190602090939293604083019460018060a01b03809216845216910152565b03916001600160a01b03165afa91821561065157600092610f2a575b610a8e995060c08701519160018060a01b0316319260e088015194610100890151966101208a0151986101606101408c01519b01519b60206040519e8f90610ed082611148565b8152015260408d015260608c015260808b015260a08a015260c089015260e08801526101008701526101208601526101408501526101608401526101808301526101a08201526040519182916020835260208301906113ac565b91506020893d602011610f58575b81610f45602093836111d4565b8101031261064457610a8e985191610e89565b3d9150610f38565b602090610f6b612662565b82828901015201610dc2565b909a506020813d602011610fa3575b81610f93602093836111d4565b8101031261064457519938610d4a565b3d9150610f86565b90506020813d602011610fd5575b81610fc6602093836111d4565b81010312610644575188610ccd565b3d9150610fb9565b9093506020813d602011611009575b81610ff9602093836111d4565b8101031261064457519286610c87565b3d9150610fec565b9092506020813d60201161103d575b8161102d602093836111d4565b8101031261064457519185610c49565b3d9150611020565b346106445760e03660031901126106445761105e6110e6565b6001600160a01b03906024358281168103610644576060366043190112610644576110888461112d565b60443583811681036106445784526064358381168103610644576020850152608435928316830361064457836110d79360406101209601526110c8611209565b916110d161121f565b9361176a565b6110e4604051809261124b565bf35b600435906001600160a01b038216820361064457565b602435906001600160a01b038216820361064457565b608081019081106001600160401b03821117610bb757604052565b606081019081106001600160401b03821117610bb757604052565b6101c081019081106001600160401b03821117610bb757604052565b61016081019081106001600160401b03821117610bb757604052565b61012081019081106001600160401b03821117610bb757604052565b61018081019081106001600160401b03821117610bb757604052565b61010081019081106001600160401b03821117610bb757604052565b90601f801991011681019081106001600160401b03821117610bb757604052565b35906001600160a01b038216820361064457565b60a435906001600160a01b038216820361064457565b60c435906001600160a01b038216820361064457565b604435906001600160a01b038216820361064457565b60018060a01b038082511683528060208301511660208401526040820151166040830152606081015160608301526080810151608083015260a081015160a083015260c081015160c083015260e081015160e083015261010080910151910152565b60005b8381106112c05750506000910152565b81810151838201526020016112b0565b906020916112e9815180928185528580860191016112ad565b601f01601f1916010190565b9061139360018060a01b038084511683526020840151602084015260408401516040840152606084015160608401526080840151608084015261134760a08501516101c08060a08701528501906112d0565b9060c085015160c085015260e085015160e085015261010080860151908501526101209081860151169084015261014080850151908401526101608085015190848303908501526112d0565b9161018080820151908301526101a08091015191015290565b908151916101c080835260018060a01b03908185511690840152602093848101516101e085015260408101516102008501526060810151610220850152608081015161024085015260a081015161026085015260c08101519161141e61016093846102808801526103208701906112d0565b9060e0830151166102a0860152610100808301516102c087015261145661012092838501516101bf19898303016102e08a01526112d0565b61014080940151610300880152878601518888015260408601516040880152606086015160608801526080860151608088015260a086015160a088015260c08601519787820360c08901528851908183528083019281808460051b8301019b01936000915b84831061150a5750505050505060e085015160e0870152808501519086015280840151908501528083015190840152808201519083015261018080820151908301526101a08091015191015290565b90919293949b84806115298f93600194601f19878303018852516112f5565b9e019301930191949392906114bb565b6001600160401b038111610bb757601f01601f191660200190565b81601f820112156106445780359061156b82611539565b9261157960405194856111d4565b8284526020838301011161064457816000926020809301838601378301015290565b9061162260018060a01b0380845116835260208401516020840152604084015160408401526115d960608501516101608060608701528501906112d0565b906080850151608085015260a085015160a085015260c085015160c085015260e08501511660e084015261010080850151908401526101208085015190848303908501526112d0565b916101408091015191015290565b6040519061163d82611148565b6040516101a08361164d83611164565b600083818095528160208201528160408201528160608201528160808201528160a0820152606060c08201528160e0820152816101008181840152816101209160608386015261014094828682015287528160208801528160408801528160608801528160808801528160a0880152606060c08801528160e088015286015284015282015282610160820152826101808201520152565b6001600160401b038111610bb75760051b60200190565b6040519061170882611180565b816101006000918281528260208201528260408201528260608201528260808201528260a08201528260c08201528260e08201520152565b80518210156117545760209160051b010190565b634e487b7160e01b600052603260045260246000fd5b91939092936117776116fb565b508051602080830151604093840151935163c44b11f760e01b81526001600160a01b039384166004808301829052909990979196928516959094908116939187916024918391165afa94851561065157600095611a2d575b5060408051636eb1769f60e11b81526001600160a01b0380861689830190815293166020848101919091529093929091849182910103818b5afa918215610651576000926119f9575b506040516370a0823160e01b81526001600160a01b03909316868401819052936020846024818c5afa938415610651576000946119c5575b506040516370a0823160e01b815287810186905294602086602481855afa95861561065157600096611991575b50604051906370a0823160e01b825288820152602081602481855afa968715610651578a91600098611959575b505160405163b3596f0760e01b8152988901919091529697602090899060249082906001600160a01b03165afa97881561065157600098611922575b50604051986118f48a611180565b8952602089015260408801526060870152608086015260a085015260c084015260e083015261010082015290565b90976020823d602011611951575b8161193d602093836111d4565b8101031261194e57505196386118e6565b80fd5b3d9150611930565b9150966020823d602011611989575b81611975602093836111d4565b8101031261194e57505195899060246118aa565b3d9150611968565b90956020823d6020116119bd575b816119ac602093836111d4565b8101031261194e575051943861187d565b3d915061199f565b90936020823d6020116119f1575b816119e0602093836111d4565b8101031261194e5750519238611850565b3d91506119d3565b90916020823d602011611a25575b81611a14602093836111d4565b8101031261194e5750519038611818565b3d9150611a07565b6020959195813d602011611a92575b81611a49602093836111d4565b81010312611a8e576040519160208301908382106001600160401b03831117611a7b57506040525181529360206117cf565b634e487b7160e01b815260418952602490fd5b5080fd5b3d9150611a3c565b519060ff8216820361064457565b51906001600160a01b038216820361064457565b51906001600160401b038216820361064457565b51906cffffffffffffffffffffffffff8216820361064457565b602081830312610644578051906001600160401b038211610644570181601f82011215610644578051611b1c81611539565b92611b2a60405194856111d4565b8184526020828401011161064457611b4891602080850191016112ad565b90565b60405190611b5882611164565b816101406000918281528260208201528260408201526060808201528260808201528260a08201528260c08201528260e08201528261010082015260606101208201520152565b60ff1660ff81146106da5760010190565b6301e133809080600019048211811515166106da570290565b610100526000610160604051611bde8161119c565b604051611bea816111b8565b838152836020820152836040820152836060820152606060808201528360a08201528360c0820152606060e08201528152826020820152826040820152826060820152826080820152606060a08201528260c08201528260e0820152826101008201528261012082015282610140820152015260405163a46fe83b60e01b815260208160048160018060a01b0361010051165afa801561065157600061014052612626575b506040519063c55dae6360e01b825260208260048160018060a01b0361010051165afa918215610651576000926125ea575b506040519063e7dad6bd60e01b825260208260048160018060a01b0361010051165afa918215610651576000926125ae575b506040519163300e6beb60e01b835260208360048160018060a01b0361010051165afa9283156106515760009361257a575b506040516355d3f8af60e11b815261010051602090829060049082906001600160a01b03165afa90811561065157600091612548575b506040519363189bb2f160e01b855260208560048160018060a01b0361010051165afa94851561065157600095612514575b5060405190634f54cd2d60e11b825260208260048160018060a01b0361010051165afa918215610651576000926124e0575b50604051936349b270c560e11b855260208560048160018060a01b0361010051165afa948515610651576000956124ac575b5060405197637eb7113160e01b895260208960048160018060a01b0361010051165afa98891561065157600099612478575b50604051926318160ddd60e01b845260208460048160018060a01b0361010051165afa93841561065157600094612444575b506040519163020a17bd60e61b835260208360048160018060a01b0361010051165afa92831561065157600093612410575b5060405163b9f0baf760e01b81526101008051919591869060049082906001600160a01b03165afa94851561065157600095612344575b50604051634fd41dad60e11b8152600481018d905261010051602090829060249082906001600160a01b03165afa801561065157600061012052612308575b506040519b63d955759d60e01b8d5260048d015260208c60248160018060a01b0361010051165afa9b8c156106515760009c6122cc575b506040516395d89b4160e01b8152926000846004816001600160a01b0387165afa938415610651576000946122af575b5060405163313ce56760e01b81526020816004816001600160a01b0388165afa80156106515760006101605261227b575b506040516306fdde0360e01b8152906000826004816001600160a01b0388165afa91821561065157600092612256575b506040516341976e0960e01b81526001600160a01b0384811660048301526101005191959160209187916024918391165afa94851561065157600095612222575b506040516101808181526370a0823160e01b9091526101005181516001600160a01b039182166004909101528151919291602091602490829085165afa916101a0928084521561065157600092516121ea575b506120696040518060e0526111b8565b60018060a01b031660e05152602060e051015261016051604060e0510152606060e0510152608060e051015260018060a01b031660a060e051015260c060e051015260e0805101526120c060ff61014051166116e4565b976120ce604051998a6111d4565b60ff61014051168952601f196120e960ff61014051166116e4565b0160005b8181106121d257505060005b60ff610140511660ff8216101561213b578061211b61213692610100516126e0565b61212860ff83168d611740565b5261043260ff82168c611740565b6120f9565b509193959790929496986121656001600160401b0361215e816101205116611bb0565b9216611bb0565b926cffffffffffffffffffffffffff60808160a08901511697015116976040519a61218f8c61119c565b60e0518c5260208c015260408b015260608a0152608089015260a088015260c087015260e086015261010085015261012084015261014083015261016082015290565b808b602080936121e0611b4b565b92010152016120ed565b9091506020903d60201161221a575b8061220783602093516111d4565b5180928101031261064457519038612059565b3d91506121f9565b9094506020813d60201161224e575b8161223e602093836111d4565b8101031261064457519338612006565b3d9150612231565b6122749192503d806000833e61226c81836111d4565b810190611aea565b9038611fc5565b6020813d6020116122a7575b81612294602093836111d4565b8101031261064457516101605238611f95565b3d9150612287565b6122c59194503d806000833e61226c81836111d4565b9238611f64565b909b506020813d602011612300575b816122e8602093836111d4565b81010312610644576122f990611abc565b9a38611f34565b3d91506122db565b6020813d60201161233c575b81612321602093836111d4565b810103126106445761233290611abc565b6101205238611efd565b3d9150612314565b909450610100813d61010011612408575b8161236361010093836111d4565b810103126106445760405190612378826111b8565b61238181611abc565b825261238f60208201611abc565b60208301526123a060408201611abc565b60408301526123b160608201611abc565b60608301526123c260808201611ad0565b60808301526123d360a08201611ad0565b60a083015260c081015164ffffffffff811681036106445760c08301526123fc9060e001611a9a565b60e08201529338611ebe565b3d9150612355565b9092506020813d60201161243c575b8161242c602093836111d4565b8101031261064457519138611e87565b3d915061241f565b9093506020813d602011612470575b81612460602093836111d4565b8101031261064457519238611e55565b3d9150612453565b9098506020813d6020116124a4575b81612494602093836111d4565b8101031261064457519738611e23565b3d9150612487565b9094506020813d6020116124d8575b816124c8602093836111d4565b8101031261064457519338611df1565b3d91506124bb565b9091506020813d60201161250c575b816124fc602093836111d4565b8101031261064457519038611dbf565b3d91506124ef565b9094506020813d602011612540575b81612530602093836111d4565b8101031261064457519338611d8d565b3d9150612523565b90506020813d602011612572575b81612563602093836111d4565b81010312610644575138611d5b565b3d9150612556565b9092506020813d6020116125a6575b81612596602093836111d4565b8101031261064457519138611d25565b3d9150612589565b9091506020813d6020116125e2575b816125ca602093836111d4565b81010312610644576125db90611aa8565b9038611cf3565b3d91506125bd565b9091506020813d60201161261e575b81612606602093836111d4565b810103126106445761261790611aa8565b9038611cc1565b3d91506125f9565b6020813d60201161265a575b8161263f602093836111d4565b810103126106445761265090611a9a565b6101405238611c8f565b3d9150612632565b6040519061266f82611148565b816101a0600091828152826020820152826040820152826060820152826080820152606060a08201528260c08201528260e08201528261010082015282610120820152826101408201526060610160820152826101808201520152565b51906001600160801b038216820361064457565b906126e9611b4b565b506040805163c8c7fe6b60e01b815260ff9092166004830152916001600160a01b0390811691906101008083602481875afa9283156128ec5760009361298a575b506020928381019383855116966001600160401b039060048260808601511691848b82519384809263313ce56760e01b82525afa91821561297f5760009261294f575b506004928460a0880151169460c0880151169560008a8c51168451968780926306fdde0360e01b82525afa9485156128c257908c97969594939291600095612934575b50828901818c82511660248651809c81936341976e0960e01b835260048301525afa98891561292957908c9160009a6128f7575b5051169860e001516001600160801b03169a808d51169c8451809e81906395d89b4160e01b82525a92600491600094fa9d8e156128ec5760009e6128cd575b505184516359e017bd60e01b8152911660048201529c81908e90815a91602492fa9c8d156128c25760009d612893575b5082519d8e61286181611164565b528d01528b015260608a0152608089015260a088015260c087015260e086015284015261012083015261014082015290565b909c8d82813d83116128bb575b6128aa81836111d4565b8101031261194e5750519b38612853565b503d6128a0565b83513d6000823e3d90fd5b6128e4908493929f3d8091833e61226c81836111d4565b9d9091612823565b85513d6000823e3d90fd5b9150988282813d8311612922575b61290f81836111d4565b8101031261194e57508b905198386127e4565b503d612905565b84513d6000823e3d90fd5b61294891953d8091833e61226c81836111d4565b93386127b0565b90918582813d8311612978575b61296681836111d4565b8101031261194e57505190600461276d565b503d61295c565b50513d6000823e3d90fd5b90928382813d8311612a3c575b6129a181836111d4565b8101031261194e5750612a3060e08651926129bb846111b8565b6129c481611a9a565b84526129d260208201611aa8565b60208501526129e2888201611aa8565b888501526129f260608201611abc565b6060850152612a0360808201611abc565b6080850152612a1460a08201611abc565b60a0850152612a2560c08201611abc565b60c0850152016126cc565b60e0820152913861272a565b503d612997565b9190612a4d612662565b508051604051636eb1769f60e11b81526001600160a01b038481166004830152948516602482018190529490911693602082604481885afa91821561065157600092612c2a575b508251604051632e12a4f760e11b81526001600160a01b038681166004830152909116602482015290602090829060449082905afa90811561065157600091612bf0575b506020830151604080850151608086015160a0870151606088015160c089015160e08a01516101008b01516101208c01516101408d01519c5198516370a0823160e01b81526001600160a01b039e8f1660048201529d909b919a928116999398959794958e918291165a92602491602094fa9c8d156106515760009d612bbc575b50604051809e612b6882611148565b8152602001526001600160801b031660408d015260608c015260808b015260a08a015260c089015260e08801526101008701526101208601526101408501526101608401526101808301526101a082015290565b909c6020823d602011612be8575b81612bd7602093836111d4565b8101031261194e5750519b38612b59565b3d9150612bca565b906020823d602011612c22575b81612c0a602093836111d4565b8101031261194e5750612c1c906126cc565b38612ad8565b3d9150612bfd565b90916020823d602011612c57575b81612c45602093836111d4565b8101031261194e575051906020612a94565b3d9150612c3856fea2646970667358221220b3b066a8375c5141c37d3b12d314dc547e05d24827a25e994164faecbe83335664736f6c63430008100033",
    "linkReferences": {}
  },
  "methodIdentifiers": {
    "aTokenMetadata(address,address,(address,address,address),address,address)": "0abe0bec",
    "collateralInfo(address,uint8)": "cbe293fa",
    "collateralInfoWithAccount(address,(address,uint256,uint256,string,uint256,uint256,uint256,address,uint256,string,uint256),address)": "c2815c0b",
    "getMigratorData(address,address,address,(address,address,address)[],address,address,address)": "ec7d7f7a",
    "query(address)": "d4fc9fc6",
    "queryWithAccount(address,address,address)": "5346cc19"
  },
  "id": 0
}