{
  "abi": [
    {
      "inputs": [
        {
          "internalType": "contract Comet",
          "name": "comet",
          "type": "address"
        },
        {
          "internalType": "uint8",
          "name": "index",
          "type": "uint8"
        }
      ],
      "name": "collateralInfo",
      "outputs": [
        {
          "components": [
            {
              "internalType": "address",
              "name": "collateralAsset",
              "type": "address"
            },
            {
              "internalType": "uint256",
              "name": "collateralFactor",
              "type": "uint256"
            },
            {
              "internalType": "uint256",
              "name": "decimals",
              "type": "uint256"
            },
            {
              "internalType": "string",
              "name": "name",
              "type": "string"
            },
            {
              "internalType": "uint256",
              "name": "liquidateCollateralFactor",
              "type": "uint256"
            },
            {
              "internalType": "uint256",
              "name": "liquidationFactor",
              "type": "uint256"
            },
            {
              "internalType": "uint256",
              "name": "price",
              "type": "uint256"
            },
            {
              "internalType": "address",
              "name": "priceFeed",
              "type": "address"
            },
            {
              "internalType": "uint256",
              "name": "supplyCap",
              "type": "uint256"
            },
            {
              "internalType": "string",
              "name": "symbol",
              "type": "string"
            },
            {
              "internalType": "uint256",
              "name": "totalSupply",
              "type": "uint256"
            }
          ],
          "internalType": "struct CometQuery.CollateralAsset",
          "name": "",
          "type": "tuple"
        }
      ],
      "stateMutability": "view",
      "type": "function"
    },
    {
      "inputs": [
        {
          "internalType": "contract Comet",
          "name": "comet",
          "type": "address"
        },
        {
          "components": [
            {
              "internalType": "address",
              "name": "collateralAsset",
              "type": "address"
            },
            {
              "internalType": "uint256",
              "name": "collateralFactor",
              "type": "uint256"
            },
            {
              "internalType": "uint256",
              "name": "decimals",
              "type": "uint256"
            },
            {
              "internalType": "string",
              "name": "name",
              "type": "string"
            },
            {
              "internalType": "uint256",
              "name": "liquidateCollateralFactor",
              "type": "uint256"
            },
            {
              "internalType": "uint256",
              "name": "liquidationFactor",
              "type": "uint256"
            },
            {
              "internalType": "uint256",
              "name": "price",
              "type": "uint256"
            },
            {
              "internalType": "address",
              "name": "priceFeed",
              "type": "address"
            },
            {
              "internalType": "uint256",
              "name": "supplyCap",
              "type": "uint256"
            },
            {
              "internalType": "string",
              "name": "symbol",
              "type": "string"
            },
            {
              "internalType": "uint256",
              "name": "totalSupply",
              "type": "uint256"
            }
          ],
          "internalType": "struct CometQuery.CollateralAsset",
          "name": "asset",
          "type": "tuple"
        },
        {
          "internalType": "address payable",
          "name": "account",
          "type": "address"
        }
      ],
      "name": "collateralInfoWithAccount",
      "outputs": [
        {
          "components": [
            {
              "internalType": "address",
              "name": "collateralAsset",
              "type": "address"
            },
            {
              "internalType": "uint256",
              "name": "allowance",
              "type": "uint256"
            },
            {
              "internalType": "uint256",
              "name": "balance",
              "type": "uint256"
            },
            {
              "internalType": "uint256",
              "name": "collateralFactor",
              "type": "uint256"
            },
            {
              "internalType": "uint256",
              "name": "decimals",
              "type": "uint256"
            },
            {
              "internalType": "string",
              "name": "name",
              "type": "string"
            },
            {
              "internalType": "uint256",
              "name": "liquidateCollateralFactor",
              "type": "uint256"
            },
            {
              "internalType": "uint256",
              "name": "liquidationFactor",
              "type": "uint256"
            },
            {
              "internalType": "uint256",
              "name": "price",
              "type": "uint256"
            },
            {
              "internalType": "address",
              "name": "priceFeed",
              "type": "address"
            },
            {
              "internalType": "uint256",
              "name": "supplyCap",
              "type": "uint256"
            },
            {
              "internalType": "string",
              "name": "symbol",
              "type": "string"
            },
            {
              "internalType": "uint256",
              "name": "totalSupply",
              "type": "uint256"
            },
            {
              "internalType": "uint256",
              "name": "walletBalance",
              "type": "uint256"
            }
          ],
          "internalType": "struct CometQuery.CollateralAssetWithAccountState",
          "name": "",
          "type": "tuple"
        }
      ],
      "stateMutability": "view",
      "type": "function"
    },
    {
      "inputs": [
        {
          "internalType": "contract Comet",
          "name": "comet",
          "type": "address"
        }
      ],
      "name": "query",
      "outputs": [
        {
          "components": [
            {
              "components": [
                {
                  "internalType": "address",
                  "name": "baseAsset",
                  "type": "address"
                },
                {
                  "internalType": "uint256",
                  "name": "balanceOfComet",
                  "type": "uint256"
                },
                {
                  "internalType": "uint256",
                  "name": "decimals",
                  "type": "uint256"
                },
                {
                  "internalType": "uint256",
                  "name": "minBorrow",
                  "type": "uint256"
                },
                {
                  "internalType": "string",
                  "name": "name",
                  "type": "string"
                },
                {
                  "internalType": "address",
                  "name": "priceFeed",
                  "type": "address"
                },
                {
                  "internalType": "uint256",
                  "name": "price",
                  "type": "uint256"
                },
                {
                  "internalType": "string",
                  "name": "symbol",
                  "type": "string"
                }
              ],
              "internalType": "struct CometQuery.BaseAsset",
              "name": "baseAsset",
              "type": "tuple"
            },
            {
              "internalType": "uint256",
              "name": "baseMinForRewards",
              "type": "uint256"
            },
            {
              "internalType": "uint256",
              "name": "baseTrackingBorrowSpeed",
              "type": "uint256"
            },
            {
              "internalType": "uint256",
              "name": "baseTrackingSupplySpeed",
              "type": "uint256"
            },
            {
              "internalType": "uint256",
              "name": "borrowAPR",
              "type": "uint256"
            },
            {
              "components": [
                {
                  "internalType": "address",
                  "name": "collateralAsset",
                  "type": "address"
                },
                {
                  "internalType": "uint256",
                  "name": "collateralFactor",
                  "type": "uint256"
                },
                {
                  "internalType": "uint256",
                  "name": "decimals",
                  "type": "uint256"
                },
                {
                  "internalType": "string",
                  "name": "name",
                  "type": "string"
                },
                {
                  "internalType": "uint256",
                  "name": "liquidateCollateralFactor",
                  "type": "uint256"
                },
                {
                  "internalType": "uint256",
                  "name": "liquidationFactor",
                  "type": "uint256"
                },
                {
                  "internalType": "uint256",
                  "name": "price",
                  "type": "uint256"
                },
                {
                  "internalType": "address",
                  "name": "priceFeed",
                  "type": "address"
                },
                {
                  "internalType": "uint256",
                  "name": "supplyCap",
                  "type": "uint256"
                },
                {
                  "internalType": "string",
                  "name": "symbol",
                  "type": "string"
                },
                {
                  "internalType": "uint256",
                  "name": "totalSupply",
                  "type": "uint256"
                }
              ],
              "internalType": "struct CometQuery.CollateralAsset[]",
              "name": "collateralAssets",
              "type": "tuple[]"
            },
            {
              "internalType": "uint256",
              "name": "earnAPR",
              "type": "uint256"
            },
            {
              "internalType": "uint256",
              "name": "totalBorrow",
              "type": "uint256"
            },
            {
              "internalType": "uint256",
              "name": "totalBorrowPrincipal",
              "type": "uint256"
            },
            {
              "internalType": "uint256",
              "name": "totalSupply",
              "type": "uint256"
            },
            {
              "internalType": "uint256",
              "name": "totalSupplyPrincipal",
              "type": "uint256"
            },
            {
              "internalType": "uint256",
              "name": "trackingIndexScale",
              "type": "uint256"
            }
          ],
          "internalType": "struct CometQuery.CometState",
          "name": "",
          "type": "tuple"
        }
      ],
      "stateMutability": "view",
      "type": "function"
    },
    {
      "inputs": [
        {
          "internalType": "contract Comet",
          "name": "comet",
          "type": "address"
        },
        {
          "internalType": "address payable",
          "name": "account",
          "type": "address"
        },
        {
          "internalType": "address payable",
          "name": "bulker",
          "type": "address"
        }
      ],
      "name": "queryWithAccount",
      "outputs": [
        {
          "components": [
            {
              "components": [
                {
                  "internalType": "address",
                  "name": "baseAsset",
                  "type": "address"
                },
                {
                  "internalType": "uint256",
                  "name": "allowance",
                  "type": "uint256"
                },
                {
                  "internalType": "uint256",
                  "name": "balance",
                  "type": "uint256"
                },
                {
                  "internalType": "uint256",
                  "name": "balanceOfComet",
                  "type": "uint256"
                },
                {
                  "internalType": "uint256",
                  "name": "decimals",
                  "type": "uint256"
                },
                {
                  "internalType": "uint256",
                  "name": "minBorrow",
                  "type": "uint256"
                },
                {
                  "internalType": "string",
                  "name": "name",
                  "type": "string"
                },
                {
                  "internalType": "address",
                  "name": "priceFeed",
                  "type": "address"
                },
                {
                  "internalType": "uint256",
                  "name": "price",
                  "type": "uint256"
                },
                {
                  "internalType": "string",
                  "name": "symbol",
                  "type": "string"
                },
                {
                  "internalType": "uint256",
                  "name": "walletBalance",
                  "type": "uint256"
                }
              ],
              "internalType": "struct CometQuery.BaseAssetWithAccountState",
              "name": "baseAsset",
              "type": "tuple"
            },
            {
              "internalType": "uint256",
              "name": "baseMinForRewards",
              "type": "uint256"
            },
            {
              "internalType": "uint256",
              "name": "baseTrackingBorrowSpeed",
              "type": "uint256"
            },
            {
              "internalType": "uint256",
              "name": "baseTrackingSupplySpeed",
              "type": "uint256"
            },
            {
              "internalType": "uint256",
              "name": "borrowAPR",
              "type": "uint256"
            },
            {
              "internalType": "uint256",
              "name": "bulkerAllowance",
              "type": "uint256"
            },
            {
              "components": [
                {
                  "internalType": "address",
                  "name": "collateralAsset",
                  "type": "address"
                },
                {
                  "internalType": "uint256",
                  "name": "allowance",
                  "type": "uint256"
                },
                {
                  "internalType": "uint256",
                  "name": "balance",
                  "type": "uint256"
                },
                {
                  "internalType": "uint256",
                  "name": "collateralFactor",
                  "type": "uint256"
                },
                {
                  "internalType": "uint256",
                  "name": "decimals",
                  "type": "uint256"
                },
                {
                  "internalType": "string",
                  "name": "name",
                  "type": "string"
                },
                {
                  "internalType": "uint256",
                  "name": "liquidateCollateralFactor",
                  "type": "uint256"
                },
                {
                  "internalType": "uint256",
                  "name": "liquidationFactor",
                  "type": "uint256"
                },
                {
                  "internalType": "uint256",
                  "name": "price",
                  "type": "uint256"
                },
                {
                  "internalType": "address",
                  "name": "priceFeed",
                  "type": "address"
                },
                {
                  "internalType": "uint256",
                  "name": "supplyCap",
                  "type": "uint256"
                },
                {
                  "internalType": "string",
                  "name": "symbol",
                  "type": "string"
                },
                {
                  "internalType": "uint256",
                  "name": "totalSupply",
                  "type": "uint256"
                },
                {
                  "internalType": "uint256",
                  "name": "walletBalance",
                  "type": "uint256"
                }
              ],
              "internalType": "struct CometQuery.CollateralAssetWithAccountState[]",
              "name": "collateralAssets",
              "type": "tuple[]"
            },
            {
              "internalType": "uint256",
              "name": "earnAPR",
              "type": "uint256"
            },
            {
              "internalType": "uint256",
              "name": "nativeAssetWalletBalance",
              "type": "uint256"
            },
            {
              "internalType": "uint256",
              "name": "totalBorrow",
              "type": "uint256"
            },
            {
              "internalType": "uint256",
              "name": "totalBorrowPrincipal",
              "type": "uint256"
            },
            {
              "internalType": "uint256",
              "name": "totalSupply",
              "type": "uint256"
            },
            {
              "internalType": "uint256",
              "name": "totalSupplyPrincipal",
              "type": "uint256"
            },
            {
              "internalType": "uint256",
              "name": "trackingIndexScale",
              "type": "uint256"
            }
          ],
          "internalType": "struct CometQuery.CometStateWithAccountState",
          "name": "",
          "type": "tuple"
        }
      ],
      "stateMutability": "view",
      "type": "function"
    }
  ],
  "bytecode": {
    "object": "0x6080806040523461001657611f61908161001c8239f35b600080fdfe610160604052600436101561001357600080fd5b60003560e01c80635346cc191461035d578063c2815c0b14610221578063cbe293fa146101d55763d4fc9fc61461004957600080fd5b346101d0576020806003193601126101d05761006b610066610a73565b610eb3565b906040519080825282519261018090818385015261010160018060a01b03808751166101a0870152848701516101c087015260408701516101e0870152606087015161020087015260e06080880151976100d4610100998a6102208b01526102a08a0190610ac2565b9260a08201511661024089015260c0810151610260890152015161019f1987830301610280880152610ac2565b948382015160408601526040820151606086015260608201516080860152608082015160a086015260a082015193601f1990818789030160c08801528551908189528089019281808460051b8c01019801936000915b8483106101a3578a808b8b8b8b60c082015160e086015260e082015181860152810151610120908186015281015161014090818601528101519061016091828601520151908301520390f35b90919293949884806101c0838f8690600196030187528d51610cab565b9b01930193019194939290610157565b600080fd5b346101d05760403660031901126101d0576101ee610a73565b6024359060ff821682036101d05761021d91610209916119a8565b604051918291602083526020830190610cab565b0390f35b346101d0576003196060368201126101d05761023b610a73565b6024359067ffffffffffffffff928383116101d057610160809184360301126101d057604051908101818110858211176103475760405261027e83600401610c34565b8152602483013560208201526044830135604082015260648301358481116101d0576102b09060043691860101610c64565b60608201526084830135608082015260a483013560a082015260c483013560c08201526102df60e48401610c34565b60e08201526101048301356101008201526101248301359384116101d0576101446103339361031761021d9660043691840101610c64565b610120840152013561014082015261032d610a89565b91611d0f565b604051918291602083526020830190610ae7565b634e487b7160e01b600052604160045260246000fd5b346101d05760603660031901126101d057610376610a73565b6024356001600160a01b03811690036101d057610391610a89565b61039c610160610b9e565b6040516103a881610bbb565b6000815260006020820152600060408201526000606082015260006080820152600060a0820152606060c0820152600060e082015260006101008201526060610120820152600061014082015261016052600060206101600152600060406101600152600060606101600152600060806101600152600060a06101600152606060c06101600152600060e0610160015260006101006101600152600061012061016001526000610140610160015260006101608001526000610180610160015260006101a0610160015261047b82610eb3565b6040516370a0823160e01b8152602480356001600160a01b0390811660048401529194916020918691829085165afa93841561096c57600094610a3f575b50604051630dd3126d60e21b8152602480356001600160a01b0390811660048401529195916020918791829086165afa94851561096c57600095610a0b575b50825151604051636eb1769f60e11b81526001600160a01b036024803582166004840152858216908301529091169590602081806044810103818a5afa90811561096c576000916109d9575b5082828103116109c357845160e08101516040808301516060840151608085015160a086015160c0870151602080890151985196516370a0823160e01b8152602480356001600160a01b039081166004840152919d999c939b9482169a95999698959693959394938e928391165afa9a8b1561096c5760009b61098f575b506040519e8f906105d282610bbb565b8152602001520360408d015260608c015260808b015260a08a015260c089015260e088015261010087015261012086015261014085015260a0820151519361061985610df3565b94604051956106289087610c12565b808652601f199061063890610df3565b0160005b81811061097857505060005b60a0840151805160ff8316101561069f579061067961069a926106726024359160ff851690610e70565b5186611d0f565b61068660ff831689610e70565b5261069460ff821688610e70565b50610e5f565b610648565b5050936020830151936040840151926060850151926020608087015193604460405180958193636eb1769f60e11b835260018060a01b0360243516600484015260018060a01b0316602483015260018060a01b03165afa91821561096c57600092610938575b5060c08601519060018060a01b0360243516319260e088015194610100890151966101208a0151986101606101408c01519b01519b60206040519e8f9061074b82610b9e565b8152015260408d015260608c015260808b015260a08a015260c089015260e08801526101008701526101208601526101408501526101608401526101808301526101a08201526040516020815281516101c0602083015260018060a01b038151166101e0830152602081015161020083015260408101516102208301526060810151610240830152608081015161026083015260a081015161028083015261014061084461080b60c08401516101606102a0870152610340860190610ac2565b60e08401516001600160a01b03166102c08601526101008401516102e08601526101208401518582036101df1901610300870152610ac2565b910151610320830152602083015160408301526040830151606083015260608301516080830152608083015160a083015260a083015160c083015260c083015190601f198382030160e0840152815180825260208201916020808360051b8301019401926000915b83831061090b578680876101a08b60e08101516101008501526101008101516101208501526101208101516101408501526101408101516101608501526101608101516101808501526101808101518285015201516101c08301520390f35b9091929394602080610929600193601f198682030187528951610ae7565b970193019301919392906108ac565b9091506020813d602011610964575b8161095460209383610c12565b810103126101d057519088610705565b3d9150610947565b6040513d6000823e3d90fd5b60209061098361192a565b82828a0101520161063c565b909a506020813d6020116109bb575b816109ab60209383610c12565b810103126101d05751998f6105c2565b3d915061099e565b634e487b7160e01b600052601160045260246000fd5b90506020813d602011610a03575b816109f460209383610c12565b810103126101d0575187610544565b3d91506109e7565b9094506020813d602011610a37575b81610a2760209383610c12565b810103126101d0575193856104f8565b3d9150610a1a565b9093506020813d602011610a6b575b81610a5b60209383610c12565b810103126101d0575192846104b9565b3d9150610a4e565b600435906001600160a01b03821682036101d057565b604435906001600160a01b03821682036101d057565b60005b838110610ab25750506000910152565b8181015183820152602001610aa2565b90602091610adb81518092818552858086019101610a9f565b601f01601f1916010190565b90610b8560018060a01b0380845116835260208401516020840152604084015160408401526060840151606084015260808401516080840152610b3960a08501516101c08060a0870152850190610ac2565b9060c085015160c085015260e085015160e08501526101008086015190850152610120908186015116908401526101408085015190840152610160808501519084830390850152610ac2565b9161018080820151908301526101a08091015191015290565b6101c0810190811067ffffffffffffffff82111761034757604052565b610160810190811067ffffffffffffffff82111761034757604052565b610180810190811067ffffffffffffffff82111761034757604052565b610100810190811067ffffffffffffffff82111761034757604052565b90601f8019910116810190811067ffffffffffffffff82111761034757604052565b35906001600160a01b03821682036101d057565b67ffffffffffffffff811161034757601f01601f191660200190565b81601f820112156101d057803590610c7b82610c48565b92610c896040519485610c12565b828452602083830101116101d057816000926020809301838601378301015290565b90610d3260018060a01b038084511683526020840151602084015260408401516040840152610ce96060850151610160806060870152850190610ac2565b906080850151608085015260a085015160a085015260c085015160c085015260e08501511660e08401526101008085015190840152610120808501519084830390850152610ac2565b916101408091015191015290565b519060ff821682036101d057565b51906001600160a01b03821682036101d057565b519067ffffffffffffffff821682036101d057565b51906cffffffffffffffffffffffffff821682036101d057565b6020818303126101d05780519067ffffffffffffffff82116101d0570181601f820112156101d0578051610dc481610c48565b92610dd26040519485610c12565b818452602082840101116101d057610df09160208085019101610a9f565b90565b67ffffffffffffffff81116103475760051b60200190565b60405190610e1882610bbb565b816101406000918281528260208201528260408201526060808201528260808201528260a08201528260c08201528260e08201528261010082015260606101208201520152565b60ff1660ff81146109c35760010190565b8051821015610e845760209160051b010190565b634e487b7160e01b600052603260045260246000fd5b6301e133809080600019048211811515166109c3570290565b60a0526000610160604051610ec781610bd8565b604051610ed381610bf5565b838152836020820152836040820152836060820152606060808201528360a08201528360c0820152606060e08201528152826020820152826040820152826060820152826080820152606060a08201528260c08201528260e0820152826101008201528261012082015282610140820152015260405163a46fe83b60e01b815260208160048160018060a01b0360a051165afa801561096c57600060e0526118ef575b506040519063c55dae6360e01b825260208260048160018060a01b0360a051165afa91821561096c576000926118b3575b506040519063e7dad6bd60e01b825260208260048160018060a01b0360a051165afa91821561096c57600092611877575b506040519163300e6beb60e01b835260208360048160018060a01b0360a051165afa92831561096c57600093611843575b506040516355d3f8af60e11b815260a051602090829060049082906001600160a01b03165afa90811561096c57600091611811575b506040519363189bb2f160e01b855260208560048160018060a01b0360a051165afa94851561096c576000956117dd575b5060405190634f54cd2d60e11b825260208260048160018060a01b0360a051165afa91821561096c576000926117a9575b50604051936349b270c560e11b855260208560048160018060a01b0360a051165afa94851561096c57600095611775575b5060405197637eb7113160e01b895260208960048160018060a01b0360a051165afa98891561096c57600099611741575b50604051926318160ddd60e01b845260208460048160018060a01b0360a051165afa93841561096c5760009461170d575b506040519163020a17bd60e61b835260208360048160018060a01b0360a051165afa92831561096c576000936116d9575b506040519363b9f0baf760e01b85526101008560048160018060a01b0360a051165afa94851561096c5760009561160d575b50604051634fd41dad60e11b8152600481018d905260a051602090829060249082906001600160a01b03165afa801561096c57600060c0526115d2575b506040519b63d955759d60e01b8d5260048d015260208c60248160018060a01b0360a051165afa9b8c1561096c5760009c611596575b506040516395d89b4160e01b8152926000846004816001600160a01b0387165afa93841561096c57600094611579575b5060405163313ce56760e01b81526020816004816001600160a01b0388165afa801561096c57600061010052611545575b506040516306fdde0360e01b8152906000826004816001600160a01b0388165afa91821561096c57600092611520575b506040516341976e0960e01b81526001600160a01b03848116600483015260a05191959160209187916024918391165afa94851561096c576000956114ec575b506040516101408181526370a0823160e01b90915260a05181516001600160a01b039182166004909101529051602091602490829085165afa80610120521561096c57600090610120516114b4575b61133860405180608052610bf5565b60018060a01b0316608051526020608051015261010051604060805101526060608051015260808051015260018060a01b031660a0608051015260c0608051015260e0608051015261138e60ff60e05116610df3565b9761139c604051998a610c12565b60ff60e051168952601f196113b560ff60e05116610df3565b0160005b81811061149c57505060005b60ff60e0511660ff8216101561140557806113e56114009260a0516119a8565b6113f260ff83168d610e70565b5261069460ff82168c610e70565b6113c5565b5091939597909294969861142f67ffffffffffffffff6114288160c05116610e9a565b9216610e9a565b926cffffffffffffffffffffffffff60808160a08901511697015116976040519a6114598c610bd8565b6080518c5260208c015260408b015260608a0152608089015260a088015260c087015260e086015261010085015261012084015261014083015261016082015290565b808b602080936114aa610e0b565b92010152016113b9565b905060203d6020116114e5575b6114ce8161014051610c12565b6020610140518092810103126101d0575190611329565b503d6114c1565b9094506020813d602011611518575b8161150860209383610c12565b810103126101d0575193386112da565b3d91506114fb565b61153e9192503d806000833e6115368183610c12565b810190610d91565b903861129a565b6020813d602011611571575b8161155e60209383610c12565b810103126101d05751610100523861126a565b3d9150611551565b61158f9194503d806000833e6115368183610c12565b9238611239565b909b506020813d6020116115ca575b816115b260209383610c12565b810103126101d0576115c390610d62565b9a38611209565b3d91506115a5565b6020813d602011611605575b816115eb60209383610c12565b810103126101d0576115fc90610d62565b60c052386111d3565b3d91506115de565b909450610100813d610100116116d1575b8161162c6101009383610c12565b810103126101d0576040519061164182610bf5565b61164a81610d62565b825261165860208201610d62565b602083015261166960408201610d62565b604083015261167a60608201610d62565b606083015261168b60808201610d77565b608083015261169c60a08201610d77565b60a083015260c081015164ffffffffff811681036101d05760c08301526116c59060e001610d40565b60e08201529338611196565b3d915061161e565b9092506020813d602011611705575b816116f560209383610c12565b810103126101d057519138611164565b3d91506116e8565b9093506020813d602011611739575b8161172960209383610c12565b810103126101d057519238611133565b3d915061171c565b9098506020813d60201161176d575b8161175d60209383610c12565b810103126101d057519738611102565b3d9150611750565b9094506020813d6020116117a1575b8161179160209383610c12565b810103126101d0575193386110d1565b3d9150611784565b9091506020813d6020116117d5575b816117c560209383610c12565b810103126101d0575190386110a0565b3d91506117b8565b9094506020813d602011611809575b816117f960209383610c12565b810103126101d05751933861106f565b3d91506117ec565b90506020813d60201161183b575b8161182c60209383610c12565b810103126101d057513861103e565b3d915061181f565b9092506020813d60201161186f575b8161185f60209383610c12565b810103126101d057519138611009565b3d9150611852565b9091506020813d6020116118ab575b8161189360209383610c12565b810103126101d0576118a490610d4e565b9038610fd8565b3d9150611886565b9091506020813d6020116118e7575b816118cf60209383610c12565b810103126101d0576118e090610d4e565b9038610fa7565b3d91506118c2565b6020813d602011611922575b8161190860209383610c12565b810103126101d05761191990610d40565b60e05238610f76565b3d91506118fb565b6040519061193782610b9e565b816101a0600091828152826020820152826040820152826060820152826080820152606060a08201528260c08201528260e08201528261010082015282610120820152826101408201526060610160820152826101808201520152565b51906001600160801b03821682036101d057565b906119b1610e0b565b506040805163c8c7fe6b60e01b815260ff9092166004830152916001600160a01b0390811691906101008083602481875afa928315611bb857600093611c56575b5060209283810193838551169667ffffffffffffffff9060048260808601511691848b82519384809263313ce56760e01b82525afa918215611c4b57600092611c1b575b506004928460a0880151169460c0880151169560008a8c51168451968780926306fdde0360e01b82525afa948515611b8e57908c97969594939291600095611c00575b50828901818c82511660248651809c81936341976e0960e01b835260048301525afa988915611bf557908c9160009a611bc3575b5051169860e001516001600160801b03169a808d51169c8451809e81906395d89b4160e01b82525a92600491600094fa9d8e15611bb85760009e611b99575b505184516359e017bd60e01b8152911660048201529c81908e90815a91602492fa9c8d15611b8e5760009d611b5c575b5082519d8e611b2a81610bbb565b528d01528b015260608a0152608089015260a088015260c087015260e086015284015261012083015261014082015290565b909c8d82813d8311611b87575b611b738183610c12565b81010312611b845750519b38611b1c565b80fd5b503d611b69565b83513d6000823e3d90fd5b611bb0908493929f3d8091833e6115368183610c12565b9d9091611aec565b85513d6000823e3d90fd5b9150988282813d8311611bee575b611bdb8183610c12565b81010312611b8457508b90519838611aad565b503d611bd1565b84513d6000823e3d90fd5b611c1491953d8091833e6115368183610c12565b9338611a79565b90918582813d8311611c44575b611c328183610c12565b81010312611b84575051906004611a36565b503d611c28565b50513d6000823e3d90fd5b90928382813d8311611d08575b611c6d8183610c12565b81010312611b845750611cfc60e0865192611c8784610bf5565b611c9081610d40565b8452611c9e60208201610d4e565b6020850152611cae888201610d4e565b88850152611cbe60608201610d62565b6060850152611ccf60808201610d62565b6080850152611ce060a08201610d62565b60a0850152611cf160c08201610d62565b60c085015201611994565b60e082015291386119f2565b503d611c63565b9190611d1961192a565b508051604051636eb1769f60e11b81526001600160a01b038481166004830152948516602482018190529490911693602082604481885afa91821561096c57600092611ef6575b508251604051632e12a4f760e11b81526001600160a01b038681166004830152909116602482015290602090829060449082905afa90811561096c57600091611ebc575b506020830151604080850151608086015160a0870151606088015160c089015160e08a01516101008b01516101208c01516101408d01519c5198516370a0823160e01b81526001600160a01b039e8f1660048201529d909b919a928116999398959794958e918291165a92602491602094fa9c8d1561096c5760009d611e88575b50604051809e611e3482610b9e565b8152602001526001600160801b031660408d015260608c015260808b015260a08a015260c089015260e08801526101008701526101208601526101408501526101608401526101808301526101a082015290565b909c6020823d602011611eb4575b81611ea360209383610c12565b81010312611b845750519b38611e25565b3d9150611e96565b906020823d602011611eee575b81611ed660209383610c12565b81010312611b845750611ee890611994565b38611da4565b3d9150611ec9565b90916020823d602011611f23575b81611f1160209383610c12565b81010312611b84575051906020611d60565b3d9150611f0456fea26469706673582212202e937a4bca8f6b184d39d37d48af5f8ef4770ad89df318b8478fb02a02515f6964736f6c63430008100033",
    "linkReferences": {}
  },
  "methodIdentifiers": {
    "collateralInfo(address,uint8)": "cbe293fa",
    "collateralInfoWithAccount(address,(address,uint256,uint256,string,uint256,uint256,uint256,address,uint256,string,uint256),address)": "c2815c0b",
    "query(address)": "d4fc9fc6",
    "queryWithAccount(address,address,address)": "5346cc19"
  },
  "id": 1
}