{
  "abi": [
    {
      "inputs": [
        {
          "internalType": "contract Comet",
          "name": "comet",
          "type": "address"
        },
        {
          "internalType": "uint8",
          "name": "index",
          "type": "uint8"
        }
      ],
      "name": "collateralInfo",
      "outputs": [
        {
          "components": [
            {
              "internalType": "address",
              "name": "collateralAsset",
              "type": "address"
            },
            {
              "internalType": "uint256",
              "name": "collateralFactor",
              "type": "uint256"
            },
            {
              "internalType": "uint256",
              "name": "decimals",
              "type": "uint256"
            },
            {
              "internalType": "string",
              "name": "name",
              "type": "string"
            },
            {
              "internalType": "uint256",
              "name": "liquidateCollateralFactor",
              "type": "uint256"
            },
            {
              "internalType": "uint256",
              "name": "liquidationFactor",
              "type": "uint256"
            },
            {
              "internalType": "uint256",
              "name": "price",
              "type": "uint256"
            },
            {
              "internalType": "address",
              "name": "priceFeed",
              "type": "address"
            },
            {
              "internalType": "uint256",
              "name": "supplyCap",
              "type": "uint256"
            },
            {
              "internalType": "string",
              "name": "symbol",
              "type": "string"
            },
            {
              "internalType": "uint256",
              "name": "totalSupply",
              "type": "uint256"
            }
          ],
          "internalType": "struct CometQuery.CollateralAsset",
          "name": "",
          "type": "tuple"
        }
      ],
      "stateMutability": "view",
      "type": "function"
    },
    {
      "inputs": [
        {
          "internalType": "contract Comet",
          "name": "comet",
          "type": "address"
        },
        {
          "components": [
            {
              "internalType": "address",
              "name": "collateralAsset",
              "type": "address"
            },
            {
              "internalType": "uint256",
              "name": "collateralFactor",
              "type": "uint256"
            },
            {
              "internalType": "uint256",
              "name": "decimals",
              "type": "uint256"
            },
            {
              "internalType": "string",
              "name": "name",
              "type": "string"
            },
            {
              "internalType": "uint256",
              "name": "liquidateCollateralFactor",
              "type": "uint256"
            },
            {
              "internalType": "uint256",
              "name": "liquidationFactor",
              "type": "uint256"
            },
            {
              "internalType": "uint256",
              "name": "price",
              "type": "uint256"
            },
            {
              "internalType": "address",
              "name": "priceFeed",
              "type": "address"
            },
            {
              "internalType": "uint256",
              "name": "supplyCap",
              "type": "uint256"
            },
            {
              "internalType": "string",
              "name": "symbol",
              "type": "string"
            },
            {
              "internalType": "uint256",
              "name": "totalSupply",
              "type": "uint256"
            }
          ],
          "internalType": "struct CometQuery.CollateralAsset",
          "name": "asset",
          "type": "tuple"
        },
        {
          "internalType": "address payable",
          "name": "account",
          "type": "address"
        }
      ],
      "name": "collateralInfoWithAccount",
      "outputs": [
        {
          "components": [
            {
              "internalType": "address",
              "name": "collateralAsset",
              "type": "address"
            },
            {
              "internalType": "uint256",
              "name": "allowance",
              "type": "uint256"
            },
            {
              "internalType": "uint256",
              "name": "balance",
              "type": "uint256"
            },
            {
              "internalType": "uint256",
              "name": "collateralFactor",
              "type": "uint256"
            },
            {
              "internalType": "uint256",
              "name": "decimals",
              "type": "uint256"
            },
            {
              "internalType": "string",
              "name": "name",
              "type": "string"
            },
            {
              "internalType": "uint256",
              "name": "liquidateCollateralFactor",
              "type": "uint256"
            },
            {
              "internalType": "uint256",
              "name": "liquidationFactor",
              "type": "uint256"
            },
            {
              "internalType": "uint256",
              "name": "price",
              "type": "uint256"
            },
            {
              "internalType": "address",
              "name": "priceFeed",
              "type": "address"
            },
            {
              "internalType": "uint256",
              "name": "supplyCap",
              "type": "uint256"
            },
            {
              "internalType": "string",
              "name": "symbol",
              "type": "string"
            },
            {
              "internalType": "uint256",
              "name": "totalSupply",
              "type": "uint256"
            },
            {
              "internalType": "uint256",
              "name": "walletBalance",
              "type": "uint256"
            }
          ],
          "internalType": "struct CometQuery.CollateralAssetWithAccountState",
          "name": "",
          "type": "tuple"
        }
      ],
      "stateMutability": "view",
      "type": "function"
    },
    {
      "inputs": [
        {
          "internalType": "contract Comet",
          "name": "comet",
          "type": "address"
        }
      ],
      "name": "query",
      "outputs": [
        {
          "components": [
            {
              "components": [
                {
                  "internalType": "address",
                  "name": "baseAsset",
                  "type": "address"
                },
                {
                  "internalType": "uint256",
                  "name": "balanceOfComet",
                  "type": "uint256"
                },
                {
                  "internalType": "uint256",
                  "name": "decimals",
                  "type": "uint256"
                },
                {
                  "internalType": "uint256",
                  "name": "minBorrow",
                  "type": "uint256"
                },
                {
                  "internalType": "string",
                  "name": "name",
                  "type": "string"
                },
                {
                  "internalType": "address",
                  "name": "priceFeed",
                  "type": "address"
                },
                {
                  "internalType": "uint256",
                  "name": "price",
                  "type": "uint256"
                },
                {
                  "internalType": "string",
                  "name": "symbol",
                  "type": "string"
                }
              ],
              "internalType": "struct CometQuery.BaseAsset",
              "name": "baseAsset",
              "type": "tuple"
            },
            {
              "internalType": "uint256",
              "name": "baseMinForRewards",
              "type": "uint256"
            },
            {
              "internalType": "uint256",
              "name": "baseTrackingBorrowSpeed",
              "type": "uint256"
            },
            {
              "internalType": "uint256",
              "name": "baseTrackingSupplySpeed",
              "type": "uint256"
            },
            {
              "internalType": "uint256",
              "name": "borrowAPR",
              "type": "uint256"
            },
            {
              "components": [
                {
                  "internalType": "address",
                  "name": "collateralAsset",
                  "type": "address"
                },
                {
                  "internalType": "uint256",
                  "name": "collateralFactor",
                  "type": "uint256"
                },
                {
                  "internalType": "uint256",
                  "name": "decimals",
                  "type": "uint256"
                },
                {
                  "internalType": "string",
                  "name": "name",
                  "type": "string"
                },
                {
                  "internalType": "uint256",
                  "name": "liquidateCollateralFactor",
                  "type": "uint256"
                },
                {
                  "internalType": "uint256",
                  "name": "liquidationFactor",
                  "type": "uint256"
                },
                {
                  "internalType": "uint256",
                  "name": "price",
                  "type": "uint256"
                },
                {
                  "internalType": "address",
                  "name": "priceFeed",
                  "type": "address"
                },
                {
                  "internalType": "uint256",
                  "name": "supplyCap",
                  "type": "uint256"
                },
                {
                  "internalType": "string",
                  "name": "symbol",
                  "type": "string"
                },
                {
                  "internalType": "uint256",
                  "name": "totalSupply",
                  "type": "uint256"
                }
              ],
              "internalType": "struct CometQuery.CollateralAsset[]",
              "name": "collateralAssets",
              "type": "tuple[]"
            },
            {
              "internalType": "uint256",
              "name": "earnAPR",
              "type": "uint256"
            },
            {
              "internalType": "uint256",
              "name": "totalBorrow",
              "type": "uint256"
            },
            {
              "internalType": "uint256",
              "name": "totalBorrowPrincipal",
              "type": "uint256"
            },
            {
              "internalType": "uint256",
              "name": "totalSupply",
              "type": "uint256"
            },
            {
              "internalType": "uint256",
              "name": "totalSupplyPrincipal",
              "type": "uint256"
            },
            {
              "internalType": "uint256",
              "name": "trackingIndexScale",
              "type": "uint256"
            }
          ],
          "internalType": "struct CometQuery.CometState",
          "name": "",
          "type": "tuple"
        }
      ],
      "stateMutability": "view",
      "type": "function"
    },
    {
      "inputs": [
        {
          "internalType": "contract Comet",
          "name": "comet",
          "type": "address"
        },
        {
          "internalType": "address payable",
          "name": "account",
          "type": "address"
        },
        {
          "internalType": "address payable",
          "name": "bulker",
          "type": "address"
        }
      ],
      "name": "queryWithAccount",
      "outputs": [
        {
          "components": [
            {
              "components": [
                {
                  "internalType": "address",
                  "name": "baseAsset",
                  "type": "address"
                },
                {
                  "internalType": "uint256",
                  "name": "allowance",
                  "type": "uint256"
                },
                {
                  "internalType": "uint256",
                  "name": "balance",
                  "type": "uint256"
                },
                {
                  "internalType": "uint256",
                  "name": "balanceOfComet",
                  "type": "uint256"
                },
                {
                  "internalType": "uint256",
                  "name": "decimals",
                  "type": "uint256"
                },
                {
                  "internalType": "uint256",
                  "name": "minBorrow",
                  "type": "uint256"
                },
                {
                  "internalType": "string",
                  "name": "name",
                  "type": "string"
                },
                {
                  "internalType": "address",
                  "name": "priceFeed",
                  "type": "address"
                },
                {
                  "internalType": "uint256",
                  "name": "price",
                  "type": "uint256"
                },
                {
                  "internalType": "string",
                  "name": "symbol",
                  "type": "string"
                },
                {
                  "internalType": "uint256",
                  "name": "walletBalance",
                  "type": "uint256"
                }
              ],
              "internalType": "struct CometQuery.BaseAssetWithAccountState",
              "name": "baseAsset",
              "type": "tuple"
            },
            {
              "internalType": "uint256",
              "name": "baseMinForRewards",
              "type": "uint256"
            },
            {
              "internalType": "uint256",
              "name": "baseTrackingBorrowSpeed",
              "type": "uint256"
            },
            {
              "internalType": "uint256",
              "name": "baseTrackingSupplySpeed",
              "type": "uint256"
            },
            {
              "internalType": "uint256",
              "name": "borrowAPR",
              "type": "uint256"
            },
            {
              "internalType": "uint256",
              "name": "bulkerAllowance",
              "type": "uint256"
            },
            {
              "components": [
                {
                  "internalType": "address",
                  "name": "collateralAsset",
                  "type": "address"
                },
                {
                  "internalType": "uint256",
                  "name": "allowance",
                  "type": "uint256"
                },
                {
                  "internalType": "uint256",
                  "name": "balance",
                  "type": "uint256"
                },
                {
                  "internalType": "uint256",
                  "name": "collateralFactor",
                  "type": "uint256"
                },
                {
                  "internalType": "uint256",
                  "name": "decimals",
                  "type": "uint256"
                },
                {
                  "internalType": "string",
                  "name": "name",
                  "type": "string"
                },
                {
                  "internalType": "uint256",
                  "name": "liquidateCollateralFactor",
                  "type": "uint256"
                },
                {
                  "internalType": "uint256",
                  "name": "liquidationFactor",
                  "type": "uint256"
                },
                {
                  "internalType": "uint256",
                  "name": "price",
                  "type": "uint256"
                },
                {
                  "internalType": "address",
                  "name": "priceFeed",
                  "type": "address"
                },
                {
                  "internalType": "uint256",
                  "name": "supplyCap",
                  "type": "uint256"
                },
                {
                  "internalType": "string",
                  "name": "symbol",
                  "type": "string"
                },
                {
                  "internalType": "uint256",
                  "name": "totalSupply",
                  "type": "uint256"
                },
                {
                  "internalType": "uint256",
                  "name": "walletBalance",
                  "type": "uint256"
                }
              ],
              "internalType": "struct CometQuery.CollateralAssetWithAccountState[]",
              "name": "collateralAssets",
              "type": "tuple[]"
            },
            {
              "internalType": "uint256",
              "name": "earnAPR",
              "type": "uint256"
            },
            {
              "internalType": "uint256",
              "name": "totalBorrow",
              "type": "uint256"
            },
            {
              "internalType": "uint256",
              "name": "totalBorrowPrincipal",
              "type": "uint256"
            },
            {
              "internalType": "uint256",
              "name": "totalSupply",
              "type": "uint256"
            },
            {
              "internalType": "uint256",
              "name": "totalSupplyPrincipal",
              "type": "uint256"
            },
            {
              "internalType": "uint256",
              "name": "trackingIndexScale",
              "type": "uint256"
            }
          ],
          "internalType": "struct CometQuery.CometStateWithAccountState",
          "name": "",
          "type": "tuple"
        }
      ],
      "stateMutability": "view",
      "type": "function"
    }
  ],
  "bytecode": {
    "object": "0x6080806040523461001657611f41908161001c8239f35b600080fdfe610160604052600436101561001357600080fd5b60003560e01c80635346cc191461035c578063c2815c0b14610221578063cbe293fa146101d55763d4fc9fc61461004957600080fd5b346101d0576020806003193601126101d05761006b610066610a42565b610e95565b906040519080825282519261018090818385015261010160018060a01b03808751166101a0870152848701516101c087015260408701516101e0870152606087015161020087015260e06080880151976100d4610100998a6102208b01526102a08a0190610a91565b9260a08201511661024089015260c0810151610260890152015161019f1987830301610280880152610a91565b948382015160408601526040820151606086015260608201516080860152608082015160a086015260a082015193601f1990818789030160c08801528551908189528089019281808460051b8c01019801936000915b8483106101a3578a808b8b8b8b60c082015160e086015260e082015181860152810151610120908186015281015161014090818601528101519061016091828601520151908301520390f35b90919293949884806101c0838f8690600196030187528d51610c90565b9b01930193019194939290610157565b600080fd5b346101d05760403660031901126101d0576101ee610a42565b6024359060ff821682036101d05761021d9161020991611989565b604051918291602083526020830190610c90565b0390f35b346101d0576003196060368201126101d05761023b610a42565b602435906001600160401b03928383116101d057610160809184360301126101d057604051908101818110858211176103465760405261027d83600401610c1a565b8152602483013560208201526044830135604082015260648301358481116101d0576102af9060043691860101610c49565b60608201526084830135608082015260a483013560a082015260c483013560c08201526102de60e48401610c1a565b60e08201526101048301356101008201526101248301359384116101d0576101446103329361031661021d9660043691840101610c49565b610120840152013561014082015261032c610a58565b91611cef565b604051918291602083526020830190610ab6565b634e487b7160e01b600052604160045260246000fd5b346101d05760603660031901126101d057610375610a42565b6024356001600160a01b03811690036101d057610390610a58565b61039b610160610b6d565b6040516103a781610b89565b6000815260006020820152600060408201526000606082015260006080820152600060a0820152606060c0820152600060e082015260006101008201526060610120820152600061014082015261016052600060206101600152600060406101600152600060606101600152600060806101600152600060a06101600152606060c06101600152600060e0610160015260006101006101600152600061012061016001526000610140610160015260006101608001526000610180610160015261047082610e95565b6040516370a0823160e01b8152602480356001600160a01b039081166004840152929391926020918491829088165afa91821561093b57600092610a0e575b50604051630dd3126d60e21b8152602480356001600160a01b0390811660048401526020918391829089165afa90811561093b576000916109dc575b50835151604051636eb1769f60e11b81526001600160a01b03602480358216600484015288821690830152909116919060208180604481010381865afa90811561093b576000916109aa575b5084828103116109945760249486519260e084015193604081015160608201519160808101519360018060a01b0360a0830151169560c0830151976020808501519460018060a01b039051166040519e8f80926370a0823160e01b825260018060a01b0383351660048301525afa9a8b1561093b5760009b61095e575b6040519d506105c28e610b89565b8d5260208d01520360408b015260608a0152608089015260a088015260c087015260e086015261010085015261012084015261014083015260a0830151519161060a83610dd6565b926106186040519485610bf9565b808452610627601f1991610dd6565b0160005b81811061094757505060005b60a0850151805160ff8316101561068e5790610668610689926106616024359160ff851690610e52565b5189611cef565b61067560ff831687610e52565b5261068360ff821686610e52565b50610e41565b610637565b5050602080850151604080870151606088015160808901519251636eb1769f60e11b8152602480356001600160a01b0390811660048401529889169082015299959897939691959094929392918a916044918391165afa801561093b57600090610907575b610729985060c08701519260e088015194610100890151966101208a0151986101606101408c01519b01519b6040519d8e610b6d565b8d5260208d015260408c015260608b015260808a015260a089015260c088015260e08701526101008601526101208501526101408401526101608301526101808201526040516020815281516101a0602083015260018060a01b038151166101c083015260208101516101e083015260408101516102008301526060810151610220830152608081015161024083015260a081015161026083015261014061081f6107e660c0840151610160610280870152610320860190610a91565b60e08401516001600160a01b03166102a08601526101008401516102c08601526101208401518582036101bf19016102e0870152610a91565b910151610300830152602083015160408301526040830151606083015260608301516080830152608083015160a083015260a083015160c083015260c083015190601f198382030160e0840152815180825260208201916020808360051b8301019401926000915b8383106108da578680876101808b60e08101516101008501526101008101516101208501526101208101516101408501526101408101516101608501526101608101518285015201516101a08301520390f35b90919293946020806108f8600193601f198682030187528951610ab6565b97019301930191939290610887565b506020883d602011610933575b8161092160209383610bf9565b810103126101d05761072997516106f3565b3d9150610914565b6040513d6000823e3d90fd5b60209061095261190b565b8282880101520161062b565b9a5060208d3d60201161098c575b8161097960209383610bf9565b810103126101d0576105c29c519a6105b4565b3d915061096c565b634e487b7160e01b600052601160045260246000fd5b90506020813d6020116109d4575b816109c560209383610bf9565b810103126101d0575187610537565b3d91506109b8565b90506020813d602011610a06575b816109f760209383610bf9565b810103126101d05751856104eb565b3d91506109ea565b9091506020813d602011610a3a575b81610a2a60209383610bf9565b810103126101d0575190846104af565b3d9150610a1d565b600435906001600160a01b03821682036101d057565b604435906001600160a01b03821682036101d057565b60005b838110610a815750506000910152565b8181015183820152602001610a71565b90602091610aaa81518092818552858086019101610a6e565b601f01601f1916010190565b90610b5460018060a01b0380845116835260208401516020840152604084015160408401526060840151606084015260808401516080840152610b0860a08501516101c08060a0870152850190610a91565b9060c085015160c085015260e085015160e08501526101008086015190850152610120908186015116908401526101408085015190840152610160808501519084830390850152610a91565b9161018080820151908301526101a08091015191015290565b6101a081019081106001600160401b0382111761034657604052565b61016081019081106001600160401b0382111761034657604052565b61018081019081106001600160401b0382111761034657604052565b61010081019081106001600160401b0382111761034657604052565b6101c081019081106001600160401b0382111761034657604052565b90601f801991011681019081106001600160401b0382111761034657604052565b35906001600160a01b03821682036101d057565b6001600160401b03811161034657601f01601f191660200190565b81601f820112156101d057803590610c6082610c2e565b92610c6e6040519485610bf9565b828452602083830101116101d057816000926020809301838601378301015290565b90610d1760018060a01b038084511683526020840151602084015260408401516040840152610cce6060850151610160806060870152850190610a91565b906080850151608085015260a085015160a085015260c085015160c085015260e08501511660e08401526101008085015190840152610120808501519084830390850152610a91565b916101408091015191015290565b519060ff821682036101d057565b51906001600160a01b03821682036101d057565b51906001600160401b03821682036101d057565b51906cffffffffffffffffffffffffff821682036101d057565b6020818303126101d0578051906001600160401b0382116101d0570181601f820112156101d0578051610da781610c2e565b92610db56040519485610bf9565b818452602082840101116101d057610dd39160208085019101610a6e565b90565b6001600160401b0381116103465760051b60200190565b60405190610dfa82610b89565b816101406000918281528260208201528260408201526060808201528260808201528260a08201528260c08201528260e08201528261010082015260606101208201520152565b60ff1660ff81146109945760010190565b8051821015610e665760209160051b010190565b634e487b7160e01b600052603260045260246000fd5b6301e13380908060001904821181151516610994570290565b6080526000610160604051610ea981610ba5565b604051610eb581610bc1565b838152836020820152836040820152836060820152606060808201528360a08201528360c0820152606060e08201528152826020820152826040820152826060820152826080820152606060a08201528260c08201528260e0820152826101008201528261012082015282610140820152015260405163a46fe83b60e01b815260208160048160018060a01b03608051165afa801561093b57600060c0526118d0575b506040519063c55dae6360e01b825260208260048160018060a01b03608051165afa91821561093b57600092611894575b506040519063e7dad6bd60e01b825260208260048160018060a01b03608051165afa91821561093b57600092611858575b506040519163300e6beb60e01b835260208360048160018060a01b03608051165afa92831561093b57600093611824575b506040516355d3f8af60e11b8152608051602090829060049082906001600160a01b03165afa90811561093b576000916117f2575b506040519363189bb2f160e01b855260208560048160018060a01b03608051165afa94851561093b576000956117be575b5060405190634f54cd2d60e11b825260208260048160018060a01b03608051165afa91821561093b5760009261178a575b50604051936349b270c560e11b855260208560048160018060a01b03608051165afa94851561093b57600095611756575b5060405197637eb7113160e01b895260208960048160018060a01b03608051165afa98891561093b57600099611722575b50604051926318160ddd60e01b845260208460048160018060a01b03608051165afa93841561093b576000946116ee575b506040519163020a17bd60e61b835260208360048160018060a01b03608051165afa92831561093b576000936116ba575b506040519363b9f0baf760e01b85526101008560048160018060a01b03608051165afa94851561093b576000956115ee575b50604051634fd41dad60e11b8152600481018d9052608051602090829060249082906001600160a01b03165afa801561093b57600060a0526115b3575b506040519b63d955759d60e01b8d5260048d015260208c60248160018060a01b03608051165afa9b8c1561093b5760009c611577575b506040516395d89b4160e01b8152926000846004816001600160a01b0387165afa93841561093b5760009461155a575b5060405163313ce56760e01b81526020816004816001600160a01b0388165afa801561093b57600061014052611526575b506040516306fdde0360e01b8152906000826004816001600160a01b0388165afa91821561093b57600092611501575b506040516341976e0960e01b81526001600160a01b03848116600483015260805191959160209187916024918391165afa94851561093b576000956114cd575b506040516101208181526370a0823160e01b90915260805181516001600160a01b039182166004909101529051602091602490829085165afa80610100521561093b5760009061010051611495575b61131a6040518060e052610bc1565b60018060a01b031660e05152602060e051015261014051604060e0510152606060e0510152608060e051015260018060a01b031660a060e051015260c060e051015260e08051015261137060ff60c05116610dd6565b9761137e604051998a610bf9565b60ff60c051168952601f1961139760ff60c05116610dd6565b0160005b81811061147d57505060005b60ff60c0511660ff821610156113e757806113c76113e292608051611989565b6113d460ff83168d610e52565b5261068360ff82168c610e52565b6113a7565b509193959790929496986114106001600160401b036114098160a05116610e7c565b9216610e7c565b926cffffffffffffffffffffffffff60808160a08901511697015116976040519a61143a8c610ba5565b60e0518c5260208c015260408b015260608a0152608089015260a088015260c087015260e086015261010085015261012084015261014083015261016082015290565b808b6020809361148b610ded565b920101520161139b565b905060203d6020116114c6575b6114af8161012051610bf9565b6020610120518092810103126101d057519061130b565b503d6114a2565b9094506020813d6020116114f9575b816114e960209383610bf9565b810103126101d0575193386112bc565b3d91506114dc565b61151f9192503d806000833e6115178183610bf9565b810190610d75565b903861127c565b6020813d602011611552575b8161153f60209383610bf9565b810103126101d05751610140523861124c565b3d9150611532565b6115709194503d806000833e6115178183610bf9565b923861121b565b909b506020813d6020116115ab575b8161159360209383610bf9565b810103126101d0576115a490610d47565b9a386111eb565b3d9150611586565b6020813d6020116115e6575b816115cc60209383610bf9565b810103126101d0576115dd90610d47565b60a052386111b5565b3d91506115bf565b909450610100813d610100116116b2575b8161160d6101009383610bf9565b810103126101d0576040519061162282610bc1565b61162b81610d47565b825261163960208201610d47565b602083015261164a60408201610d47565b604083015261165b60608201610d47565b606083015261166c60808201610d5b565b608083015261167d60a08201610d5b565b60a083015260c081015164ffffffffff811681036101d05760c08301526116a69060e001610d25565b60e08201529338611178565b3d91506115ff565b9092506020813d6020116116e6575b816116d660209383610bf9565b810103126101d057519138611146565b3d91506116c9565b9093506020813d60201161171a575b8161170a60209383610bf9565b810103126101d057519238611115565b3d91506116fd565b9098506020813d60201161174e575b8161173e60209383610bf9565b810103126101d0575197386110e4565b3d9150611731565b9094506020813d602011611782575b8161177260209383610bf9565b810103126101d0575193386110b3565b3d9150611765565b9091506020813d6020116117b6575b816117a660209383610bf9565b810103126101d057519038611082565b3d9150611799565b9094506020813d6020116117ea575b816117da60209383610bf9565b810103126101d057519338611051565b3d91506117cd565b90506020813d60201161181c575b8161180d60209383610bf9565b810103126101d0575138611020565b3d9150611800565b9092506020813d602011611850575b8161184060209383610bf9565b810103126101d057519138610feb565b3d9150611833565b9091506020813d60201161188c575b8161187460209383610bf9565b810103126101d05761188590610d33565b9038610fba565b3d9150611867565b9091506020813d6020116118c8575b816118b060209383610bf9565b810103126101d0576118c190610d33565b9038610f89565b3d91506118a3565b6020813d602011611903575b816118e960209383610bf9565b810103126101d0576118fa90610d25565b60c05238610f58565b3d91506118dc565b6040519061191882610bdd565b816101a0600091828152826020820152826040820152826060820152826080820152606060a08201528260c08201528260e08201528261010082015282610120820152826101408201526060610160820152826101808201520152565b51906001600160801b03821682036101d057565b90611992610ded565b506040805163c8c7fe6b60e01b815260ff9092166004830152916001600160a01b0390811691906101008083602481875afa928315611b9857600093611c36575b506020928381019383855116966001600160401b039060048260808601511691848b82519384809263313ce56760e01b82525afa918215611c2b57600092611bfb575b506004928460a0880151169460c0880151169560008a8c51168451968780926306fdde0360e01b82525afa948515611b6e57908c97969594939291600095611be0575b50828901818c82511660248651809c81936341976e0960e01b835260048301525afa988915611bd557908c9160009a611ba3575b5051169860e001516001600160801b03169a808d51169c8451809e81906395d89b4160e01b82525a92600491600094fa9d8e15611b985760009e611b79575b505184516359e017bd60e01b8152911660048201529c81908e90815a91602492fa9c8d15611b6e5760009d611b3c575b5082519d8e611b0a81610b89565b528d01528b015260608a0152608089015260a088015260c087015260e086015284015261012083015261014082015290565b909c8d82813d8311611b67575b611b538183610bf9565b81010312611b645750519b38611afc565b80fd5b503d611b49565b83513d6000823e3d90fd5b611b90908493929f3d8091833e6115178183610bf9565b9d9091611acc565b85513d6000823e3d90fd5b9150988282813d8311611bce575b611bbb8183610bf9565b81010312611b6457508b90519838611a8d565b503d611bb1565b84513d6000823e3d90fd5b611bf491953d8091833e6115178183610bf9565b9338611a59565b90918582813d8311611c24575b611c128183610bf9565b81010312611b64575051906004611a16565b503d611c08565b50513d6000823e3d90fd5b90928382813d8311611ce8575b611c4d8183610bf9565b81010312611b645750611cdc60e0865192611c6784610bc1565b611c7081610d25565b8452611c7e60208201610d33565b6020850152611c8e888201610d33565b88850152611c9e60608201610d47565b6060850152611caf60808201610d47565b6080850152611cc060a08201610d47565b60a0850152611cd160c08201610d47565b60c085015201611975565b60e082015291386119d3565b503d611c43565b9190611cf961190b565b508051604051636eb1769f60e11b81526001600160a01b038481166004830152948516602482018190529490911693602082604481885afa91821561093b57600092611ed6575b508251604051632e12a4f760e11b81526001600160a01b038681166004830152909116602482015290602090829060449082905afa90811561093b57600091611e9c575b506020830151604080850151608086015160a0870151606088015160c089015160e08a01516101008b01516101208c01516101408d01519c5198516370a0823160e01b81526001600160a01b039e8f1660048201529d909b919a928116999398959794958e918291165a92602491602094fa9c8d1561093b5760009d611e68575b50604051809e611e1482610bdd565b8152602001526001600160801b031660408d015260608c015260808b015260a08a015260c089015260e08801526101008701526101208601526101408501526101608401526101808301526101a082015290565b909c6020823d602011611e94575b81611e8360209383610bf9565b81010312611b645750519b38611e05565b3d9150611e76565b906020823d602011611ece575b81611eb660209383610bf9565b81010312611b645750611ec890611975565b38611d84565b3d9150611ea9565b90916020823d602011611f03575b81611ef160209383610bf9565b81010312611b64575051906020611d40565b3d9150611ee456fea2646970667358221220104d98973b7c67efe7ab17dda9bcccaaa198c3995ad6fc0cb230c592841abcd464736f6c63430008100033",
    "linkReferences": {}
  },
  "methodIdentifiers": {
    "collateralInfo(address,uint8)": "cbe293fa",
    "collateralInfoWithAccount(address,(address,uint256,uint256,string,uint256,uint256,uint256,address,uint256,string,uint256),address)": "c2815c0b",
    "query(address)": "d4fc9fc6",
    "queryWithAccount(address,address,address)": "5346cc19"
  },
  "id": 1
}